{
  "_format": "hh-sol-artifact-1",
  "contractName": "NFTMint",
  "sourceName": "contracts/NFTMint.sol",
  "abi": [
    {
      "inputs": [
        {
          "internalType": "address",
          "name": "_marketplace",
          "type": "address"
        },
        {
          "internalType": "address",
          "name": "_auctionContract",
          "type": "address"
        }
      ],
      "stateMutability": "nonpayable",
      "type": "constructor"
    },
    {
      "anonymous": false,
      "inputs": [
        {
          "indexed": true,
          "internalType": "address",
          "name": "owner",
          "type": "address"
        },
        {
          "indexed": true,
          "internalType": "address",
          "name": "approved",
          "type": "address"
        },
        {
          "indexed": true,
          "internalType": "uint256",
          "name": "tokenId",
          "type": "uint256"
        }
      ],
      "name": "Approval",
      "type": "event"
    },
    {
      "anonymous": false,
      "inputs": [
        {
          "indexed": true,
          "internalType": "address",
          "name": "owner",
          "type": "address"
        },
        {
          "indexed": true,
          "internalType": "address",
          "name": "operator",
          "type": "address"
        },
        {
          "indexed": false,
          "internalType": "bool",
          "name": "approved",
          "type": "bool"
        }
      ],
      "name": "ApprovalForAll",
      "type": "event"
    },
    {
      "anonymous": false,
      "inputs": [
        {
          "indexed": true,
          "internalType": "bytes32",
          "name": "role",
          "type": "bytes32"
        },
        {
          "indexed": true,
          "internalType": "bytes32",
          "name": "previousAdminRole",
          "type": "bytes32"
        },
        {
          "indexed": true,
          "internalType": "bytes32",
          "name": "newAdminRole",
          "type": "bytes32"
        }
      ],
      "name": "RoleAdminChanged",
      "type": "event"
    },
    {
      "anonymous": false,
      "inputs": [
        {
          "indexed": true,
          "internalType": "bytes32",
          "name": "role",
          "type": "bytes32"
        },
        {
          "indexed": true,
          "internalType": "address",
          "name": "account",
          "type": "address"
        },
        {
          "indexed": true,
          "internalType": "address",
          "name": "sender",
          "type": "address"
        }
      ],
      "name": "RoleGranted",
      "type": "event"
    },
    {
      "anonymous": false,
      "inputs": [
        {
          "indexed": true,
          "internalType": "bytes32",
          "name": "role",
          "type": "bytes32"
        },
        {
          "indexed": true,
          "internalType": "address",
          "name": "account",
          "type": "address"
        },
        {
          "indexed": true,
          "internalType": "address",
          "name": "sender",
          "type": "address"
        }
      ],
      "name": "RoleRevoked",
      "type": "event"
    },
    {
      "anonymous": false,
      "inputs": [
        {
          "indexed": true,
          "internalType": "address",
          "name": "from",
          "type": "address"
        },
        {
          "indexed": true,
          "internalType": "address",
          "name": "to",
          "type": "address"
        },
        {
          "indexed": true,
          "internalType": "uint256",
          "name": "tokenId",
          "type": "uint256"
        }
      ],
      "name": "Transfer",
      "type": "event"
    },
    {
      "inputs": [],
      "name": "ADMIN",
      "outputs": [
        {
          "internalType": "bytes32",
          "name": "",
          "type": "bytes32"
        }
      ],
      "stateMutability": "view",
      "type": "function"
    },
    {
      "inputs": [],
      "name": "DEFAULT_ADMIN_ROLE",
      "outputs": [
        {
          "internalType": "bytes32",
          "name": "",
          "type": "bytes32"
        }
      ],
      "stateMutability": "view",
      "type": "function"
    },
    {
      "inputs": [],
      "name": "SELLER",
      "outputs": [
        {
          "internalType": "bytes32",
          "name": "",
          "type": "bytes32"
        }
      ],
      "stateMutability": "view",
      "type": "function"
    },
    {
      "inputs": [
        {
          "internalType": "address",
          "name": "to",
          "type": "address"
        },
        {
          "internalType": "uint256",
          "name": "tokenId",
          "type": "uint256"
        }
      ],
      "name": "approve",
      "outputs": [],
      "stateMutability": "nonpayable",
      "type": "function"
    },
    {
      "inputs": [
        {
          "internalType": "address",
          "name": "owner",
          "type": "address"
        }
      ],
      "name": "balanceOf",
      "outputs": [
        {
          "internalType": "uint256",
          "name": "",
          "type": "uint256"
        }
      ],
      "stateMutability": "view",
      "type": "function"
    },
    {
      "inputs": [
        {
          "internalType": "uint256",
          "name": "tokenId",
          "type": "uint256"
        }
      ],
      "name": "burn",
      "outputs": [],
      "stateMutability": "nonpayable",
      "type": "function"
    },
    {
      "inputs": [
        {
          "internalType": "uint256",
          "name": "tokenId",
          "type": "uint256"
        }
      ],
      "name": "getApproved",
      "outputs": [
        {
          "internalType": "address",
          "name": "",
          "type": "address"
        }
      ],
      "stateMutability": "view",
      "type": "function"
    },
    {
      "inputs": [
        {
          "internalType": "bytes32",
          "name": "role",
          "type": "bytes32"
        }
      ],
      "name": "getRoleAdmin",
      "outputs": [
        {
          "internalType": "bytes32",
          "name": "",
          "type": "bytes32"
        }
      ],
      "stateMutability": "view",
      "type": "function"
    },
    {
      "inputs": [
        {
          "internalType": "bytes32",
          "name": "role",
          "type": "bytes32"
        },
        {
          "internalType": "address",
          "name": "account",
          "type": "address"
        }
      ],
      "name": "grantRole",
      "outputs": [],
      "stateMutability": "nonpayable",
      "type": "function"
    },
    {
      "inputs": [
        {
          "internalType": "bytes32",
          "name": "role",
          "type": "bytes32"
        },
        {
          "internalType": "address",
          "name": "account",
          "type": "address"
        }
      ],
      "name": "hasRole",
      "outputs": [
        {
          "internalType": "bool",
          "name": "",
          "type": "bool"
        }
      ],
      "stateMutability": "view",
      "type": "function"
    },
    {
      "inputs": [
        {
          "internalType": "address",
          "name": "owner",
          "type": "address"
        },
        {
          "internalType": "address",
          "name": "operator",
          "type": "address"
        }
      ],
      "name": "isApprovedForAll",
      "outputs": [
        {
          "internalType": "bool",
          "name": "",
          "type": "bool"
        }
      ],
      "stateMutability": "view",
      "type": "function"
    },
    {
      "inputs": [
        {
          "internalType": "string",
          "name": "tokenURI",
          "type": "string"
        }
      ],
      "name": "mint",
      "outputs": [],
      "stateMutability": "nonpayable",
      "type": "function"
    },
    {
      "inputs": [],
      "name": "name",
      "outputs": [
        {
          "internalType": "string",
          "name": "",
          "type": "string"
        }
      ],
      "stateMutability": "view",
      "type": "function"
    },
    {
      "inputs": [
        {
          "internalType": "uint256",
          "name": "tokenId",
          "type": "uint256"
        }
      ],
      "name": "ownerOf",
      "outputs": [
        {
          "internalType": "address",
          "name": "",
          "type": "address"
        }
      ],
      "stateMutability": "view",
      "type": "function"
    },
    {
      "inputs": [
        {
          "internalType": "bytes32",
          "name": "role",
          "type": "bytes32"
        },
        {
          "internalType": "address",
          "name": "account",
          "type": "address"
        }
      ],
      "name": "renounceRole",
      "outputs": [],
      "stateMutability": "nonpayable",
      "type": "function"
    },
    {
      "inputs": [
        {
          "internalType": "bytes32",
          "name": "role",
          "type": "bytes32"
        },
        {
          "internalType": "address",
          "name": "account",
          "type": "address"
        }
      ],
      "name": "revokeRole",
      "outputs": [],
      "stateMutability": "nonpayable",
      "type": "function"
    },
    {
      "inputs": [
        {
          "internalType": "address",
          "name": "_seller",
          "type": "address"
        }
      ],
      "name": "revokeSellerRole",
      "outputs": [],
      "stateMutability": "nonpayable",
      "type": "function"
    },
    {
      "inputs": [
        {
          "internalType": "address",
          "name": "from",
          "type": "address"
        },
        {
          "internalType": "address",
          "name": "to",
          "type": "address"
        },
        {
          "internalType": "uint256",
          "name": "tokenId",
          "type": "uint256"
        }
      ],
      "name": "safeTransferFrom",
      "outputs": [],
      "stateMutability": "nonpayable",
      "type": "function"
    },
    {
      "inputs": [
        {
          "internalType": "address",
          "name": "from",
          "type": "address"
        },
        {
          "internalType": "address",
          "name": "to",
          "type": "address"
        },
        {
          "internalType": "uint256",
          "name": "tokenId",
          "type": "uint256"
        },
        {
          "internalType": "bytes",
          "name": "_data",
          "type": "bytes"
        }
      ],
      "name": "safeTransferFrom",
      "outputs": [],
      "stateMutability": "nonpayable",
      "type": "function"
    },
    {
      "inputs": [
        {
          "internalType": "address",
          "name": "operator",
          "type": "address"
        },
        {
          "internalType": "bool",
          "name": "approved",
          "type": "bool"
        }
      ],
      "name": "setApprovalForAll",
      "outputs": [],
      "stateMutability": "nonpayable",
      "type": "function"
    },
    {
      "inputs": [
        {
          "internalType": "address",
          "name": "_seller",
          "type": "address"
        }
      ],
      "name": "setSellerRole",
      "outputs": [],
      "stateMutability": "nonpayable",
      "type": "function"
    },
    {
      "inputs": [
        {
          "internalType": "bytes4",
          "name": "interfaceId",
          "type": "bytes4"
        }
      ],
      "name": "supportsInterface",
      "outputs": [
        {
          "internalType": "bool",
          "name": "",
          "type": "bool"
        }
      ],
      "stateMutability": "view",
      "type": "function"
    },
    {
      "inputs": [],
      "name": "symbol",
      "outputs": [
        {
          "internalType": "string",
          "name": "",
          "type": "string"
        }
      ],
      "stateMutability": "view",
      "type": "function"
    },
    {
      "inputs": [
        {
          "internalType": "uint256",
          "name": "tokenId",
          "type": "uint256"
        }
      ],
      "name": "tokenURI",
      "outputs": [
        {
          "internalType": "string",
          "name": "",
          "type": "string"
        }
      ],
      "stateMutability": "view",
      "type": "function"
    },
    {
      "inputs": [
        {
          "internalType": "address",
          "name": "from",
          "type": "address"
        },
        {
          "internalType": "address",
          "name": "to",
          "type": "address"
        },
        {
          "internalType": "uint256",
          "name": "tokenId",
          "type": "uint256"
        }
      ],
      "name": "transferFrom",
      "outputs": [],
      "stateMutability": "nonpayable",
      "type": "function"
    },
    {
      "inputs": [
        {
          "internalType": "address",
          "name": "_admin",
          "type": "address"
        }
      ],
      "name": "updateAdmin",
      "outputs": [],
      "stateMutability": "nonpayable",
      "type": "function"
    },
    {
      "inputs": [
        {
          "internalType": "uint256",
          "name": "tokenId",
          "type": "uint256"
        },
        {
          "internalType": "string",
          "name": "_tokenURI",
          "type": "string"
        }
      ],
      "name": "updateTokenURI",
      "outputs": [],
      "stateMutability": "nonpayable",
      "type": "function"
    }
  ],
  "bytecode": "0x60806040523480156200001157600080fd5b506040516200495e3803806200495e833981810160405281019062000037919062000764565b6040518060400160405280600d81526020017f466f7265766572204361726174000000000000000000000000000000000000008152506040518060400160405280600381526020017f46435400000000000000000000000000000000000000000000000000000000008152508160009080519060200190620000bb9291906200064a565b508060019080519060200190620000d49291906200064a565b5050506001600781905550620000ef620002c960201b60201c565b600c60006101000a81548173ffffffffffffffffffffffffffffffffffffffff021916908373ffffffffffffffffffffffffffffffffffffffff16021790555081600a60006101000a81548173ffffffffffffffffffffffffffffffffffffffff021916908373ffffffffffffffffffffffffffffffffffffffff16021790555080600b60006101000a81548173ffffffffffffffffffffffffffffffffffffffff021916908373ffffffffffffffffffffffffffffffffffffffff160217905550620002057ff23ec0bb4210edd5cba85afd05127efcd2fc6a781bfed49188da1081670b22d8600c60009054906101000a900473ffffffffffffffffffffffffffffffffffffffff16620002d160201b60201c565b620002577f37ab20b0b9b7603d46ac9beda6418de3386ea0b9b7921a4a1b2cecd878035f087ff23ec0bb4210edd5cba85afd05127efcd2fc6a781bfed49188da1081670b22d8620003c360201b60201c565b6200028c600a60009054906101000a900473ffffffffffffffffffffffffffffffffffffffff1660016200042760201b60201c565b620002c1600b60009054906101000a900473ffffffffffffffffffffffffffffffffffffffff1660016200042760201b60201c565b5050620008cd565b600033905090565b620002e382826200044d60201b60201c565b620003bf5760016008600084815260200190815260200160002060000160008373ffffffffffffffffffffffffffffffffffffffff1673ffffffffffffffffffffffffffffffffffffffff16815260200190815260200160002060006101000a81548160ff02191690831515021790555062000364620002c960201b60201c565b73ffffffffffffffffffffffffffffffffffffffff168173ffffffffffffffffffffffffffffffffffffffff16837f2f8788117e7eff1d82e926ec794901d17c78024a50270940304540a733656f0d60405160405180910390a45b5050565b6000620003d683620004b860201b60201c565b90508160086000858152602001908152602001600020600101819055508181847fbd79b86ffe0ab8e8776151514217cd7cacd52c909f66475c3af44e129f0b00ff60405160405180910390a4505050565b620004496200043b620002c960201b60201c565b8383620004d860201b60201c565b5050565b60006008600084815260200190815260200160002060000160008373ffffffffffffffffffffffffffffffffffffffff1673ffffffffffffffffffffffffffffffffffffffff16815260200190815260200160002060009054906101000a900460ff16905092915050565b600060086000838152602001908152602001600020600101549050919050565b8173ffffffffffffffffffffffffffffffffffffffff168373ffffffffffffffffffffffffffffffffffffffff1614156200054a576040517f08c379a000000000000000000000000000000000000000000000000000000000815260040162000541906200080c565b60405180910390fd5b80600560008573ffffffffffffffffffffffffffffffffffffffff1673ffffffffffffffffffffffffffffffffffffffff16815260200190815260200160002060008473ffffffffffffffffffffffffffffffffffffffff1673ffffffffffffffffffffffffffffffffffffffff16815260200190815260200160002060006101000a81548160ff0219169083151502179055508173ffffffffffffffffffffffffffffffffffffffff168373ffffffffffffffffffffffffffffffffffffffff167f17307eab39ab6107e8899845ad3d59bd9653f200f220920489ca2b5937696c31836040516200063d91906200084b565b60405180910390a3505050565b828054620006589062000897565b90600052602060002090601f0160209004810192826200067c5760008555620006c8565b82601f106200069757805160ff1916838001178555620006c8565b82800160010185558215620006c8579182015b82811115620006c7578251825591602001919060010190620006aa565b5b509050620006d79190620006db565b5090565b5b80821115620006f6576000816000905550600101620006dc565b5090565b600080fd5b600073ffffffffffffffffffffffffffffffffffffffff82169050919050565b60006200072c82620006ff565b9050919050565b6200073e816200071f565b81146200074a57600080fd5b50565b6000815190506200075e8162000733565b92915050565b600080604083850312156200077e576200077d620006fa565b5b60006200078e858286016200074d565b9250506020620007a1858286016200074d565b9150509250929050565b600082825260208201905092915050565b7f4552433732313a20617070726f766520746f2063616c6c657200000000000000600082015250565b6000620007f4601983620007ab565b91506200080182620007bc565b602082019050919050565b600060208201905081810360008301526200082781620007e5565b9050919050565b60008115159050919050565b62000845816200082e565b82525050565b60006020820190506200086260008301846200083a565b92915050565b7f4e487b7100000000000000000000000000000000000000000000000000000000600052602260045260246000fd5b60006002820490506001821680620008b057607f821691505b60208210811415620008c757620008c662000868565b5b50919050565b61408180620008dd6000396000f3fe608060405234801561001057600080fd5b50600436106101a95760003560e01c806342966c68116100f9578063b88d4fde11610097578063d547741f11610071578063d547741f146104c8578063d85d3d27146104e4578063e2f273bd14610500578063e985e9c51461051c576101a9565b8063b88d4fde1461045e578063bca93eba1461047a578063c87b56dd14610498576101a9565b806391d14854116100d357806391d14854146103d657806395d89b4114610406578063a217fddf14610424578063a22cb46514610442576101a9565b806342966c681461035a5780636352211e1461037657806370a08231146103a6576101a9565b806323b872dd116101665780632f2ff15d116101405780632f2ff15d146102ea57806335964cd71461030657806336568abe1461032257806342842e0e1461033e576101a9565b806323b872dd14610280578063248a9ca31461029c5780632a0acc6a146102cc576101a9565b806301ffc9a7146101ae57806304f16cad146101de57806306fdde03146101fa578063081812fc14610218578063095ea7b31461024857806318e97fd114610264575b600080fd5b6101c860048036038101906101c391906128c9565b61054c565b6040516101d59190612911565b60405180910390f35b6101f860048036038101906101f3919061298a565b61055e565b005b61020261058b565b60405161020f9190612a50565b60405180910390f35b610232600480360381019061022d9190612aa8565b61061d565b60405161023f9190612ae4565b60405180910390f35b610262600480360381019061025d9190612aff565b6106a2565b005b61027e60048036038101906102799190612c74565b6107ba565b005b61029a60048036038101906102959190612cd0565b6108ae565b005b6102b660048036038101906102b19190612d59565b61090e565b6040516102c39190612d95565b60405180910390f35b6102d461092e565b6040516102e19190612d95565b60405180910390f35b61030460048036038101906102ff9190612db0565b610952565b005b610320600480360381019061031b919061298a565b610973565b005b61033c60048036038101906103379190612db0565b6109f6565b005b61035860048036038101906103539190612cd0565b610a79565b005b610374600480360381019061036f9190612aa8565b610a99565b005b610390600480360381019061038b9190612aa8565b610b1b565b60405161039d9190612ae4565b60405180910390f35b6103c060048036038101906103bb919061298a565b610bcd565b6040516103cd9190612dff565b60405180910390f35b6103f060048036038101906103eb9190612db0565b610c85565b6040516103fd9190612911565b60405180910390f35b61040e610cf0565b60405161041b9190612a50565b60405180910390f35b61042c610d82565b6040516104399190612d95565b60405180910390f35b61045c60048036038101906104579190612e46565b610d89565b005b61047860048036038101906104739190612f27565b610d9f565b005b610482610e01565b60405161048f9190612d95565b60405180910390f35b6104b260048036038101906104ad9190612aa8565b610e25565b6040516104bf9190612a50565b60405180910390f35b6104e260048036038101906104dd9190612db0565b610f77565b005b6104fe60048036038101906104f99190612faa565b610f98565b005b61051a6004803603810190610515919061298a565b6110df565b005b61053660048036038101906105319190612ff3565b61127f565b6040516105439190612911565b60405180910390f35b600061055782611313565b9050919050565b6105887f37ab20b0b9b7603d46ac9beda6418de3386ea0b9b7921a4a1b2cecd878035f0882610952565b50565b60606000805461059a90613062565b80601f01602080910402602001604051908101604052809291908181526020018280546105c690613062565b80156106135780601f106105e857610100808354040283529160200191610613565b820191906000526020600020905b8154815290600101906020018083116105f657829003601f168201915b5050505050905090565b60006106288261138d565b610667576040517f08c379a000000000000000000000000000000000000000000000000000000000815260040161065e90613106565b60405180910390fd5b6004600083815260200190815260200160002060009054906101000a900473ffffffffffffffffffffffffffffffffffffffff169050919050565b60006106ad82610b1b565b90508073ffffffffffffffffffffffffffffffffffffffff168373ffffffffffffffffffffffffffffffffffffffff16141561071e576040517f08c379a000000000000000000000000000000000000000000000000000000000815260040161071590613198565b60405180910390fd5b8073ffffffffffffffffffffffffffffffffffffffff1661073d6113f9565b73ffffffffffffffffffffffffffffffffffffffff16148061076c575061076b816107666113f9565b61127f565b5b6107ab576040517f08c379a00000000000000000000000000000000000000000000000000000000081526004016107a29061322a565b60405180910390fd5b6107b58383611401565b505050565b60026007541415610800576040517f08c379a00000000000000000000000000000000000000000000000000000000081526004016107f790613296565b60405180910390fd5b6002600781905550600c60009054906101000a900473ffffffffffffffffffffffffffffffffffffffff1673ffffffffffffffffffffffffffffffffffffffff163373ffffffffffffffffffffffffffffffffffffffff1614610898576040517f08c379a000000000000000000000000000000000000000000000000000000000815260040161088f90613302565b60405180910390fd5b6108a282826114ba565b60016007819055505050565b6108bf6108b96113f9565b8261152e565b6108fe576040517f08c379a00000000000000000000000000000000000000000000000000000000081526004016108f590613394565b60405180910390fd5b61090983838361160c565b505050565b600060086000838152602001908152602001600020600101549050919050565b7ff23ec0bb4210edd5cba85afd05127efcd2fc6a781bfed49188da1081670b22d881565b61095b8261090e565b61096481611873565b61096e8383611887565b505050565b600260075414156109b9576040517f08c379a00000000000000000000000000000000000000000000000000000000081526004016109b090613296565b60405180910390fd5b60026007819055506109eb7f37ab20b0b9b7603d46ac9beda6418de3386ea0b9b7921a4a1b2cecd878035f0882610f77565b600160078190555050565b6109fe6113f9565b73ffffffffffffffffffffffffffffffffffffffff168173ffffffffffffffffffffffffffffffffffffffff1614610a6b576040517f08c379a0000000000000000000000000000000000000000000000000000000008152600401610a6290613426565b60405180910390fd5b610a758282611968565b5050565b610a9483838360405180602001604052806000815250610d9f565b505050565b3373ffffffffffffffffffffffffffffffffffffffff16610ab982610b1b565b73ffffffffffffffffffffffffffffffffffffffff1614610b0f576040517f08c379a0000000000000000000000000000000000000000000000000000000008152600401610b0690613492565b60405180910390fd5b610b1881611a4a565b50565b6000806002600084815260200190815260200160002060009054906101000a900473ffffffffffffffffffffffffffffffffffffffff169050600073ffffffffffffffffffffffffffffffffffffffff168173ffffffffffffffffffffffffffffffffffffffff161415610bc4576040517f08c379a0000000000000000000000000000000000000000000000000000000008152600401610bbb90613524565b60405180910390fd5b80915050919050565b60008073ffffffffffffffffffffffffffffffffffffffff168273ffffffffffffffffffffffffffffffffffffffff161415610c3e576040517f08c379a0000000000000000000000000000000000000000000000000000000008152600401610c35906135b6565b60405180910390fd5b600360008373ffffffffffffffffffffffffffffffffffffffff1673ffffffffffffffffffffffffffffffffffffffff168152602001908152602001600020549050919050565b60006008600084815260200190815260200160002060000160008373ffffffffffffffffffffffffffffffffffffffff1673ffffffffffffffffffffffffffffffffffffffff16815260200190815260200160002060009054906101000a900460ff16905092915050565b606060018054610cff90613062565b80601f0160208091040260200160405190810160405280929190818152602001828054610d2b90613062565b8015610d785780601f10610d4d57610100808354040283529160200191610d78565b820191906000526020600020905b815481529060010190602001808311610d5b57829003601f168201915b5050505050905090565b6000801b81565b610d9b610d946113f9565b8383611a9d565b5050565b610db0610daa6113f9565b8361152e565b610def576040517f08c379a0000000000000000000000000000000000000000000000000000000008152600401610de690613394565b60405180910390fd5b610dfb84848484611c0a565b50505050565b7f37ab20b0b9b7603d46ac9beda6418de3386ea0b9b7921a4a1b2cecd878035f0881565b6060610e308261138d565b610e6f576040517f08c379a0000000000000000000000000000000000000000000000000000000008152600401610e6690613648565b60405180910390fd5b6000600660008481526020019081526020016000208054610e8f90613062565b80601f0160208091040260200160405190810160405280929190818152602001828054610ebb90613062565b8015610f085780601f10610edd57610100808354040283529160200191610f08565b820191906000526020600020905b815481529060010190602001808311610eeb57829003601f168201915b505050505090506000610f19611c66565b9050600081511415610f2f578192505050610f72565b600082511115610f64578082604051602001610f4c9291906136a4565b60405160208183030381529060405292505050610f72565b610f6d84611c7d565b925050505b919050565b610f808261090e565b610f8981611873565b610f938383611968565b505050565b60026007541415610fde576040517f08c379a0000000000000000000000000000000000000000000000000000000008152600401610fd590613296565b60405180910390fd5b60026007819055506110107f37ab20b0b9b7603d46ac9beda6418de3386ea0b9b7921a4a1b2cecd878035f0833610c85565b806110685750600c60009054906101000a900473ffffffffffffffffffffffffffffffffffffffff1673ffffffffffffffffffffffffffffffffffffffff163373ffffffffffffffffffffffffffffffffffffffff16145b6110a7576040517f08c379a000000000000000000000000000000000000000000000000000000000815260040161109e90613714565b60405180910390fd5b6110b16009611d24565b60006110bd6009611d3a565b90506110c93382611d48565b6110d381836114ba565b50600160078190555050565b60026007541415611125576040517f08c379a000000000000000000000000000000000000000000000000000000000815260040161111c90613296565b60405180910390fd5b6002600781905550600c60009054906101000a900473ffffffffffffffffffffffffffffffffffffffff1673ffffffffffffffffffffffffffffffffffffffff163373ffffffffffffffffffffffffffffffffffffffff16146111bd576040517f08c379a00000000000000000000000000000000000000000000000000000000081526004016111b490613302565b60405180910390fd5b6112097ff23ec0bb4210edd5cba85afd05127efcd2fc6a781bfed49188da1081670b22d8600c60009054906101000a900473ffffffffffffffffffffffffffffffffffffffff16610f77565b6112337ff23ec0bb4210edd5cba85afd05127efcd2fc6a781bfed49188da1081670b22d882611887565b80600c60006101000a81548173ffffffffffffffffffffffffffffffffffffffff021916908373ffffffffffffffffffffffffffffffffffffffff160217905550600160078190555050565b6000600560008473ffffffffffffffffffffffffffffffffffffffff1673ffffffffffffffffffffffffffffffffffffffff16815260200190815260200160002060008373ffffffffffffffffffffffffffffffffffffffff1673ffffffffffffffffffffffffffffffffffffffff16815260200190815260200160002060009054906101000a900460ff16905092915050565b60007f7965db0b000000000000000000000000000000000000000000000000000000007bffffffffffffffffffffffffffffffffffffffffffffffffffffffff1916827bffffffffffffffffffffffffffffffffffffffffffffffffffffffff19161480611386575061138582611f22565b5b9050919050565b60008073ffffffffffffffffffffffffffffffffffffffff166002600084815260200190815260200160002060009054906101000a900473ffffffffffffffffffffffffffffffffffffffff1673ffffffffffffffffffffffffffffffffffffffff1614159050919050565b600033905090565b816004600083815260200190815260200160002060006101000a81548173ffffffffffffffffffffffffffffffffffffffff021916908373ffffffffffffffffffffffffffffffffffffffff160217905550808273ffffffffffffffffffffffffffffffffffffffff1661147483610b1b565b73ffffffffffffffffffffffffffffffffffffffff167f8c5be1e5ebec7d5bd14f71427d1e84f3dd0314c0f7b2291e5b200ac8c7c3b92560405160405180910390a45050565b6114c38261138d565b611502576040517f08c379a00000000000000000000000000000000000000000000000000000000081526004016114f9906137a6565b60405180910390fd5b8060066000848152602001908152602001600020908051906020019061152992919061277a565b505050565b60006115398261138d565b611578576040517f08c379a000000000000000000000000000000000000000000000000000000000815260040161156f90613838565b60405180910390fd5b600061158383610b1b565b90508073ffffffffffffffffffffffffffffffffffffffff168473ffffffffffffffffffffffffffffffffffffffff1614806115c557506115c4818561127f565b5b8061160357508373ffffffffffffffffffffffffffffffffffffffff166115eb8461061d565b73ffffffffffffffffffffffffffffffffffffffff16145b91505092915050565b8273ffffffffffffffffffffffffffffffffffffffff1661162c82610b1b565b73ffffffffffffffffffffffffffffffffffffffff1614611682576040517f08c379a0000000000000000000000000000000000000000000000000000000008152600401611679906138ca565b60405180910390fd5b600073ffffffffffffffffffffffffffffffffffffffff168273ffffffffffffffffffffffffffffffffffffffff1614156116f2576040517f08c379a00000000000000000000000000000000000000000000000000000000081526004016116e99061395c565b60405180910390fd5b6116fd838383612004565b611708600082611401565b6001600360008573ffffffffffffffffffffffffffffffffffffffff1673ffffffffffffffffffffffffffffffffffffffff168152602001908152602001600020600082825461175891906139ab565b925050819055506001600360008473ffffffffffffffffffffffffffffffffffffffff1673ffffffffffffffffffffffffffffffffffffffff16815260200190815260200160002060008282546117af91906139df565b92505081905550816002600083815260200190815260200160002060006101000a81548173ffffffffffffffffffffffffffffffffffffffff021916908373ffffffffffffffffffffffffffffffffffffffff160217905550808273ffffffffffffffffffffffffffffffffffffffff168473ffffffffffffffffffffffffffffffffffffffff167fddf252ad1be2c89b69c2b068fc378daa952ba7f163c4a11628f55a4df523b3ef60405160405180910390a461186e838383612009565b505050565b6118848161187f6113f9565b61200e565b50565b6118918282610c85565b6119645760016008600084815260200190815260200160002060000160008373ffffffffffffffffffffffffffffffffffffffff1673ffffffffffffffffffffffffffffffffffffffff16815260200190815260200160002060006101000a81548160ff0219169083151502179055506119096113f9565b73ffffffffffffffffffffffffffffffffffffffff168173ffffffffffffffffffffffffffffffffffffffff16837f2f8788117e7eff1d82e926ec794901d17c78024a50270940304540a733656f0d60405160405180910390a45b5050565b6119728282610c85565b15611a465760006008600084815260200190815260200160002060000160008373ffffffffffffffffffffffffffffffffffffffff1673ffffffffffffffffffffffffffffffffffffffff16815260200190815260200160002060006101000a81548160ff0219169083151502179055506119eb6113f9565b73ffffffffffffffffffffffffffffffffffffffff168173ffffffffffffffffffffffffffffffffffffffff16837ff6391f5c32d9c69d2a47ea670b442974b53935d1edc7fd64eb21e047a839171b60405160405180910390a45b5050565b611a53816120ab565b6000600660008381526020019081526020016000208054611a7390613062565b905014611a9a57600660008281526020019081526020016000206000611a999190612800565b5b50565b8173ffffffffffffffffffffffffffffffffffffffff168373ffffffffffffffffffffffffffffffffffffffff161415611b0c576040517f08c379a0000000000000000000000000000000000000000000000000000000008152600401611b0390613a81565b60405180910390fd5b80600560008573ffffffffffffffffffffffffffffffffffffffff1673ffffffffffffffffffffffffffffffffffffffff16815260200190815260200160002060008473ffffffffffffffffffffffffffffffffffffffff1673ffffffffffffffffffffffffffffffffffffffff16815260200190815260200160002060006101000a81548160ff0219169083151502179055508173ffffffffffffffffffffffffffffffffffffffff168373ffffffffffffffffffffffffffffffffffffffff167f17307eab39ab6107e8899845ad3d59bd9653f200f220920489ca2b5937696c3183604051611bfd9190612911565b60405180910390a3505050565b611c1584848461160c565b611c21848484846121c8565b611c60576040517f08c379a0000000000000000000000000000000000000000000000000000000008152600401611c5790613b13565b60405180910390fd5b50505050565b606060405180602001604052806000815250905090565b6060611c888261138d565b611cc7576040517f08c379a0000000000000000000000000000000000000000000000000000000008152600401611cbe90613ba5565b60405180910390fd5b6000611cd1611c66565b90506000815111611cf15760405180602001604052806000815250611d1c565b80611cfb84612350565b604051602001611d0c9291906136a4565b6040516020818303038152906040525b915050919050565b6001816000016000828254019250508190555050565b600081600001549050919050565b600073ffffffffffffffffffffffffffffffffffffffff168273ffffffffffffffffffffffffffffffffffffffff161415611db8576040517f08c379a0000000000000000000000000000000000000000000000000000000008152600401611daf90613c11565b60405180910390fd5b611dc18161138d565b15611e01576040517f08c379a0000000000000000000000000000000000000000000000000000000008152600401611df890613c7d565b60405180910390fd5b611e0d60008383612004565b6001600360008473ffffffffffffffffffffffffffffffffffffffff1673ffffffffffffffffffffffffffffffffffffffff1681526020019081526020016000206000828254611e5d91906139df565b92505081905550816002600083815260200190815260200160002060006101000a81548173ffffffffffffffffffffffffffffffffffffffff021916908373ffffffffffffffffffffffffffffffffffffffff160217905550808273ffffffffffffffffffffffffffffffffffffffff16600073ffffffffffffffffffffffffffffffffffffffff167fddf252ad1be2c89b69c2b068fc378daa952ba7f163c4a11628f55a4df523b3ef60405160405180910390a4611f1e60008383612009565b5050565b60007f80ac58cd000000000000000000000000000000000000000000000000000000007bffffffffffffffffffffffffffffffffffffffffffffffffffffffff1916827bffffffffffffffffffffffffffffffffffffffffffffffffffffffff19161480611fed57507f5b5e139f000000000000000000000000000000000000000000000000000000007bffffffffffffffffffffffffffffffffffffffffffffffffffffffff1916827bffffffffffffffffffffffffffffffffffffffffffffffffffffffff1916145b80611ffd5750611ffc826124b1565b5b9050919050565b505050565b505050565b6120188282610c85565b6120a75761203d8173ffffffffffffffffffffffffffffffffffffffff16601461251b565b61204b8360001c602061251b565b60405160200161205c929190613d35565b6040516020818303038152906040526040517f08c379a000000000000000000000000000000000000000000000000000000000815260040161209e9190612a50565b60405180910390fd5b5050565b60006120b682610b1b565b90506120c481600084612004565b6120cf600083611401565b6001600360008373ffffffffffffffffffffffffffffffffffffffff1673ffffffffffffffffffffffffffffffffffffffff168152602001908152602001600020600082825461211f91906139ab565b925050819055506002600083815260200190815260200160002060006101000a81549073ffffffffffffffffffffffffffffffffffffffff021916905581600073ffffffffffffffffffffffffffffffffffffffff168273ffffffffffffffffffffffffffffffffffffffff167fddf252ad1be2c89b69c2b068fc378daa952ba7f163c4a11628f55a4df523b3ef60405160405180910390a46121c481600084612009565b5050565b60006121e98473ffffffffffffffffffffffffffffffffffffffff16612757565b15612343578373ffffffffffffffffffffffffffffffffffffffff1663150b7a026122126113f9565b8786866040518563ffffffff1660e01b81526004016122349493929190613dc4565b6020604051808303816000875af192505050801561227057506040513d601f19601f8201168201806040525081019061226d9190613e25565b60015b6122f3573d80600081146122a0576040519150601f19603f3d011682016040523d82523d6000602084013e6122a5565b606091505b506000815114156122eb576040517f08c379a00000000000000000000000000000000000000000000000000000000081526004016122e290613b13565b60405180910390fd5b805181602001fd5b63150b7a0260e01b7bffffffffffffffffffffffffffffffffffffffffffffffffffffffff1916817bffffffffffffffffffffffffffffffffffffffffffffffffffffffff191614915050612348565b600190505b949350505050565b60606000821415612398576040518060400160405280600181526020017f300000000000000000000000000000000000000000000000000000000000000081525090506124ac565b600082905060005b600082146123ca5780806123b390613e52565b915050600a826123c39190613eca565b91506123a0565b60008167ffffffffffffffff8111156123e6576123e5612b49565b5b6040519080825280601f01601f1916602001820160405280156124185781602001600182028036833780820191505090505b5090505b600085146124a55760018261243191906139ab565b9150600a856124409190613efb565b603061244c91906139df565b60f81b81838151811061246257612461613f2c565b5b60200101907effffffffffffffffffffffffffffffffffffffffffffffffffffffffffffff1916908160001a905350600a8561249e9190613eca565b945061241c565b8093505050505b919050565b60007f01ffc9a7000000000000000000000000000000000000000000000000000000007bffffffffffffffffffffffffffffffffffffffffffffffffffffffff1916827bffffffffffffffffffffffffffffffffffffffffffffffffffffffff1916149050919050565b60606000600283600261252e9190613f5b565b61253891906139df565b67ffffffffffffffff81111561255157612550612b49565b5b6040519080825280601f01601f1916602001820160405280156125835781602001600182028036833780820191505090505b5090507f3000000000000000000000000000000000000000000000000000000000000000816000815181106125bb576125ba613f2c565b5b60200101907effffffffffffffffffffffffffffffffffffffffffffffffffffffffffffff1916908160001a9053507f78000000000000000000000000000000000000000000000000000000000000008160018151811061261f5761261e613f2c565b5b60200101907effffffffffffffffffffffffffffffffffffffffffffffffffffffffffffff1916908160001a9053506000600184600261265f9190613f5b565b61266991906139df565b90505b6001811115612709577f3031323334353637383961626364656600000000000000000000000000000000600f8616601081106126ab576126aa613f2c565b5b1a60f81b8282815181106126c2576126c1613f2c565b5b60200101907effffffffffffffffffffffffffffffffffffffffffffffffffffffffffffff1916908160001a905350600485901c94508061270290613fb5565b905061266c565b506000841461274d576040517f08c379a00000000000000000000000000000000000000000000000000000000081526004016127449061402b565b60405180910390fd5b8091505092915050565b6000808273ffffffffffffffffffffffffffffffffffffffff163b119050919050565b82805461278690613062565b90600052602060002090601f0160209004810192826127a857600085556127ef565b82601f106127c157805160ff19168380011785556127ef565b828001600101855582156127ef579182015b828111156127ee5782518255916020019190600101906127d3565b5b5090506127fc9190612840565b5090565b50805461280c90613062565b6000825580601f1061281e575061283d565b601f01602090049060005260206000209081019061283c9190612840565b5b50565b5b80821115612859576000816000905550600101612841565b5090565b6000604051905090565b600080fd5b600080fd5b60007fffffffff0000000000000000000000000000000000000000000000000000000082169050919050565b6128a681612871565b81146128b157600080fd5b50565b6000813590506128c38161289d565b92915050565b6000602082840312156128df576128de612867565b5b60006128ed848285016128b4565b91505092915050565b60008115159050919050565b61290b816128f6565b82525050565b60006020820190506129266000830184612902565b92915050565b600073ffffffffffffffffffffffffffffffffffffffff82169050919050565b60006129578261292c565b9050919050565b6129678161294c565b811461297257600080fd5b50565b6000813590506129848161295e565b92915050565b6000602082840312156129a05761299f612867565b5b60006129ae84828501612975565b91505092915050565b600081519050919050565b600082825260208201905092915050565b60005b838110156129f15780820151818401526020810190506129d6565b83811115612a00576000848401525b50505050565b6000601f19601f8301169050919050565b6000612a22826129b7565b612a2c81856129c2565b9350612a3c8185602086016129d3565b612a4581612a06565b840191505092915050565b60006020820190508181036000830152612a6a8184612a17565b905092915050565b6000819050919050565b612a8581612a72565b8114612a9057600080fd5b50565b600081359050612aa281612a7c565b92915050565b600060208284031215612abe57612abd612867565b5b6000612acc84828501612a93565b91505092915050565b612ade8161294c565b82525050565b6000602082019050612af96000830184612ad5565b92915050565b60008060408385031215612b1657612b15612867565b5b6000612b2485828601612975565b9250506020612b3585828601612a93565b9150509250929050565b600080fd5b600080fd5b7f4e487b7100000000000000000000000000000000000000000000000000000000600052604160045260246000fd5b612b8182612a06565b810181811067ffffffffffffffff82111715612ba057612b9f612b49565b5b80604052505050565b6000612bb361285d565b9050612bbf8282612b78565b919050565b600067ffffffffffffffff821115612bdf57612bde612b49565b5b612be882612a06565b9050602081019050919050565b82818337600083830152505050565b6000612c17612c1284612bc4565b612ba9565b905082815260208101848484011115612c3357612c32612b44565b5b612c3e848285612bf5565b509392505050565b600082601f830112612c5b57612c5a612b3f565b5b8135612c6b848260208601612c04565b91505092915050565b60008060408385031215612c8b57612c8a612867565b5b6000612c9985828601612a93565b925050602083013567ffffffffffffffff811115612cba57612cb961286c565b5b612cc685828601612c46565b9150509250929050565b600080600060608486031215612ce957612ce8612867565b5b6000612cf786828701612975565b9350506020612d0886828701612975565b9250506040612d1986828701612a93565b9150509250925092565b6000819050919050565b612d3681612d23565b8114612d4157600080fd5b50565b600081359050612d5381612d2d565b92915050565b600060208284031215612d6f57612d6e612867565b5b6000612d7d84828501612d44565b91505092915050565b612d8f81612d23565b82525050565b6000602082019050612daa6000830184612d86565b92915050565b60008060408385031215612dc757612dc6612867565b5b6000612dd585828601612d44565b9250506020612de685828601612975565b9150509250929050565b612df981612a72565b82525050565b6000602082019050612e146000830184612df0565b92915050565b612e23816128f6565b8114612e2e57600080fd5b50565b600081359050612e4081612e1a565b92915050565b60008060408385031215612e5d57612e5c612867565b5b6000612e6b85828601612975565b9250506020612e7c85828601612e31565b9150509250929050565b600067ffffffffffffffff821115612ea157612ea0612b49565b5b612eaa82612a06565b9050602081019050919050565b6000612eca612ec584612e86565b612ba9565b905082815260208101848484011115612ee657612ee5612b44565b5b612ef1848285612bf5565b509392505050565b600082601f830112612f0e57612f0d612b3f565b5b8135612f1e848260208601612eb7565b91505092915050565b60008060008060808587031215612f4157612f40612867565b5b6000612f4f87828801612975565b9450506020612f6087828801612975565b9350506040612f7187828801612a93565b925050606085013567ffffffffffffffff811115612f9257612f9161286c565b5b612f9e87828801612ef9565b91505092959194509250565b600060208284031215612fc057612fbf612867565b5b600082013567ffffffffffffffff811115612fde57612fdd61286c565b5b612fea84828501612c46565b91505092915050565b6000806040838503121561300a57613009612867565b5b600061301885828601612975565b925050602061302985828601612975565b9150509250929050565b7f4e487b7100000000000000000000000000000000000000000000000000000000600052602260045260246000fd5b6000600282049050600182168061307a57607f821691505b6020821081141561308e5761308d613033565b5b50919050565b7f4552433732313a20617070726f76656420717565727920666f72206e6f6e657860008201527f697374656e7420746f6b656e0000000000000000000000000000000000000000602082015250565b60006130f0602c836129c2565b91506130fb82613094565b604082019050919050565b6000602082019050818103600083015261311f816130e3565b9050919050565b7f4552433732313a20617070726f76616c20746f2063757272656e74206f776e6560008201527f7200000000000000000000000000000000000000000000000000000000000000602082015250565b60006131826021836129c2565b915061318d82613126565b604082019050919050565b600060208201905081810360008301526131b181613175565b9050919050565b7f4552433732313a20617070726f76652063616c6c6572206973206e6f74206f7760008201527f6e6572206e6f7220617070726f76656420666f7220616c6c0000000000000000602082015250565b60006132146038836129c2565b915061321f826131b8565b604082019050919050565b6000602082019050818103600083015261324381613207565b9050919050565b7f5265656e7472616e637947756172643a207265656e7472616e742063616c6c00600082015250565b6000613280601f836129c2565b915061328b8261324a565b602082019050919050565b600060208201905081810360008301526132af81613273565b9050919050565b7f4552525f434f44455f3300000000000000000000000000000000000000000000600082015250565b60006132ec600a836129c2565b91506132f7826132b6565b602082019050919050565b6000602082019050818103600083015261331b816132df565b9050919050565b7f4552433732313a207472616e736665722063616c6c6572206973206e6f74206f60008201527f776e6572206e6f7220617070726f766564000000000000000000000000000000602082015250565b600061337e6031836129c2565b915061338982613322565b604082019050919050565b600060208201905081810360008301526133ad81613371565b9050919050565b7f416363657373436f6e74726f6c3a2063616e206f6e6c792072656e6f756e636560008201527f20726f6c657320666f722073656c660000000000000000000000000000000000602082015250565b6000613410602f836129c2565b915061341b826133b4565b604082019050919050565b6000602082019050818103600083015261343f81613403565b9050919050565b7f4552525f434f44455f3200000000000000000000000000000000000000000000600082015250565b600061347c600a836129c2565b915061348782613446565b602082019050919050565b600060208201905081810360008301526134ab8161346f565b9050919050565b7f4552433732313a206f776e657220717565727920666f72206e6f6e657869737460008201527f656e7420746f6b656e0000000000000000000000000000000000000000000000602082015250565b600061350e6029836129c2565b9150613519826134b2565b604082019050919050565b6000602082019050818103600083015261353d81613501565b9050919050565b7f4552433732313a2062616c616e636520717565727920666f7220746865207a6560008201527f726f206164647265737300000000000000000000000000000000000000000000602082015250565b60006135a0602a836129c2565b91506135ab82613544565b604082019050919050565b600060208201905081810360008301526135cf81613593565b9050919050565b7f45524337323155524953746f726167653a2055524920717565727920666f722060008201527f6e6f6e6578697374656e7420746f6b656e000000000000000000000000000000602082015250565b60006136326031836129c2565b915061363d826135d6565b604082019050919050565b6000602082019050818103600083015261366181613625565b9050919050565b600081905092915050565b600061367e826129b7565b6136888185613668565b93506136988185602086016129d3565b80840191505092915050565b60006136b08285613673565b91506136bc8284613673565b91508190509392505050565b7f45525f434f44455f310000000000000000000000000000000000000000000000600082015250565b60006136fe6009836129c2565b9150613709826136c8565b602082019050919050565b6000602082019050818103600083015261372d816136f1565b9050919050565b7f45524337323155524953746f726167653a2055524920736574206f66206e6f6e60008201527f6578697374656e7420746f6b656e000000000000000000000000000000000000602082015250565b6000613790602e836129c2565b915061379b82613734565b604082019050919050565b600060208201905081810360008301526137bf81613783565b9050919050565b7f4552433732313a206f70657261746f7220717565727920666f72206e6f6e657860008201527f697374656e7420746f6b656e0000000000000000000000000000000000000000602082015250565b6000613822602c836129c2565b915061382d826137c6565b604082019050919050565b6000602082019050818103600083015261385181613815565b9050919050565b7f4552433732313a207472616e736665722066726f6d20696e636f72726563742060008201527f6f776e6572000000000000000000000000000000000000000000000000000000602082015250565b60006138b46025836129c2565b91506138bf82613858565b604082019050919050565b600060208201905081810360008301526138e3816138a7565b9050919050565b7f4552433732313a207472616e7366657220746f20746865207a65726f2061646460008201527f7265737300000000000000000000000000000000000000000000000000000000602082015250565b60006139466024836129c2565b9150613951826138ea565b604082019050919050565b6000602082019050818103600083015261397581613939565b9050919050565b7f4e487b7100000000000000000000000000000000000000000000000000000000600052601160045260246000fd5b60006139b682612a72565b91506139c183612a72565b9250828210156139d4576139d361397c565b5b828203905092915050565b60006139ea82612a72565b91506139f583612a72565b9250827fffffffffffffffffffffffffffffffffffffffffffffffffffffffffffffffff03821115613a2a57613a2961397c565b5b828201905092915050565b7f4552433732313a20617070726f766520746f2063616c6c657200000000000000600082015250565b6000613a6b6019836129c2565b9150613a7682613a35565b602082019050919050565b60006020820190508181036000830152613a9a81613a5e565b9050919050565b7f4552433732313a207472616e7366657220746f206e6f6e20455243373231526560008201527f63656976657220696d706c656d656e7465720000000000000000000000000000602082015250565b6000613afd6032836129c2565b9150613b0882613aa1565b604082019050919050565b60006020820190508181036000830152613b2c81613af0565b9050919050565b7f4552433732314d657461646174613a2055524920717565727920666f72206e6f60008201527f6e6578697374656e7420746f6b656e0000000000000000000000000000000000602082015250565b6000613b8f602f836129c2565b9150613b9a82613b33565b604082019050919050565b60006020820190508181036000830152613bbe81613b82565b9050919050565b7f4552433732313a206d696e7420746f20746865207a65726f2061646472657373600082015250565b6000613bfb6020836129c2565b9150613c0682613bc5565b602082019050919050565b60006020820190508181036000830152613c2a81613bee565b9050919050565b7f4552433732313a20746f6b656e20616c7265616479206d696e74656400000000600082015250565b6000613c67601c836129c2565b9150613c7282613c31565b602082019050919050565b60006020820190508181036000830152613c9681613c5a565b9050919050565b7f416363657373436f6e74726f6c3a206163636f756e7420000000000000000000600082015250565b6000613cd3601783613668565b9150613cde82613c9d565b601782019050919050565b7f206973206d697373696e6720726f6c6520000000000000000000000000000000600082015250565b6000613d1f601183613668565b9150613d2a82613ce9565b601182019050919050565b6000613d4082613cc6565b9150613d4c8285613673565b9150613d5782613d12565b9150613d638284613673565b91508190509392505050565b600081519050919050565b600082825260208201905092915050565b6000613d9682613d6f565b613da08185613d7a565b9350613db08185602086016129d3565b613db981612a06565b840191505092915050565b6000608082019050613dd96000830187612ad5565b613de66020830186612ad5565b613df36040830185612df0565b8181036060830152613e058184613d8b565b905095945050505050565b600081519050613e1f8161289d565b92915050565b600060208284031215613e3b57613e3a612867565b5b6000613e4984828501613e10565b91505092915050565b6000613e5d82612a72565b91507fffffffffffffffffffffffffffffffffffffffffffffffffffffffffffffffff821415613e9057613e8f61397c565b5b600182019050919050565b7f4e487b7100000000000000000000000000000000000000000000000000000000600052601260045260246000fd5b6000613ed582612a72565b9150613ee083612a72565b925082613ef057613eef613e9b565b5b828204905092915050565b6000613f0682612a72565b9150613f1183612a72565b925082613f2157613f20613e9b565b5b828206905092915050565b7f4e487b7100000000000000000000000000000000000000000000000000000000600052603260045260246000fd5b6000613f6682612a72565b9150613f7183612a72565b9250817fffffffffffffffffffffffffffffffffffffffffffffffffffffffffffffffff0483118215151615613faa57613fa961397c565b5b828202905092915050565b6000613fc082612a72565b91506000821415613fd457613fd361397c565b5b600182039050919050565b7f537472696e67733a20686578206c656e67746820696e73756666696369656e74600082015250565b60006140156020836129c2565b915061402082613fdf565b602082019050919050565b6000602082019050818103600083015261404481614008565b905091905056fea2646970667358221220c5ad2b457f8857073e90c660aeb10e4b1f06cef2662979ecdb1c8e141ed2300464736f6c634300080a0033",
  "linkReferences": {},
  "deployedLinkReferences": {}
}