{
  "_format": "hh-sol-artifact-1",
  "contractName": "NFTMint",
  "sourceName": "contracts/NFTMint.sol",
  "abi": [
    {
      "inputs": [
        {
          "internalType": "address",
          "name": "_marketplace",
          "type": "address"
        },
        {
          "internalType": "address",
          "name": "_auctionContract",
          "type": "address"
        }
      ],
      "stateMutability": "nonpayable",
      "type": "constructor"
    },
    {
      "anonymous": false,
      "inputs": [
        {
          "indexed": true,
          "internalType": "address",
          "name": "owner",
          "type": "address"
        },
        {
          "indexed": true,
          "internalType": "address",
          "name": "approved",
          "type": "address"
        },
        {
          "indexed": true,
          "internalType": "uint256",
          "name": "tokenId",
          "type": "uint256"
        }
      ],
      "name": "Approval",
      "type": "event"
    },
    {
      "anonymous": false,
      "inputs": [
        {
          "indexed": true,
          "internalType": "address",
          "name": "owner",
          "type": "address"
        },
        {
          "indexed": true,
          "internalType": "address",
          "name": "operator",
          "type": "address"
        },
        {
          "indexed": false,
          "internalType": "bool",
          "name": "approved",
          "type": "bool"
        }
      ],
      "name": "ApprovalForAll",
      "type": "event"
    },
    {
      "anonymous": false,
      "inputs": [
        {
          "indexed": true,
          "internalType": "bytes32",
          "name": "role",
          "type": "bytes32"
        },
        {
          "indexed": true,
          "internalType": "bytes32",
          "name": "previousAdminRole",
          "type": "bytes32"
        },
        {
          "indexed": true,
          "internalType": "bytes32",
          "name": "newAdminRole",
          "type": "bytes32"
        }
      ],
      "name": "RoleAdminChanged",
      "type": "event"
    },
    {
      "anonymous": false,
      "inputs": [
        {
          "indexed": true,
          "internalType": "bytes32",
          "name": "role",
          "type": "bytes32"
        },
        {
          "indexed": true,
          "internalType": "address",
          "name": "account",
          "type": "address"
        },
        {
          "indexed": true,
          "internalType": "address",
          "name": "sender",
          "type": "address"
        }
      ],
      "name": "RoleGranted",
      "type": "event"
    },
    {
      "anonymous": false,
      "inputs": [
        {
          "indexed": true,
          "internalType": "bytes32",
          "name": "role",
          "type": "bytes32"
        },
        {
          "indexed": true,
          "internalType": "address",
          "name": "account",
          "type": "address"
        },
        {
          "indexed": true,
          "internalType": "address",
          "name": "sender",
          "type": "address"
        }
      ],
      "name": "RoleRevoked",
      "type": "event"
    },
    {
      "anonymous": false,
      "inputs": [
        {
          "indexed": true,
          "internalType": "address",
          "name": "from",
          "type": "address"
        },
        {
          "indexed": true,
          "internalType": "address",
          "name": "to",
          "type": "address"
        },
        {
          "indexed": true,
          "internalType": "uint256",
          "name": "tokenId",
          "type": "uint256"
        }
      ],
      "name": "Transfer",
      "type": "event"
    },
    {
      "inputs": [],
      "name": "ADMIN",
      "outputs": [
        {
          "internalType": "bytes32",
          "name": "",
          "type": "bytes32"
        }
      ],
      "stateMutability": "view",
      "type": "function"
    },
    {
      "inputs": [],
      "name": "DEFAULT_ADMIN_ROLE",
      "outputs": [
        {
          "internalType": "bytes32",
          "name": "",
          "type": "bytes32"
        }
      ],
      "stateMutability": "view",
      "type": "function"
    },
    {
      "inputs": [],
      "name": "SELLER",
      "outputs": [
        {
          "internalType": "bytes32",
          "name": "",
          "type": "bytes32"
        }
      ],
      "stateMutability": "view",
      "type": "function"
    },
    {
      "inputs": [
        {
          "internalType": "address",
          "name": "to",
          "type": "address"
        },
        {
          "internalType": "uint256",
          "name": "tokenId",
          "type": "uint256"
        }
      ],
      "name": "approve",
      "outputs": [],
      "stateMutability": "nonpayable",
      "type": "function"
    },
    {
      "inputs": [
        {
          "internalType": "address",
          "name": "owner",
          "type": "address"
        }
      ],
      "name": "balanceOf",
      "outputs": [
        {
          "internalType": "uint256",
          "name": "",
          "type": "uint256"
        }
      ],
      "stateMutability": "view",
      "type": "function"
    },
    {
      "inputs": [
        {
          "internalType": "uint256",
          "name": "tokenId",
          "type": "uint256"
        }
      ],
      "name": "burn",
      "outputs": [],
      "stateMutability": "nonpayable",
      "type": "function"
    },
    {
      "inputs": [
        {
          "internalType": "uint256",
          "name": "tokenId",
          "type": "uint256"
        }
      ],
      "name": "getApproved",
      "outputs": [
        {
          "internalType": "address",
          "name": "",
          "type": "address"
        }
      ],
      "stateMutability": "view",
      "type": "function"
    },
    {
      "inputs": [
        {
          "internalType": "bytes32",
          "name": "role",
          "type": "bytes32"
        }
      ],
      "name": "getRoleAdmin",
      "outputs": [
        {
          "internalType": "bytes32",
          "name": "",
          "type": "bytes32"
        }
      ],
      "stateMutability": "view",
      "type": "function"
    },
    {
      "inputs": [
        {
          "internalType": "bytes32",
          "name": "role",
          "type": "bytes32"
        },
        {
          "internalType": "address",
          "name": "account",
          "type": "address"
        }
      ],
      "name": "grantRole",
      "outputs": [],
      "stateMutability": "nonpayable",
      "type": "function"
    },
    {
      "inputs": [
        {
          "internalType": "bytes32",
          "name": "role",
          "type": "bytes32"
        },
        {
          "internalType": "address",
          "name": "account",
          "type": "address"
        }
      ],
      "name": "hasRole",
      "outputs": [
        {
          "internalType": "bool",
          "name": "",
          "type": "bool"
        }
      ],
      "stateMutability": "view",
      "type": "function"
    },
    {
      "inputs": [
        {
          "internalType": "address",
          "name": "owner",
          "type": "address"
        },
        {
          "internalType": "address",
          "name": "operator",
          "type": "address"
        }
      ],
      "name": "isApprovedForAll",
      "outputs": [
        {
          "internalType": "bool",
          "name": "",
          "type": "bool"
        }
      ],
      "stateMutability": "view",
      "type": "function"
    },
    {
      "inputs": [
        {
          "internalType": "string",
          "name": "tokenURI",
          "type": "string"
        }
      ],
      "name": "mint",
      "outputs": [],
      "stateMutability": "nonpayable",
      "type": "function"
    },
    {
      "inputs": [],
      "name": "name",
      "outputs": [
        {
          "internalType": "string",
          "name": "",
          "type": "string"
        }
      ],
      "stateMutability": "view",
      "type": "function"
    },
    {
      "inputs": [
        {
          "internalType": "uint256",
          "name": "tokenId",
          "type": "uint256"
        }
      ],
      "name": "ownerOf",
      "outputs": [
        {
          "internalType": "address",
          "name": "",
          "type": "address"
        }
      ],
      "stateMutability": "view",
      "type": "function"
    },
    {
      "inputs": [
        {
          "internalType": "bytes32",
          "name": "role",
          "type": "bytes32"
        },
        {
          "internalType": "address",
          "name": "account",
          "type": "address"
        }
      ],
      "name": "renounceRole",
      "outputs": [],
      "stateMutability": "nonpayable",
      "type": "function"
    },
    {
      "inputs": [
        {
          "internalType": "bytes32",
          "name": "role",
          "type": "bytes32"
        },
        {
          "internalType": "address",
          "name": "account",
          "type": "address"
        }
      ],
      "name": "revokeRole",
      "outputs": [],
      "stateMutability": "nonpayable",
      "type": "function"
    },
    {
      "inputs": [
        {
          "internalType": "address",
          "name": "_seller",
          "type": "address"
        }
      ],
      "name": "revokeSellerRole",
      "outputs": [],
      "stateMutability": "nonpayable",
      "type": "function"
    },
    {
      "inputs": [
        {
          "internalType": "address",
          "name": "from",
          "type": "address"
        },
        {
          "internalType": "address",
          "name": "to",
          "type": "address"
        },
        {
          "internalType": "uint256",
          "name": "tokenId",
          "type": "uint256"
        }
      ],
      "name": "safeTransferFrom",
      "outputs": [],
      "stateMutability": "nonpayable",
      "type": "function"
    },
    {
      "inputs": [
        {
          "internalType": "address",
          "name": "from",
          "type": "address"
        },
        {
          "internalType": "address",
          "name": "to",
          "type": "address"
        },
        {
          "internalType": "uint256",
          "name": "tokenId",
          "type": "uint256"
        },
        {
          "internalType": "bytes",
          "name": "_data",
          "type": "bytes"
        }
      ],
      "name": "safeTransferFrom",
      "outputs": [],
      "stateMutability": "nonpayable",
      "type": "function"
    },
    {
      "inputs": [
        {
          "internalType": "address",
          "name": "operator",
          "type": "address"
        },
        {
          "internalType": "bool",
          "name": "approved",
          "type": "bool"
        }
      ],
      "name": "setApprovalForAll",
      "outputs": [],
      "stateMutability": "nonpayable",
      "type": "function"
    },
    {
      "inputs": [
        {
          "internalType": "address",
          "name": "_seller",
          "type": "address"
        }
      ],
      "name": "setSellerRole",
      "outputs": [],
      "stateMutability": "nonpayable",
      "type": "function"
    },
    {
      "inputs": [
        {
          "internalType": "bytes4",
          "name": "interfaceId",
          "type": "bytes4"
        }
      ],
      "name": "supportsInterface",
      "outputs": [
        {
          "internalType": "bool",
          "name": "",
          "type": "bool"
        }
      ],
      "stateMutability": "view",
      "type": "function"
    },
    {
      "inputs": [],
      "name": "symbol",
      "outputs": [
        {
          "internalType": "string",
          "name": "",
          "type": "string"
        }
      ],
      "stateMutability": "view",
      "type": "function"
    },
    {
      "inputs": [
        {
          "internalType": "uint256",
          "name": "tokenId",
          "type": "uint256"
        }
      ],
      "name": "tokenURI",
      "outputs": [
        {
          "internalType": "string",
          "name": "",
          "type": "string"
        }
      ],
      "stateMutability": "view",
      "type": "function"
    },
    {
      "inputs": [
        {
          "internalType": "address",
          "name": "from",
          "type": "address"
        },
        {
          "internalType": "address",
          "name": "to",
          "type": "address"
        },
        {
          "internalType": "uint256",
          "name": "tokenId",
          "type": "uint256"
        }
      ],
      "name": "transferFrom",
      "outputs": [],
      "stateMutability": "nonpayable",
      "type": "function"
    },
    {
      "inputs": [
        {
          "internalType": "address",
          "name": "_admin",
          "type": "address"
        }
      ],
      "name": "updateAdmin",
      "outputs": [],
      "stateMutability": "nonpayable",
      "type": "function"
    },
    {
      "inputs": [
        {
          "internalType": "uint256",
          "name": "tokenId",
          "type": "uint256"
        },
        {
          "internalType": "string",
          "name": "_tokenURI",
          "type": "string"
        }
      ],
      "name": "updateTokenURI",
      "outputs": [],
      "stateMutability": "nonpayable",
      "type": "function"
    }
  ],
  "bytecode": "0x60806040523480156200001157600080fd5b50604051620046f9380380620046f9833981810160405281019062000037919062000562565b6040518060400160405280600d81526020017f466f7265766572204361726174000000000000000000000000000000000000008152506040518060400160405280600381526020017f46435400000000000000000000000000000000000000000000000000000000008152508160009080519060200190620000bb92919062000448565b508060019080519060200190620000d492919062000448565b5050506001600781905550620000ef6200025f60201b60201c565b600c60006101000a81548173ffffffffffffffffffffffffffffffffffffffff021916908373ffffffffffffffffffffffffffffffffffffffff16021790555081600a60006101000a81548173ffffffffffffffffffffffffffffffffffffffff021916908373ffffffffffffffffffffffffffffffffffffffff16021790555080600b60006101000a81548173ffffffffffffffffffffffffffffffffffffffff021916908373ffffffffffffffffffffffffffffffffffffffff160217905550620002057ff23ec0bb4210edd5cba85afd05127efcd2fc6a781bfed49188da1081670b22d8600c60009054906101000a900473ffffffffffffffffffffffffffffffffffffffff166200026760201b60201c565b620002577f37ab20b0b9b7603d46ac9beda6418de3386ea0b9b7921a4a1b2cecd878035f087ff23ec0bb4210edd5cba85afd05127efcd2fc6a781bfed49188da1081670b22d86200035960201b60201c565b50506200060e565b600033905090565b620002798282620003bd60201b60201c565b620003555760016008600084815260200190815260200160002060000160008373ffffffffffffffffffffffffffffffffffffffff1673ffffffffffffffffffffffffffffffffffffffff16815260200190815260200160002060006101000a81548160ff021916908315150217905550620002fa6200025f60201b60201c565b73ffffffffffffffffffffffffffffffffffffffff168173ffffffffffffffffffffffffffffffffffffffff16837f2f8788117e7eff1d82e926ec794901d17c78024a50270940304540a733656f0d60405160405180910390a45b5050565b60006200036c836200042860201b60201c565b90508160086000858152602001908152602001600020600101819055508181847fbd79b86ffe0ab8e8776151514217cd7cacd52c909f66475c3af44e129f0b00ff60405160405180910390a4505050565b60006008600084815260200190815260200160002060000160008373ffffffffffffffffffffffffffffffffffffffff1673ffffffffffffffffffffffffffffffffffffffff16815260200190815260200160002060009054906101000a900460ff16905092915050565b600060086000838152602001908152602001600020600101549050919050565b8280546200045690620005d8565b90600052602060002090601f0160209004810192826200047a5760008555620004c6565b82601f106200049557805160ff1916838001178555620004c6565b82800160010185558215620004c6579182015b82811115620004c5578251825591602001919060010190620004a8565b5b509050620004d59190620004d9565b5090565b5b80821115620004f4576000816000905550600101620004da565b5090565b600080fd5b600073ffffffffffffffffffffffffffffffffffffffff82169050919050565b60006200052a82620004fd565b9050919050565b6200053c816200051d565b81146200054857600080fd5b50565b6000815190506200055c8162000531565b92915050565b600080604083850312156200057c576200057b620004f8565b5b60006200058c858286016200054b565b92505060206200059f858286016200054b565b9150509250929050565b7f4e487b7100000000000000000000000000000000000000000000000000000000600052602260045260246000fd5b60006002820490506001821680620005f157607f821691505b60208210811415620006085762000607620005a9565b5b50919050565b6140db806200061e6000396000f3fe608060405234801561001057600080fd5b50600436106101a95760003560e01c806342966c68116100f9578063b88d4fde11610097578063d547741f11610071578063d547741f146104c8578063d85d3d27146104e4578063e2f273bd14610500578063e985e9c51461051c576101a9565b8063b88d4fde1461045e578063bca93eba1461047a578063c87b56dd14610498576101a9565b806391d14854116100d357806391d14854146103d657806395d89b4114610406578063a217fddf14610424578063a22cb46514610442576101a9565b806342966c681461035a5780636352211e1461037657806370a08231146103a6576101a9565b806323b872dd116101665780632f2ff15d116101405780632f2ff15d146102ea57806335964cd71461030657806336568abe1461032257806342842e0e1461033e576101a9565b806323b872dd14610280578063248a9ca31461029c5780632a0acc6a146102cc576101a9565b806301ffc9a7146101ae57806304f16cad146101de57806306fdde03146101fa578063081812fc14610218578063095ea7b31461024857806318e97fd114610264575b600080fd5b6101c860048036038101906101c39190612923565b61054c565b6040516101d5919061296b565b60405180910390f35b6101f860048036038101906101f391906129e4565b61055e565b005b61020261058b565b60405161020f9190612aaa565b60405180910390f35b610232600480360381019061022d9190612b02565b61061d565b60405161023f9190612b3e565b60405180910390f35b610262600480360381019061025d9190612b59565b6106a2565b005b61027e60048036038101906102799190612cce565b6107ba565b005b61029a60048036038101906102959190612d2a565b6108ae565b005b6102b660048036038101906102b19190612db3565b61090e565b6040516102c39190612def565b60405180910390f35b6102d461092e565b6040516102e19190612def565b60405180910390f35b61030460048036038101906102ff9190612e0a565b610952565b005b610320600480360381019061031b91906129e4565b610973565b005b61033c60048036038101906103379190612e0a565b6109f6565b005b61035860048036038101906103539190612d2a565b610a79565b005b610374600480360381019061036f9190612b02565b610a99565b005b610390600480360381019061038b9190612b02565b610b1b565b60405161039d9190612b3e565b60405180910390f35b6103c060048036038101906103bb91906129e4565b610bcd565b6040516103cd9190612e59565b60405180910390f35b6103f060048036038101906103eb9190612e0a565b610c85565b6040516103fd919061296b565b60405180910390f35b61040e610cf0565b60405161041b9190612aaa565b60405180910390f35b61042c610d82565b6040516104399190612def565b60405180910390f35b61045c60048036038101906104579190612ea0565b610d89565b005b61047860048036038101906104739190612f81565b610d9f565b005b610482610e01565b60405161048f9190612def565b60405180910390f35b6104b260048036038101906104ad9190612b02565b610e25565b6040516104bf9190612aaa565b60405180910390f35b6104e260048036038101906104dd9190612e0a565b610f77565b005b6104fe60048036038101906104f99190613004565b610f98565b005b61051a600480360381019061051591906129e4565b611139565b005b6105366004803603810190610531919061304d565b6112d9565b604051610543919061296b565b60405180910390f35b60006105578261136d565b9050919050565b6105887f37ab20b0b9b7603d46ac9beda6418de3386ea0b9b7921a4a1b2cecd878035f0882610952565b50565b60606000805461059a906130bc565b80601f01602080910402602001604051908101604052809291908181526020018280546105c6906130bc565b80156106135780601f106105e857610100808354040283529160200191610613565b820191906000526020600020905b8154815290600101906020018083116105f657829003601f168201915b5050505050905090565b6000610628826113e7565b610667576040517f08c379a000000000000000000000000000000000000000000000000000000000815260040161065e90613160565b60405180910390fd5b6004600083815260200190815260200160002060009054906101000a900473ffffffffffffffffffffffffffffffffffffffff169050919050565b60006106ad82610b1b565b90508073ffffffffffffffffffffffffffffffffffffffff168373ffffffffffffffffffffffffffffffffffffffff16141561071e576040517f08c379a0000000000000000000000000000000000000000000000000000000008152600401610715906131f2565b60405180910390fd5b8073ffffffffffffffffffffffffffffffffffffffff1661073d611453565b73ffffffffffffffffffffffffffffffffffffffff16148061076c575061076b81610766611453565b6112d9565b5b6107ab576040517f08c379a00000000000000000000000000000000000000000000000000000000081526004016107a290613284565b60405180910390fd5b6107b5838361145b565b505050565b60026007541415610800576040517f08c379a00000000000000000000000000000000000000000000000000000000081526004016107f7906132f0565b60405180910390fd5b6002600781905550600c60009054906101000a900473ffffffffffffffffffffffffffffffffffffffff1673ffffffffffffffffffffffffffffffffffffffff163373ffffffffffffffffffffffffffffffffffffffff1614610898576040517f08c379a000000000000000000000000000000000000000000000000000000000815260040161088f9061335c565b60405180910390fd5b6108a28282611514565b60016007819055505050565b6108bf6108b9611453565b82611588565b6108fe576040517f08c379a00000000000000000000000000000000000000000000000000000000081526004016108f5906133ee565b60405180910390fd5b610909838383611666565b505050565b600060086000838152602001908152602001600020600101549050919050565b7ff23ec0bb4210edd5cba85afd05127efcd2fc6a781bfed49188da1081670b22d881565b61095b8261090e565b610964816118cd565b61096e83836118e1565b505050565b600260075414156109b9576040517f08c379a00000000000000000000000000000000000000000000000000000000081526004016109b0906132f0565b60405180910390fd5b60026007819055506109eb7f37ab20b0b9b7603d46ac9beda6418de3386ea0b9b7921a4a1b2cecd878035f0882610f77565b600160078190555050565b6109fe611453565b73ffffffffffffffffffffffffffffffffffffffff168173ffffffffffffffffffffffffffffffffffffffff1614610a6b576040517f08c379a0000000000000000000000000000000000000000000000000000000008152600401610a6290613480565b60405180910390fd5b610a7582826119c2565b5050565b610a9483838360405180602001604052806000815250610d9f565b505050565b3373ffffffffffffffffffffffffffffffffffffffff16610ab982610b1b565b73ffffffffffffffffffffffffffffffffffffffff1614610b0f576040517f08c379a0000000000000000000000000000000000000000000000000000000008152600401610b06906134ec565b60405180910390fd5b610b1881611aa4565b50565b6000806002600084815260200190815260200160002060009054906101000a900473ffffffffffffffffffffffffffffffffffffffff169050600073ffffffffffffffffffffffffffffffffffffffff168173ffffffffffffffffffffffffffffffffffffffff161415610bc4576040517f08c379a0000000000000000000000000000000000000000000000000000000008152600401610bbb9061357e565b60405180910390fd5b80915050919050565b60008073ffffffffffffffffffffffffffffffffffffffff168273ffffffffffffffffffffffffffffffffffffffff161415610c3e576040517f08c379a0000000000000000000000000000000000000000000000000000000008152600401610c3590613610565b60405180910390fd5b600360008373ffffffffffffffffffffffffffffffffffffffff1673ffffffffffffffffffffffffffffffffffffffff168152602001908152602001600020549050919050565b60006008600084815260200190815260200160002060000160008373ffffffffffffffffffffffffffffffffffffffff1673ffffffffffffffffffffffffffffffffffffffff16815260200190815260200160002060009054906101000a900460ff16905092915050565b606060018054610cff906130bc565b80601f0160208091040260200160405190810160405280929190818152602001828054610d2b906130bc565b8015610d785780601f10610d4d57610100808354040283529160200191610d78565b820191906000526020600020905b815481529060010190602001808311610d5b57829003601f168201915b5050505050905090565b6000801b81565b610d9b610d94611453565b8383611af7565b5050565b610db0610daa611453565b83611588565b610def576040517f08c379a0000000000000000000000000000000000000000000000000000000008152600401610de6906133ee565b60405180910390fd5b610dfb84848484611c64565b50505050565b7f37ab20b0b9b7603d46ac9beda6418de3386ea0b9b7921a4a1b2cecd878035f0881565b6060610e30826113e7565b610e6f576040517f08c379a0000000000000000000000000000000000000000000000000000000008152600401610e66906136a2565b60405180910390fd5b6000600660008481526020019081526020016000208054610e8f906130bc565b80601f0160208091040260200160405190810160405280929190818152602001828054610ebb906130bc565b8015610f085780601f10610edd57610100808354040283529160200191610f08565b820191906000526020600020905b815481529060010190602001808311610eeb57829003601f168201915b505050505090506000610f19611cc0565b9050600081511415610f2f578192505050610f72565b600082511115610f64578082604051602001610f4c9291906136fe565b60405160208183030381529060405292505050610f72565b610f6d84611cd7565b925050505b919050565b610f808261090e565b610f89816118cd565b610f9383836119c2565b505050565b60026007541415610fde576040517f08c379a0000000000000000000000000000000000000000000000000000000008152600401610fd5906132f0565b60405180910390fd5b60026007819055506110107f37ab20b0b9b7603d46ac9beda6418de3386ea0b9b7921a4a1b2cecd878035f0833610c85565b806110685750600c60009054906101000a900473ffffffffffffffffffffffffffffffffffffffff1673ffffffffffffffffffffffffffffffffffffffff163373ffffffffffffffffffffffffffffffffffffffff16145b6110a7576040517f08c379a000000000000000000000000000000000000000000000000000000000815260040161109e9061376e565b60405180910390fd5b6110b16009611d7e565b60006110bd6009611d94565b90506110c93382611da2565b6110d38183611514565b611100600a60009054906101000a900473ffffffffffffffffffffffffffffffffffffffff166001610d89565b61112d600b60009054906101000a900473ffffffffffffffffffffffffffffffffffffffff166001610d89565b50600160078190555050565b6002600754141561117f576040517f08c379a0000000000000000000000000000000000000000000000000000000008152600401611176906132f0565b60405180910390fd5b6002600781905550600c60009054906101000a900473ffffffffffffffffffffffffffffffffffffffff1673ffffffffffffffffffffffffffffffffffffffff163373ffffffffffffffffffffffffffffffffffffffff1614611217576040517f08c379a000000000000000000000000000000000000000000000000000000000815260040161120e9061335c565b60405180910390fd5b6112637ff23ec0bb4210edd5cba85afd05127efcd2fc6a781bfed49188da1081670b22d8600c60009054906101000a900473ffffffffffffffffffffffffffffffffffffffff16610f77565b61128d7ff23ec0bb4210edd5cba85afd05127efcd2fc6a781bfed49188da1081670b22d8826118e1565b80600c60006101000a81548173ffffffffffffffffffffffffffffffffffffffff021916908373ffffffffffffffffffffffffffffffffffffffff160217905550600160078190555050565b6000600560008473ffffffffffffffffffffffffffffffffffffffff1673ffffffffffffffffffffffffffffffffffffffff16815260200190815260200160002060008373ffffffffffffffffffffffffffffffffffffffff1673ffffffffffffffffffffffffffffffffffffffff16815260200190815260200160002060009054906101000a900460ff16905092915050565b60007f7965db0b000000000000000000000000000000000000000000000000000000007bffffffffffffffffffffffffffffffffffffffffffffffffffffffff1916827bffffffffffffffffffffffffffffffffffffffffffffffffffffffff191614806113e057506113df82611f7c565b5b9050919050565b60008073ffffffffffffffffffffffffffffffffffffffff166002600084815260200190815260200160002060009054906101000a900473ffffffffffffffffffffffffffffffffffffffff1673ffffffffffffffffffffffffffffffffffffffff1614159050919050565b600033905090565b816004600083815260200190815260200160002060006101000a81548173ffffffffffffffffffffffffffffffffffffffff021916908373ffffffffffffffffffffffffffffffffffffffff160217905550808273ffffffffffffffffffffffffffffffffffffffff166114ce83610b1b565b73ffffffffffffffffffffffffffffffffffffffff167f8c5be1e5ebec7d5bd14f71427d1e84f3dd0314c0f7b2291e5b200ac8c7c3b92560405160405180910390a45050565b61151d826113e7565b61155c576040517f08c379a000000000000000000000000000000000000000000000000000000000815260040161155390613800565b60405180910390fd5b806006600084815260200190815260200160002090805190602001906115839291906127d4565b505050565b6000611593826113e7565b6115d2576040517f08c379a00000000000000000000000000000000000000000000000000000000081526004016115c990613892565b60405180910390fd5b60006115dd83610b1b565b90508073ffffffffffffffffffffffffffffffffffffffff168473ffffffffffffffffffffffffffffffffffffffff16148061161f575061161e81856112d9565b5b8061165d57508373ffffffffffffffffffffffffffffffffffffffff166116458461061d565b73ffffffffffffffffffffffffffffffffffffffff16145b91505092915050565b8273ffffffffffffffffffffffffffffffffffffffff1661168682610b1b565b73ffffffffffffffffffffffffffffffffffffffff16146116dc576040517f08c379a00000000000000000000000000000000000000000000000000000000081526004016116d390613924565b60405180910390fd5b600073ffffffffffffffffffffffffffffffffffffffff168273ffffffffffffffffffffffffffffffffffffffff16141561174c576040517f08c379a0000000000000000000000000000000000000000000000000000000008152600401611743906139b6565b60405180910390fd5b61175783838361205e565b61176260008261145b565b6001600360008573ffffffffffffffffffffffffffffffffffffffff1673ffffffffffffffffffffffffffffffffffffffff16815260200190815260200160002060008282546117b29190613a05565b925050819055506001600360008473ffffffffffffffffffffffffffffffffffffffff1673ffffffffffffffffffffffffffffffffffffffff16815260200190815260200160002060008282546118099190613a39565b92505081905550816002600083815260200190815260200160002060006101000a81548173ffffffffffffffffffffffffffffffffffffffff021916908373ffffffffffffffffffffffffffffffffffffffff160217905550808273ffffffffffffffffffffffffffffffffffffffff168473ffffffffffffffffffffffffffffffffffffffff167fddf252ad1be2c89b69c2b068fc378daa952ba7f163c4a11628f55a4df523b3ef60405160405180910390a46118c8838383612063565b505050565b6118de816118d9611453565b612068565b50565b6118eb8282610c85565b6119be5760016008600084815260200190815260200160002060000160008373ffffffffffffffffffffffffffffffffffffffff1673ffffffffffffffffffffffffffffffffffffffff16815260200190815260200160002060006101000a81548160ff021916908315150217905550611963611453565b73ffffffffffffffffffffffffffffffffffffffff168173ffffffffffffffffffffffffffffffffffffffff16837f2f8788117e7eff1d82e926ec794901d17c78024a50270940304540a733656f0d60405160405180910390a45b5050565b6119cc8282610c85565b15611aa05760006008600084815260200190815260200160002060000160008373ffffffffffffffffffffffffffffffffffffffff1673ffffffffffffffffffffffffffffffffffffffff16815260200190815260200160002060006101000a81548160ff021916908315150217905550611a45611453565b73ffffffffffffffffffffffffffffffffffffffff168173ffffffffffffffffffffffffffffffffffffffff16837ff6391f5c32d9c69d2a47ea670b442974b53935d1edc7fd64eb21e047a839171b60405160405180910390a45b5050565b611aad81612105565b6000600660008381526020019081526020016000208054611acd906130bc565b905014611af457600660008281526020019081526020016000206000611af3919061285a565b5b50565b8173ffffffffffffffffffffffffffffffffffffffff168373ffffffffffffffffffffffffffffffffffffffff161415611b66576040517f08c379a0000000000000000000000000000000000000000000000000000000008152600401611b5d90613adb565b60405180910390fd5b80600560008573ffffffffffffffffffffffffffffffffffffffff1673ffffffffffffffffffffffffffffffffffffffff16815260200190815260200160002060008473ffffffffffffffffffffffffffffffffffffffff1673ffffffffffffffffffffffffffffffffffffffff16815260200190815260200160002060006101000a81548160ff0219169083151502179055508173ffffffffffffffffffffffffffffffffffffffff168373ffffffffffffffffffffffffffffffffffffffff167f17307eab39ab6107e8899845ad3d59bd9653f200f220920489ca2b5937696c3183604051611c57919061296b565b60405180910390a3505050565b611c6f848484611666565b611c7b84848484612222565b611cba576040517f08c379a0000000000000000000000000000000000000000000000000000000008152600401611cb190613b6d565b60405180910390fd5b50505050565b606060405180602001604052806000815250905090565b6060611ce2826113e7565b611d21576040517f08c379a0000000000000000000000000000000000000000000000000000000008152600401611d1890613bff565b60405180910390fd5b6000611d2b611cc0565b90506000815111611d4b5760405180602001604052806000815250611d76565b80611d55846123aa565b604051602001611d669291906136fe565b6040516020818303038152906040525b915050919050565b6001816000016000828254019250508190555050565b600081600001549050919050565b600073ffffffffffffffffffffffffffffffffffffffff168273ffffffffffffffffffffffffffffffffffffffff161415611e12576040517f08c379a0000000000000000000000000000000000000000000000000000000008152600401611e0990613c6b565b60405180910390fd5b611e1b816113e7565b15611e5b576040517f08c379a0000000000000000000000000000000000000000000000000000000008152600401611e5290613cd7565b60405180910390fd5b611e676000838361205e565b6001600360008473ffffffffffffffffffffffffffffffffffffffff1673ffffffffffffffffffffffffffffffffffffffff1681526020019081526020016000206000828254611eb79190613a39565b92505081905550816002600083815260200190815260200160002060006101000a81548173ffffffffffffffffffffffffffffffffffffffff021916908373ffffffffffffffffffffffffffffffffffffffff160217905550808273ffffffffffffffffffffffffffffffffffffffff16600073ffffffffffffffffffffffffffffffffffffffff167fddf252ad1be2c89b69c2b068fc378daa952ba7f163c4a11628f55a4df523b3ef60405160405180910390a4611f7860008383612063565b5050565b60007f80ac58cd000000000000000000000000000000000000000000000000000000007bffffffffffffffffffffffffffffffffffffffffffffffffffffffff1916827bffffffffffffffffffffffffffffffffffffffffffffffffffffffff1916148061204757507f5b5e139f000000000000000000000000000000000000000000000000000000007bffffffffffffffffffffffffffffffffffffffffffffffffffffffff1916827bffffffffffffffffffffffffffffffffffffffffffffffffffffffff1916145b8061205757506120568261250b565b5b9050919050565b505050565b505050565b6120728282610c85565b612101576120978173ffffffffffffffffffffffffffffffffffffffff166014612575565b6120a58360001c6020612575565b6040516020016120b6929190613d8f565b6040516020818303038152906040526040517f08c379a00000000000000000000000000000000000000000000000000000000081526004016120f89190612aaa565b60405180910390fd5b5050565b600061211082610b1b565b905061211e8160008461205e565b61212960008361145b565b6001600360008373ffffffffffffffffffffffffffffffffffffffff1673ffffffffffffffffffffffffffffffffffffffff16815260200190815260200160002060008282546121799190613a05565b925050819055506002600083815260200190815260200160002060006101000a81549073ffffffffffffffffffffffffffffffffffffffff021916905581600073ffffffffffffffffffffffffffffffffffffffff168273ffffffffffffffffffffffffffffffffffffffff167fddf252ad1be2c89b69c2b068fc378daa952ba7f163c4a11628f55a4df523b3ef60405160405180910390a461221e81600084612063565b5050565b60006122438473ffffffffffffffffffffffffffffffffffffffff166127b1565b1561239d578373ffffffffffffffffffffffffffffffffffffffff1663150b7a0261226c611453565b8786866040518563ffffffff1660e01b815260040161228e9493929190613e1e565b6020604051808303816000875af19250505080156122ca57506040513d601f19601f820116820180604052508101906122c79190613e7f565b60015b61234d573d80600081146122fa576040519150601f19603f3d011682016040523d82523d6000602084013e6122ff565b606091505b50600081511415612345576040517f08c379a000000000000000000000000000000000000000000000000000000000815260040161233c90613b6d565b60405180910390fd5b805181602001fd5b63150b7a0260e01b7bffffffffffffffffffffffffffffffffffffffffffffffffffffffff1916817bffffffffffffffffffffffffffffffffffffffffffffffffffffffff1916149150506123a2565b600190505b949350505050565b606060008214156123f2576040518060400160405280600181526020017f30000000000000000000000000000000000000000000000000000000000000008152509050612506565b600082905060005b6000821461242457808061240d90613eac565b915050600a8261241d9190613f24565b91506123fa565b60008167ffffffffffffffff8111156124405761243f612ba3565b5b6040519080825280601f01601f1916602001820160405280156124725781602001600182028036833780820191505090505b5090505b600085146124ff5760018261248b9190613a05565b9150600a8561249a9190613f55565b60306124a69190613a39565b60f81b8183815181106124bc576124bb613f86565b5b60200101907effffffffffffffffffffffffffffffffffffffffffffffffffffffffffffff1916908160001a905350600a856124f89190613f24565b9450612476565b8093505050505b919050565b60007f01ffc9a7000000000000000000000000000000000000000000000000000000007bffffffffffffffffffffffffffffffffffffffffffffffffffffffff1916827bffffffffffffffffffffffffffffffffffffffffffffffffffffffff1916149050919050565b6060600060028360026125889190613fb5565b6125929190613a39565b67ffffffffffffffff8111156125ab576125aa612ba3565b5b6040519080825280601f01601f1916602001820160405280156125dd5781602001600182028036833780820191505090505b5090507f30000000000000000000000000000000000000000000000000000000000000008160008151811061261557612614613f86565b5b60200101907effffffffffffffffffffffffffffffffffffffffffffffffffffffffffffff1916908160001a9053507f78000000000000000000000000000000000000000000000000000000000000008160018151811061267957612678613f86565b5b60200101907effffffffffffffffffffffffffffffffffffffffffffffffffffffffffffff1916908160001a905350600060018460026126b99190613fb5565b6126c39190613a39565b90505b6001811115612763577f3031323334353637383961626364656600000000000000000000000000000000600f86166010811061270557612704613f86565b5b1a60f81b82828151811061271c5761271b613f86565b5b60200101907effffffffffffffffffffffffffffffffffffffffffffffffffffffffffffff1916908160001a905350600485901c94508061275c9061400f565b90506126c6565b50600084146127a7576040517f08c379a000000000000000000000000000000000000000000000000000000000815260040161279e90614085565b60405180910390fd5b8091505092915050565b6000808273ffffffffffffffffffffffffffffffffffffffff163b119050919050565b8280546127e0906130bc565b90600052602060002090601f0160209004810192826128025760008555612849565b82601f1061281b57805160ff1916838001178555612849565b82800160010185558215612849579182015b8281111561284857825182559160200191906001019061282d565b5b509050612856919061289a565b5090565b508054612866906130bc565b6000825580601f106128785750612897565b601f016020900490600052602060002090810190612896919061289a565b5b50565b5b808211156128b357600081600090555060010161289b565b5090565b6000604051905090565b600080fd5b600080fd5b60007fffffffff0000000000000000000000000000000000000000000000000000000082169050919050565b612900816128cb565b811461290b57600080fd5b50565b60008135905061291d816128f7565b92915050565b600060208284031215612939576129386128c1565b5b60006129478482850161290e565b91505092915050565b60008115159050919050565b61296581612950565b82525050565b6000602082019050612980600083018461295c565b92915050565b600073ffffffffffffffffffffffffffffffffffffffff82169050919050565b60006129b182612986565b9050919050565b6129c1816129a6565b81146129cc57600080fd5b50565b6000813590506129de816129b8565b92915050565b6000602082840312156129fa576129f96128c1565b5b6000612a08848285016129cf565b91505092915050565b600081519050919050565b600082825260208201905092915050565b60005b83811015612a4b578082015181840152602081019050612a30565b83811115612a5a576000848401525b50505050565b6000601f19601f8301169050919050565b6000612a7c82612a11565b612a868185612a1c565b9350612a96818560208601612a2d565b612a9f81612a60565b840191505092915050565b60006020820190508181036000830152612ac48184612a71565b905092915050565b6000819050919050565b612adf81612acc565b8114612aea57600080fd5b50565b600081359050612afc81612ad6565b92915050565b600060208284031215612b1857612b176128c1565b5b6000612b2684828501612aed565b91505092915050565b612b38816129a6565b82525050565b6000602082019050612b536000830184612b2f565b92915050565b60008060408385031215612b7057612b6f6128c1565b5b6000612b7e858286016129cf565b9250506020612b8f85828601612aed565b9150509250929050565b600080fd5b600080fd5b7f4e487b7100000000000000000000000000000000000000000000000000000000600052604160045260246000fd5b612bdb82612a60565b810181811067ffffffffffffffff82111715612bfa57612bf9612ba3565b5b80604052505050565b6000612c0d6128b7565b9050612c198282612bd2565b919050565b600067ffffffffffffffff821115612c3957612c38612ba3565b5b612c4282612a60565b9050602081019050919050565b82818337600083830152505050565b6000612c71612c6c84612c1e565b612c03565b905082815260208101848484011115612c8d57612c8c612b9e565b5b612c98848285612c4f565b509392505050565b600082601f830112612cb557612cb4612b99565b5b8135612cc5848260208601612c5e565b91505092915050565b60008060408385031215612ce557612ce46128c1565b5b6000612cf385828601612aed565b925050602083013567ffffffffffffffff811115612d1457612d136128c6565b5b612d2085828601612ca0565b9150509250929050565b600080600060608486031215612d4357612d426128c1565b5b6000612d51868287016129cf565b9350506020612d62868287016129cf565b9250506040612d7386828701612aed565b9150509250925092565b6000819050919050565b612d9081612d7d565b8114612d9b57600080fd5b50565b600081359050612dad81612d87565b92915050565b600060208284031215612dc957612dc86128c1565b5b6000612dd784828501612d9e565b91505092915050565b612de981612d7d565b82525050565b6000602082019050612e046000830184612de0565b92915050565b60008060408385031215612e2157612e206128c1565b5b6000612e2f85828601612d9e565b9250506020612e40858286016129cf565b9150509250929050565b612e5381612acc565b82525050565b6000602082019050612e6e6000830184612e4a565b92915050565b612e7d81612950565b8114612e8857600080fd5b50565b600081359050612e9a81612e74565b92915050565b60008060408385031215612eb757612eb66128c1565b5b6000612ec5858286016129cf565b9250506020612ed685828601612e8b565b9150509250929050565b600067ffffffffffffffff821115612efb57612efa612ba3565b5b612f0482612a60565b9050602081019050919050565b6000612f24612f1f84612ee0565b612c03565b905082815260208101848484011115612f4057612f3f612b9e565b5b612f4b848285612c4f565b509392505050565b600082601f830112612f6857612f67612b99565b5b8135612f78848260208601612f11565b91505092915050565b60008060008060808587031215612f9b57612f9a6128c1565b5b6000612fa9878288016129cf565b9450506020612fba878288016129cf565b9350506040612fcb87828801612aed565b925050606085013567ffffffffffffffff811115612fec57612feb6128c6565b5b612ff887828801612f53565b91505092959194509250565b60006020828403121561301a576130196128c1565b5b600082013567ffffffffffffffff811115613038576130376128c6565b5b61304484828501612ca0565b91505092915050565b60008060408385031215613064576130636128c1565b5b6000613072858286016129cf565b9250506020613083858286016129cf565b9150509250929050565b7f4e487b7100000000000000000000000000000000000000000000000000000000600052602260045260246000fd5b600060028204905060018216806130d457607f821691505b602082108114156130e8576130e761308d565b5b50919050565b7f4552433732313a20617070726f76656420717565727920666f72206e6f6e657860008201527f697374656e7420746f6b656e0000000000000000000000000000000000000000602082015250565b600061314a602c83612a1c565b9150613155826130ee565b604082019050919050565b600060208201905081810360008301526131798161313d565b9050919050565b7f4552433732313a20617070726f76616c20746f2063757272656e74206f776e6560008201527f7200000000000000000000000000000000000000000000000000000000000000602082015250565b60006131dc602183612a1c565b91506131e782613180565b604082019050919050565b6000602082019050818103600083015261320b816131cf565b9050919050565b7f4552433732313a20617070726f76652063616c6c6572206973206e6f74206f7760008201527f6e6572206e6f7220617070726f76656420666f7220616c6c0000000000000000602082015250565b600061326e603883612a1c565b915061327982613212565b604082019050919050565b6000602082019050818103600083015261329d81613261565b9050919050565b7f5265656e7472616e637947756172643a207265656e7472616e742063616c6c00600082015250565b60006132da601f83612a1c565b91506132e5826132a4565b602082019050919050565b60006020820190508181036000830152613309816132cd565b9050919050565b7f4552525f434f44455f3300000000000000000000000000000000000000000000600082015250565b6000613346600a83612a1c565b915061335182613310565b602082019050919050565b6000602082019050818103600083015261337581613339565b9050919050565b7f4552433732313a207472616e736665722063616c6c6572206973206e6f74206f60008201527f776e6572206e6f7220617070726f766564000000000000000000000000000000602082015250565b60006133d8603183612a1c565b91506133e38261337c565b604082019050919050565b60006020820190508181036000830152613407816133cb565b9050919050565b7f416363657373436f6e74726f6c3a2063616e206f6e6c792072656e6f756e636560008201527f20726f6c657320666f722073656c660000000000000000000000000000000000602082015250565b600061346a602f83612a1c565b91506134758261340e565b604082019050919050565b600060208201905081810360008301526134998161345d565b9050919050565b7f4552525f434f44455f3200000000000000000000000000000000000000000000600082015250565b60006134d6600a83612a1c565b91506134e1826134a0565b602082019050919050565b60006020820190508181036000830152613505816134c9565b9050919050565b7f4552433732313a206f776e657220717565727920666f72206e6f6e657869737460008201527f656e7420746f6b656e0000000000000000000000000000000000000000000000602082015250565b6000613568602983612a1c565b91506135738261350c565b604082019050919050565b600060208201905081810360008301526135978161355b565b9050919050565b7f4552433732313a2062616c616e636520717565727920666f7220746865207a6560008201527f726f206164647265737300000000000000000000000000000000000000000000602082015250565b60006135fa602a83612a1c565b91506136058261359e565b604082019050919050565b60006020820190508181036000830152613629816135ed565b9050919050565b7f45524337323155524953746f726167653a2055524920717565727920666f722060008201527f6e6f6e6578697374656e7420746f6b656e000000000000000000000000000000602082015250565b600061368c603183612a1c565b915061369782613630565b604082019050919050565b600060208201905081810360008301526136bb8161367f565b9050919050565b600081905092915050565b60006136d882612a11565b6136e281856136c2565b93506136f2818560208601612a2d565b80840191505092915050565b600061370a82856136cd565b915061371682846136cd565b91508190509392505050565b7f45525f434f44455f310000000000000000000000000000000000000000000000600082015250565b6000613758600983612a1c565b915061376382613722565b602082019050919050565b600060208201905081810360008301526137878161374b565b9050919050565b7f45524337323155524953746f726167653a2055524920736574206f66206e6f6e60008201527f6578697374656e7420746f6b656e000000000000000000000000000000000000602082015250565b60006137ea602e83612a1c565b91506137f58261378e565b604082019050919050565b60006020820190508181036000830152613819816137dd565b9050919050565b7f4552433732313a206f70657261746f7220717565727920666f72206e6f6e657860008201527f697374656e7420746f6b656e0000000000000000000000000000000000000000602082015250565b600061387c602c83612a1c565b915061388782613820565b604082019050919050565b600060208201905081810360008301526138ab8161386f565b9050919050565b7f4552433732313a207472616e736665722066726f6d20696e636f72726563742060008201527f6f776e6572000000000000000000000000000000000000000000000000000000602082015250565b600061390e602583612a1c565b9150613919826138b2565b604082019050919050565b6000602082019050818103600083015261393d81613901565b9050919050565b7f4552433732313a207472616e7366657220746f20746865207a65726f2061646460008201527f7265737300000000000000000000000000000000000000000000000000000000602082015250565b60006139a0602483612a1c565b91506139ab82613944565b604082019050919050565b600060208201905081810360008301526139cf81613993565b9050919050565b7f4e487b7100000000000000000000000000000000000000000000000000000000600052601160045260246000fd5b6000613a1082612acc565b9150613a1b83612acc565b925082821015613a2e57613a2d6139d6565b5b828203905092915050565b6000613a4482612acc565b9150613a4f83612acc565b9250827fffffffffffffffffffffffffffffffffffffffffffffffffffffffffffffffff03821115613a8457613a836139d6565b5b828201905092915050565b7f4552433732313a20617070726f766520746f2063616c6c657200000000000000600082015250565b6000613ac5601983612a1c565b9150613ad082613a8f565b602082019050919050565b60006020820190508181036000830152613af481613ab8565b9050919050565b7f4552433732313a207472616e7366657220746f206e6f6e20455243373231526560008201527f63656976657220696d706c656d656e7465720000000000000000000000000000602082015250565b6000613b57603283612a1c565b9150613b6282613afb565b604082019050919050565b60006020820190508181036000830152613b8681613b4a565b9050919050565b7f4552433732314d657461646174613a2055524920717565727920666f72206e6f60008201527f6e6578697374656e7420746f6b656e0000000000000000000000000000000000602082015250565b6000613be9602f83612a1c565b9150613bf482613b8d565b604082019050919050565b60006020820190508181036000830152613c1881613bdc565b9050919050565b7f4552433732313a206d696e7420746f20746865207a65726f2061646472657373600082015250565b6000613c55602083612a1c565b9150613c6082613c1f565b602082019050919050565b60006020820190508181036000830152613c8481613c48565b9050919050565b7f4552433732313a20746f6b656e20616c7265616479206d696e74656400000000600082015250565b6000613cc1601c83612a1c565b9150613ccc82613c8b565b602082019050919050565b60006020820190508181036000830152613cf081613cb4565b9050919050565b7f416363657373436f6e74726f6c3a206163636f756e7420000000000000000000600082015250565b6000613d2d6017836136c2565b9150613d3882613cf7565b601782019050919050565b7f206973206d697373696e6720726f6c6520000000000000000000000000000000600082015250565b6000613d796011836136c2565b9150613d8482613d43565b601182019050919050565b6000613d9a82613d20565b9150613da682856136cd565b9150613db182613d6c565b9150613dbd82846136cd565b91508190509392505050565b600081519050919050565b600082825260208201905092915050565b6000613df082613dc9565b613dfa8185613dd4565b9350613e0a818560208601612a2d565b613e1381612a60565b840191505092915050565b6000608082019050613e336000830187612b2f565b613e406020830186612b2f565b613e4d6040830185612e4a565b8181036060830152613e5f8184613de5565b905095945050505050565b600081519050613e79816128f7565b92915050565b600060208284031215613e9557613e946128c1565b5b6000613ea384828501613e6a565b91505092915050565b6000613eb782612acc565b91507fffffffffffffffffffffffffffffffffffffffffffffffffffffffffffffffff821415613eea57613ee96139d6565b5b600182019050919050565b7f4e487b7100000000000000000000000000000000000000000000000000000000600052601260045260246000fd5b6000613f2f82612acc565b9150613f3a83612acc565b925082613f4a57613f49613ef5565b5b828204905092915050565b6000613f6082612acc565b9150613f6b83612acc565b925082613f7b57613f7a613ef5565b5b828206905092915050565b7f4e487b7100000000000000000000000000000000000000000000000000000000600052603260045260246000fd5b6000613fc082612acc565b9150613fcb83612acc565b9250817fffffffffffffffffffffffffffffffffffffffffffffffffffffffffffffffff0483118215151615614004576140036139d6565b5b828202905092915050565b600061401a82612acc565b9150600082141561402e5761402d6139d6565b5b600182039050919050565b7f537472696e67733a20686578206c656e67746820696e73756666696369656e74600082015250565b600061406f602083612a1c565b915061407a82614039565b602082019050919050565b6000602082019050818103600083015261409e81614062565b905091905056fea26469706673582212201d99fe40f9d09883f90f29fa082f74f18833435132448ef1c72cd881a782469564736f6c634300080a0033",
  "linkReferences": {},
  "deployedLinkReferences": {}
}