{
  "_format": "hh-sol-artifact-1",
  "contractName": "MarketPlace",
  "sourceName": "contracts/marketplace.sol",
  "abi": [
    {
      "inputs": [
        {
          "internalType": "address",
          "name": "_auctionContract",
          "type": "address"
        }
      ],
      "stateMutability": "nonpayable",
      "type": "constructor"
    },
    {
      "anonymous": false,
      "inputs": [
        {
          "indexed": true,
          "internalType": "uint256",
          "name": "tokenId",
          "type": "uint256"
        },
        {
          "indexed": true,
          "internalType": "uint256",
          "name": "price",
          "type": "uint256"
        }
      ],
      "name": "DirectSaleCreated",
      "type": "event"
    },
    {
      "anonymous": false,
      "inputs": [
        {
          "indexed": true,
          "internalType": "uint256",
          "name": "tokenId",
          "type": "uint256"
        },
        {
          "indexed": true,
          "internalType": "uint256",
          "name": "price",
          "type": "uint256"
        }
      ],
      "name": "DirectSaleDone",
      "type": "event"
    },
    {
      "anonymous": false,
      "inputs": [
        {
          "indexed": true,
          "internalType": "uint256",
          "name": "tokenId",
          "type": "uint256"
        }
      ],
      "name": "OrderCompleted",
      "type": "event"
    },
    {
      "inputs": [
        {
          "internalType": "uint256",
          "name": "_tokenId",
          "type": "uint256"
        }
      ],
      "name": "cancelAuction",
      "outputs": [],
      "stateMutability": "nonpayable",
      "type": "function"
    },
    {
      "inputs": [
        {
          "internalType": "uint256",
          "name": "_tokenId",
          "type": "uint256"
        },
        {
          "internalType": "uint256",
          "name": "_reservePrice",
          "type": "uint256"
        }
      ],
      "name": "changeReservePrice",
      "outputs": [],
      "stateMutability": "nonpayable",
      "type": "function"
    },
    {
      "inputs": [
        {
          "internalType": "address",
          "name": "_tokenContract",
          "type": "address"
        },
        {
          "internalType": "uint256",
          "name": "_tokenId",
          "type": "uint256"
        },
        {
          "internalType": "uint256",
          "name": "_duration",
          "type": "uint256"
        },
        {
          "internalType": "uint256",
          "name": "_reservePrice",
          "type": "uint256"
        },
        {
          "internalType": "address",
          "name": "_sellerFundsRecipient",
          "type": "address"
        },
        {
          "internalType": "uint256",
          "name": "_startTime",
          "type": "uint256"
        }
      ],
      "name": "createAuction",
      "outputs": [],
      "stateMutability": "payable",
      "type": "function"
    },
    {
      "inputs": [
        {
          "internalType": "uint256",
          "name": "_tokenId",
          "type": "uint256"
        },
        {
          "internalType": "uint256",
          "name": "_reservePrice",
          "type": "uint256"
        }
      ],
      "name": "createDirectSaleItem",
      "outputs": [],
      "stateMutability": "payable",
      "type": "function"
    },
    {
      "inputs": [],
      "name": "getListingFee",
      "outputs": [
        {
          "internalType": "uint256",
          "name": "",
          "type": "uint256"
        }
      ],
      "stateMutability": "view",
      "type": "function"
    },
    {
      "inputs": [
        {
          "internalType": "uint256",
          "name": "_tokenId",
          "type": "uint256"
        }
      ],
      "name": "orderCompleted",
      "outputs": [],
      "stateMutability": "nonpayable",
      "type": "function"
    },
    {
      "inputs": [
        {
          "internalType": "uint256",
          "name": "_tokenId",
          "type": "uint256"
        }
      ],
      "name": "placeBid",
      "outputs": [],
      "stateMutability": "payable",
      "type": "function"
    },
    {
      "inputs": [
        {
          "internalType": "address",
          "name": "_tokenContract",
          "type": "address"
        }
      ],
      "name": "setTokenContract",
      "outputs": [],
      "stateMutability": "nonpayable",
      "type": "function"
    },
    {
      "inputs": [
        {
          "internalType": "uint256",
          "name": "_tokenId",
          "type": "uint256"
        }
      ],
      "name": "settleAuction",
      "outputs": [],
      "stateMutability": "payable",
      "type": "function"
    },
    {
      "inputs": [
        {
          "internalType": "uint256",
          "name": "_tokenId",
          "type": "uint256"
        }
      ],
      "name": "settleDirectSale",
      "outputs": [],
      "stateMutability": "payable",
      "type": "function"
    },
    {
      "inputs": [
        {
          "internalType": "uint256",
          "name": "",
          "type": "uint256"
        }
      ],
      "name": "tokenIdToMarketItemMeta",
      "outputs": [
        {
          "internalType": "address",
          "name": "seller",
          "type": "address"
        },
        {
          "internalType": "uint256",
          "name": "reservePrice",
          "type": "uint256"
        },
        {
          "internalType": "bool",
          "name": "onAuction",
          "type": "bool"
        },
        {
          "internalType": "bool",
          "name": "onDirectSale",
          "type": "bool"
        },
        {
          "components": [
            {
              "internalType": "bool",
              "name": "inProcess",
              "type": "bool"
            },
            {
              "internalType": "bool",
              "name": "completed",
              "type": "bool"
            }
          ],
          "internalType": "struct MarketPlace.OrderState",
          "name": "orderState",
          "type": "tuple"
        }
      ],
      "stateMutability": "view",
      "type": "function"
    },
    {
      "inputs": [
        {
          "internalType": "address",
          "name": "_admin",
          "type": "address"
        }
      ],
      "name": "updateAdmin",
      "outputs": [],
      "stateMutability": "nonpayable",
      "type": "function"
    },
    {
      "inputs": [
        {
          "internalType": "uint256",
          "name": "_listingFee",
          "type": "uint256"
        }
      ],
      "name": "updateListingFee",
      "outputs": [],
      "stateMutability": "nonpayable",
      "type": "function"
    }
  ],
  "bytecode": "0x6080604052670de0b6b3a76400006004553480156200001d57600080fd5b50604051620025573803806200255783398181016040528101906200004391906200013e565b600160008190555080600160006101000a81548173ffffffffffffffffffffffffffffffffffffffff021916908373ffffffffffffffffffffffffffffffffffffffff16021790555033600360006101000a81548173ffffffffffffffffffffffffffffffffffffffff021916908373ffffffffffffffffffffffffffffffffffffffff1602179055505062000170565b600080fd5b600073ffffffffffffffffffffffffffffffffffffffff82169050919050565b60006200010682620000d9565b9050919050565b6200011881620000f9565b81146200012457600080fd5b50565b60008151905062000138816200010d565b92915050565b600060208284031215620001575762000156620000d4565b5b6000620001678482850162000127565b91505092915050565b6123d780620001806000396000f3fe6080604052600436106100c25760003560e01c80639979ef451161007f578063be290bee11610059578063be290bee146101f9578063d9ec787d1461023a578063e2f273bd14610263578063f79d91ae1461028c576100c2565b80639979ef4514610189578063b8fe6abe146101a5578063bbcd5bbe146101d0576100c2565b806306fdd531146100c757806317a273a2146100e35780632e993611146100ff57806364f1df331461011b5780636ceae2711461014457806396b5a75514610160575b600080fd5b6100e160048036038101906100dc9190611a5d565b6102b5565b005b6100fd60048036038101906100f89190611aea565b610695565b005b61011960048036038101906101149190611b2a565b610a70565b005b34801561012757600080fd5b50610142600480360381019061013d9190611b2a565b610cc0565b005b61015e60048036038101906101599190611b2a565b610ec7565b005b34801561016c57600080fd5b5061018760048036038101906101829190611b2a565b6111c0565b005b6101a3600480360381019061019e9190611b2a565b61141e565b005b3480156101b157600080fd5b506101ba611507565b6040516101c79190611b66565b60405180910390f35b3480156101dc57600080fd5b506101f760048036038101906101f29190611b81565b611511565b005b34801561020557600080fd5b50610220600480360381019061021b9190611b2a565b611555565b604051610231959493929190611c16565b60405180910390f35b34801561024657600080fd5b50610261600480360381019061025c9190611aea565b611605565b005b34801561026f57600080fd5b5061028a60048036038101906102859190611b81565b611836565b005b34801561029857600080fd5b506102b360048036038101906102ae9190611b2a565b61192a565b005b600260005414156102fb576040517f08c379a00000000000000000000000000000000000000000000000000000000081526004016102f290611cc6565b60405180910390fd5b6002600081905550600015156005600087815260200190815260200160002060020160019054906101000a900460ff1615151461036d576040517f08c379a000000000000000000000000000000000000000000000000000000000815260040161036490611d32565b60405180910390fd5b600115156005600087815260200190815260200160002060020160009054906101000a900460ff16151514156103d8576040517f08c379a00000000000000000000000000000000000000000000000000000000081526004016103cf90611d9e565b60405180910390fd5b600454341461041c576040517f08c379a000000000000000000000000000000000000000000000000000000000815260040161041390611e0a565b60405180910390fd5b600360009054906101000a900473ffffffffffffffffffffffffffffffffffffffff1673ffffffffffffffffffffffffffffffffffffffff166108fc349081150290604051600060405180830381858888f19350505050158015610484573d6000803e3d6000fd5b50600160009054906101000a900473ffffffffffffffffffffffffffffffffffffffff1673ffffffffffffffffffffffffffffffffffffffff166306fdd5318787878787876040518763ffffffff1660e01b81526004016104ea96959493929190611e2a565b600060405180830381600087803b15801561050457600080fd5b505af1158015610518573d6000803e3d6000fd5b50505050600260009054906101000a900473ffffffffffffffffffffffffffffffffffffffff1673ffffffffffffffffffffffffffffffffffffffff16636352211e866040518263ffffffff1660e01b81526004016105779190611b66565b602060405180830381865afa158015610594573d6000803e3d6000fd5b505050506040513d601f19601f820116820180604052508101906105b89190611ea0565b6005600087815260200190815260200160002060000160006101000a81548173ffffffffffffffffffffffffffffffffffffffff021916908373ffffffffffffffffffffffffffffffffffffffff16021790555082600560008781526020019081526020016000206001018190555060016005600087815260200190815260200160002060020160006101000a81548160ff02191690831515021790555060006005600087815260200190815260200160002060020160016101000a81548160ff0219169083151502179055506001600081905550505050505050565b600260005414156106db576040517f08c379a00000000000000000000000000000000000000000000000000000000081526004016106d290611cc6565b60405180910390fd5b6002600081905550600015156005600084815260200190815260200160002060020160009054906101000a900460ff1615151461074d576040517f08c379a000000000000000000000000000000000000000000000000000000000815260040161074490611f19565b60405180910390fd5b3373ffffffffffffffffffffffffffffffffffffffff16600260009054906101000a900473ffffffffffffffffffffffffffffffffffffffff1673ffffffffffffffffffffffffffffffffffffffff16636352211e846040518263ffffffff1660e01b81526004016107bf9190611b66565b602060405180830381865afa1580156107dc573d6000803e3d6000fd5b505050506040513d601f19601f820116820180604052508101906108009190611ea0565b73ffffffffffffffffffffffffffffffffffffffff1614610856576040517f08c379a000000000000000000000000000000000000000000000000000000000815260040161084d90611f85565b60405180910390fd5b600454341461086457600080fd5b600360009054906101000a900473ffffffffffffffffffffffffffffffffffffffff1673ffffffffffffffffffffffffffffffffffffffff166108fc349081150290604051600060405180830381858888f193505050501580156108cc573d6000803e3d6000fd5b50600260009054906101000a900473ffffffffffffffffffffffffffffffffffffffff1673ffffffffffffffffffffffffffffffffffffffff16636352211e836040518263ffffffff1660e01b81526004016109289190611b66565b602060405180830381865afa158015610945573d6000803e3d6000fd5b505050506040513d601f19601f820116820180604052508101906109699190611ea0565b6005600084815260200190815260200160002060000160006101000a81548173ffffffffffffffffffffffffffffffffffffffff021916908373ffffffffffffffffffffffffffffffffffffffff16021790555080600560008481526020019081526020016000206001018190555060006005600084815260200190815260200160002060020160006101000a81548160ff02191690831515021790555060016005600084815260200190815260200160002060020160016101000a81548160ff02191690831515021790555080827f620e9df2dffe75165edab8da0880bce033fd2b04ce54012be0379a724abb007260405160405180910390a360016000819055505050565b60026000541415610ab6576040517f08c379a0000000000000000000000000000000000000000000000000000000008152600401610aad90611cc6565b60405180910390fd5b6002600081905550600160009054906101000a900473ffffffffffffffffffffffffffffffffffffffff1673ffffffffffffffffffffffffffffffffffffffff16635138b08c600260009054906101000a900473ffffffffffffffffffffffffffffffffffffffff16836040518363ffffffff1660e01b8152600401610b3d929190611fa5565b600060405180830381600087803b158015610b5757600080fd5b505af1158015610b6b573d6000803e3d6000fd5b50505050600160009054906101000a900473ffffffffffffffffffffffffffffffffffffffff1673ffffffffffffffffffffffffffffffffffffffff16638f288644826040518263ffffffff1660e01b8152600401610bca9190611b66565b602060405180830381865afa158015610be7573d6000803e3d6000fd5b505050506040513d601f19601f82011682018060405250810190610c0b9190611fe3565b600560008381526020019081526020016000206001018190555060006005600083815260200190815260200160002060020160006101000a81548160ff02191690831515021790555060006005600083815260200190815260200160002060020160016101000a81548160ff02191690831515021790555060016005600083815260200190815260200160002060030160000160006101000a81548160ff021916908315150217905550600160008190555050565b60026000541415610d06576040517f08c379a0000000000000000000000000000000000000000000000000000000008152600401610cfd90611cc6565b60405180910390fd5b6002600081905550600360009054906101000a900473ffffffffffffffffffffffffffffffffffffffff1673ffffffffffffffffffffffffffffffffffffffff163373ffffffffffffffffffffffffffffffffffffffff1614610d9e576040517f08c379a0000000000000000000000000000000000000000000000000000000008152600401610d9590612082565b60405180910390fd5b60006005600083815260200190815260200160002060030160000160006101000a81548160ff02191690831515021790555060016005600083815260200190815260200160002060030160000160016101000a81548160ff021916908315150217905550600160009054906101000a900473ffffffffffffffffffffffffffffffffffffffff1673ffffffffffffffffffffffffffffffffffffffff16634d68282f826040518263ffffffff1660e01b8152600401610e5d9190611b66565b600060405180830381600087803b158015610e7757600080fd5b505af1158015610e8b573d6000803e3d6000fd5b50505050807f02a7d4d9472af7118644884b9a0ee443540c0027e938dd0aa35be8ecbe946c0a60405160405180910390a2600160008190555050565b60026000541415610f0d576040517f08c379a0000000000000000000000000000000000000000000000000000000008152600401610f0490611cc6565b60405180910390fd5b600260008190555060006005600083815260200190815260200160002060010154905060006005600084815260200190815260200160002060000160009054906101000a900473ffffffffffffffffffffffffffffffffffffffff1690508073ffffffffffffffffffffffffffffffffffffffff163373ffffffffffffffffffffffffffffffffffffffff161415610fda576040517f08c379a0000000000000000000000000000000000000000000000000000000008152600401610fd1906120ee565b60405180910390fd5b8134101561101d576040517f08c379a00000000000000000000000000000000000000000000000000000000081526004016110149061215a565b60405180910390fd5b60006005600085815260200190815260200160002060020160006101000a81548160ff02191690831515021790555060006005600085815260200190815260200160002060020160016101000a81548160ff02191690831515021790555060016005600085815260200190815260200160002060030160000160006101000a81548160ff0219169083151502179055508073ffffffffffffffffffffffffffffffffffffffff166108fc349081150290604051600060405180830381858888f193505050501580156110f3573d6000803e3d6000fd5b50600260009054906101000a900473ffffffffffffffffffffffffffffffffffffffff1673ffffffffffffffffffffffffffffffffffffffff166342842e0e8233866040518463ffffffff1660e01b81526004016111539392919061217a565b600060405180830381600087803b15801561116d57600080fd5b505af1158015611181573d6000803e3d6000fd5b5050505034837ff07f7b091257009fe8d145d95c8cb6acf6f80ba31703c72937c0ac36e8382fd560405160405180910390a35050600160008190555050565b60026000541415611206576040517f08c379a00000000000000000000000000000000000000000000000000000000081526004016111fd90611cc6565b60405180910390fd5b6002600081905550600260009054906101000a900473ffffffffffffffffffffffffffffffffffffffff1673ffffffffffffffffffffffffffffffffffffffff16636352211e826040518263ffffffff1660e01b81526004016112699190611b66565b602060405180830381865afa158015611286573d6000803e3d6000fd5b505050506040513d601f19601f820116820180604052508101906112aa9190611ea0565b73ffffffffffffffffffffffffffffffffffffffff163373ffffffffffffffffffffffffffffffffffffffff1614611317576040517f08c379a000000000000000000000000000000000000000000000000000000000815260040161130e906121fd565b60405180910390fd5b600160009054906101000a900473ffffffffffffffffffffffffffffffffffffffff1673ffffffffffffffffffffffffffffffffffffffff1663859b97fe600260009054906101000a900473ffffffffffffffffffffffffffffffffffffffff16836040518363ffffffff1660e01b8152600401611396929190611fa5565b600060405180830381600087803b1580156113b057600080fd5b505af11580156113c4573d6000803e3d6000fd5b5050505060006005600083815260200190815260200160002060020160006101000a81548160ff02191690831515021790555060006005600083815260200190815260200160002060010181905550600160008190555050565b60026000541415611464576040517f08c379a000000000000000000000000000000000000000000000000000000000815260040161145b90611cc6565b60405180910390fd5b6002600081905550600160009054906101000a900473ffffffffffffffffffffffffffffffffffffffff1673ffffffffffffffffffffffffffffffffffffffff1663b8bd1b1d3483336040518463ffffffff1660e01b81526004016114ca92919061221d565b6000604051808303818588803b1580156114e357600080fd5b505af11580156114f7573d6000803e3d6000fd5b5050505050600160008190555050565b6000600454905090565b80600260006101000a81548173ffffffffffffffffffffffffffffffffffffffff021916908373ffffffffffffffffffffffffffffffffffffffff16021790555050565b60056020528060005260406000206000915090508060000160009054906101000a900473ffffffffffffffffffffffffffffffffffffffff16908060010154908060020160009054906101000a900460ff16908060020160019054906101000a900460ff1690806003016040518060400160405290816000820160009054906101000a900460ff161515151581526020016000820160019054906101000a900460ff161515151581525050905085565b6002600054141561164b576040517f08c379a000000000000000000000000000000000000000000000000000000000815260040161164290611cc6565b60405180910390fd5b6002600081905550600260009054906101000a900473ffffffffffffffffffffffffffffffffffffffff1673ffffffffffffffffffffffffffffffffffffffff16636352211e836040518263ffffffff1660e01b81526004016116ae9190611b66565b602060405180830381865afa1580156116cb573d6000803e3d6000fd5b505050506040513d601f19601f820116820180604052508101906116ef9190611ea0565b73ffffffffffffffffffffffffffffffffffffffff163373ffffffffffffffffffffffffffffffffffffffff161461175c576040517f08c379a0000000000000000000000000000000000000000000000000000000008152600401611753906122b8565b60405180910390fd5b600160009054906101000a900473ffffffffffffffffffffffffffffffffffffffff1673ffffffffffffffffffffffffffffffffffffffff1663cbe98dba600260009054906101000a900473ffffffffffffffffffffffffffffffffffffffff1684846040518463ffffffff1660e01b81526004016117dd939291906122d8565b600060405180830381600087803b1580156117f757600080fd5b505af115801561180b573d6000803e3d6000fd5b5050505080600560008481526020019081526020016000206001018190555060016000819055505050565b6002600054141561187c576040517f08c379a000000000000000000000000000000000000000000000000000000000815260040161187390611cc6565b60405180910390fd5b6002600081905550600360009054906101000a900473ffffffffffffffffffffffffffffffffffffffff1673ffffffffffffffffffffffffffffffffffffffff163373ffffffffffffffffffffffffffffffffffffffff16146118de57600080fd5b80600360006101000a81548173ffffffffffffffffffffffffffffffffffffffff021916908373ffffffffffffffffffffffffffffffffffffffff160217905550600160008190555050565b600360009054906101000a900473ffffffffffffffffffffffffffffffffffffffff1673ffffffffffffffffffffffffffffffffffffffff163373ffffffffffffffffffffffffffffffffffffffff16146119ba576040517f08c379a00000000000000000000000000000000000000000000000000000000081526004016119b190612381565b60405180910390fd5b8060048190555050565b600080fd5b600073ffffffffffffffffffffffffffffffffffffffff82169050919050565b60006119f4826119c9565b9050919050565b611a04816119e9565b8114611a0f57600080fd5b50565b600081359050611a21816119fb565b92915050565b6000819050919050565b611a3a81611a27565b8114611a4557600080fd5b50565b600081359050611a5781611a31565b92915050565b60008060008060008060c08789031215611a7a57611a796119c4565b5b6000611a8889828a01611a12565b9650506020611a9989828a01611a48565b9550506040611aaa89828a01611a48565b9450506060611abb89828a01611a48565b9350506080611acc89828a01611a12565b92505060a0611add89828a01611a48565b9150509295509295509295565b60008060408385031215611b0157611b006119c4565b5b6000611b0f85828601611a48565b9250506020611b2085828601611a48565b9150509250929050565b600060208284031215611b4057611b3f6119c4565b5b6000611b4e84828501611a48565b91505092915050565b611b6081611a27565b82525050565b6000602082019050611b7b6000830184611b57565b92915050565b600060208284031215611b9757611b966119c4565b5b6000611ba584828501611a12565b91505092915050565b611bb7816119e9565b82525050565b60008115159050919050565b611bd281611bbd565b82525050565b611be181611bbd565b82525050565b604082016000820151611bfd6000850182611bd8565b506020820151611c106020850182611bd8565b50505050565b600060c082019050611c2b6000830188611bae565b611c386020830187611b57565b611c456040830186611bc9565b611c526060830185611bc9565b611c5f6080830184611be7565b9695505050505050565b600082825260208201905092915050565b7f5265656e7472616e637947756172643a207265656e7472616e742063616c6c00600082015250565b6000611cb0601f83611c69565b9150611cbb82611c7a565b602082019050919050565b60006020820190508181036000830152611cdf81611ca3565b9050919050565b7f4954454d5f414c52454144595f4f4e5f4449524543545f53414c450000000000600082015250565b6000611d1c601b83611c69565b9150611d2782611ce6565b602082019050919050565b60006020820190508181036000830152611d4b81611d0f565b9050919050565b7f41554354494f4e5f414c52454144595f45584953545300000000000000000000600082015250565b6000611d88601683611c69565b9150611d9382611d52565b602082019050919050565b60006020820190508181036000830152611db781611d7b565b9050919050565b7f50524f564944455f4c495354494e475f46454500000000000000000000000000600082015250565b6000611df4601383611c69565b9150611dff82611dbe565b602082019050919050565b60006020820190508181036000830152611e2381611de7565b9050919050565b600060c082019050611e3f6000830189611bae565b611e4c6020830188611b57565b611e596040830187611b57565b611e666060830186611b57565b611e736080830185611bae565b611e8060a0830184611b57565b979650505050505050565b600081519050611e9a816119fb565b92915050565b600060208284031215611eb657611eb56119c4565b5b6000611ec484828501611e8b565b91505092915050565b7f4954454d5f414c52454144595f4f4e5f41554354494f4e000000000000000000600082015250565b6000611f03601783611c69565b9150611f0e82611ecd565b602082019050919050565b60006020820190508181036000830152611f3281611ef6565b9050919050565b7f4f4e4c595f4f574e45525f43414e5f5055545f4954454d535f4f4e5f53414c45600082015250565b6000611f6f602083611c69565b9150611f7a82611f39565b602082019050919050565b60006020820190508181036000830152611f9e81611f62565b9050919050565b6000604082019050611fba6000830185611bae565b611fc76020830184611b57565b9392505050565b600081519050611fdd81611a31565b92915050565b600060208284031215611ff957611ff86119c4565b5b600061200784828501611fce565b91505092915050565b7f4f7264657220636f6d706c7465642072657175697265732061646d696e73206160008201527f7070726f76616c00000000000000000000000000000000000000000000000000602082015250565b600061206c602783611c69565b915061207782612010565b604082019050919050565b6000602082019050818103600083015261209b8161205f565b9050919050565b7f53454c4c45525f43414e4e4f545f425559000000000000000000000000000000600082015250565b60006120d8601183611c69565b91506120e3826120a2565b602082019050919050565b60006020820190508181036000830152612107816120cb565b9050919050565b7f494e53554646494349454e545f45544845525f53454e54000000000000000000600082015250565b6000612144601783611c69565b915061214f8261210e565b602082019050919050565b6000602082019050818103600083015261217381612137565b9050919050565b600060608201905061218f6000830186611bae565b61219c6020830185611bae565b6121a96040830184611b57565b949350505050565b7f4f4e4c595f4f574e45525f43414e5f43414e43454c5f41554354494f4e000000600082015250565b60006121e7601d83611c69565b91506121f2826121b1565b602082019050919050565b60006020820190508181036000830152612216816121da565b9050919050565b60006040820190506122326000830185611b57565b61223f6020830184611bae565b9392505050565b7f4f4e4c595f4f574e45525f43414e5f4348414e47455f524553455256455f505260008201527f4943450000000000000000000000000000000000000000000000000000000000602082015250565b60006122a2602383611c69565b91506122ad82612246565b604082019050919050565b600060208201905081810360008301526122d181612295565b9050919050565b60006060820190506122ed6000830186611bae565b6122fa6020830185611b57565b6123076040830184611b57565b949350505050565b7f4f4e4c595f4f574e45525f43414e5f4348414e47455f4c495354494e475f464560008201527f4500000000000000000000000000000000000000000000000000000000000000602082015250565b600061236b602183611c69565b91506123768261230f565b604082019050919050565b6000602082019050818103600083015261239a8161235e565b905091905056fea2646970667358221220eca66c362bdfc20054783ed70907f76329edd87623c32036b826e24e84e3272d64736f6c634300080a0033",
  "linkReferences": {},
  "deployedLinkReferences": {}
}