{
  "_format": "hh-sol-artifact-1",
  "contractName": "MarketPlace",
  "sourceName": "contracts/marketplace.sol",
  "abi": [
    {
      "inputs": [
        {
          "internalType": "address",
          "name": "_auctionContract",
          "type": "address"
        }
      ],
      "stateMutability": "nonpayable",
      "type": "constructor"
    },
    {
      "anonymous": false,
      "inputs": [
        {
          "indexed": true,
          "internalType": "uint256",
          "name": "tokenId",
          "type": "uint256"
        },
        {
          "indexed": true,
          "internalType": "uint256",
          "name": "price",
          "type": "uint256"
        }
      ],
      "name": "DirectSaleCreated",
      "type": "event"
    },
    {
      "anonymous": false,
      "inputs": [
        {
          "indexed": true,
          "internalType": "uint256",
          "name": "tokenId",
          "type": "uint256"
        },
        {
          "indexed": true,
          "internalType": "uint256",
          "name": "price",
          "type": "uint256"
        }
      ],
      "name": "DirectSaleDone",
      "type": "event"
    },
    {
      "anonymous": false,
      "inputs": [
        {
          "indexed": true,
          "internalType": "uint256",
          "name": "tokenId",
          "type": "uint256"
        }
      ],
      "name": "OrderCompleted",
      "type": "event"
    },
    {
      "anonymous": false,
      "inputs": [
        {
          "indexed": true,
          "internalType": "uint256",
          "name": "tokenId",
          "type": "uint256"
        }
      ],
      "name": "OrderInTransit",
      "type": "event"
    },
    {
      "inputs": [
        {
          "internalType": "uint256",
          "name": "_tokenId",
          "type": "uint256"
        }
      ],
      "name": "cancelAuction",
      "outputs": [],
      "stateMutability": "nonpayable",
      "type": "function"
    },
    {
      "inputs": [
        {
          "internalType": "uint256",
          "name": "_tokenId",
          "type": "uint256"
        },
        {
          "internalType": "uint256",
          "name": "_reservePrice",
          "type": "uint256"
        }
      ],
      "name": "changeReservePrice",
      "outputs": [],
      "stateMutability": "nonpayable",
      "type": "function"
    },
    {
      "inputs": [
        {
          "internalType": "address",
          "name": "_tokenContract",
          "type": "address"
        },
        {
          "internalType": "uint256",
          "name": "_tokenId",
          "type": "uint256"
        },
        {
          "internalType": "uint256",
          "name": "_duration",
          "type": "uint256"
        },
        {
          "internalType": "uint256",
          "name": "_reservePrice",
          "type": "uint256"
        },
        {
          "internalType": "address",
          "name": "_sellerFundsRecipient",
          "type": "address"
        },
        {
          "internalType": "uint256",
          "name": "_startTime",
          "type": "uint256"
        }
      ],
      "name": "createAuction",
      "outputs": [],
      "stateMutability": "payable",
      "type": "function"
    },
    {
      "inputs": [
        {
          "internalType": "uint256",
          "name": "_tokenId",
          "type": "uint256"
        },
        {
          "internalType": "uint256",
          "name": "_reservePrice",
          "type": "uint256"
        }
      ],
      "name": "createDirectSaleItem",
      "outputs": [],
      "stateMutability": "payable",
      "type": "function"
    },
    {
      "inputs": [],
      "name": "getListingFee",
      "outputs": [
        {
          "internalType": "uint256",
          "name": "",
          "type": "uint256"
        }
      ],
      "stateMutability": "view",
      "type": "function"
    },
    {
      "inputs": [
        {
          "internalType": "uint256",
          "name": "_tokenId",
          "type": "uint256"
        }
      ],
      "name": "orderCompleted",
      "outputs": [],
      "stateMutability": "nonpayable",
      "type": "function"
    },
    {
      "inputs": [
        {
          "internalType": "uint256",
          "name": "_tokenId",
          "type": "uint256"
        }
      ],
      "name": "placeBid",
      "outputs": [],
      "stateMutability": "payable",
      "type": "function"
    },
    {
      "inputs": [
        {
          "internalType": "uint256",
          "name": "_tokenId",
          "type": "uint256"
        }
      ],
      "name": "setOrderInTransit",
      "outputs": [],
      "stateMutability": "nonpayable",
      "type": "function"
    },
    {
      "inputs": [
        {
          "internalType": "address",
          "name": "_tokenContract",
          "type": "address"
        }
      ],
      "name": "setTokenContract",
      "outputs": [],
      "stateMutability": "nonpayable",
      "type": "function"
    },
    {
      "inputs": [
        {
          "internalType": "uint256",
          "name": "_tokenId",
          "type": "uint256"
        }
      ],
      "name": "settleAuction",
      "outputs": [],
      "stateMutability": "payable",
      "type": "function"
    },
    {
      "inputs": [
        {
          "internalType": "uint256",
          "name": "_tokenId",
          "type": "uint256"
        }
      ],
      "name": "settleDirectSale",
      "outputs": [],
      "stateMutability": "payable",
      "type": "function"
    },
    {
      "inputs": [
        {
          "internalType": "address",
          "name": "_admin",
          "type": "address"
        }
      ],
      "name": "updateAdmin",
      "outputs": [],
      "stateMutability": "nonpayable",
      "type": "function"
    },
    {
      "inputs": [
        {
          "internalType": "uint256",
          "name": "_listingFee",
          "type": "uint256"
        }
      ],
      "name": "updateListingFee",
      "outputs": [],
      "stateMutability": "nonpayable",
      "type": "function"
    }
  ],
  "bytecode": "0x6080604052670de0b6b3a76400006004553480156200001d57600080fd5b50604051620021083803806200210883398181016040528101906200004391906200013e565b600160008190555080600160006101000a81548173ffffffffffffffffffffffffffffffffffffffff021916908373ffffffffffffffffffffffffffffffffffffffff16021790555033600360006101000a81548173ffffffffffffffffffffffffffffffffffffffff021916908373ffffffffffffffffffffffffffffffffffffffff1602179055505062000170565b600080fd5b600073ffffffffffffffffffffffffffffffffffffffff82169050919050565b60006200010682620000d9565b9050919050565b6200011881620000f9565b81146200012457600080fd5b50565b60008151905062000138816200010d565b92915050565b600060208284031215620001575762000156620000d4565b5b6000620001678482850162000127565b91505092915050565b611f8880620001806000396000f3fe6080604052600436106100c25760003560e01c806396b5a7551161007f578063bbcd5bbe11610059578063bbcd5bbe146101f9578063d9ec787d14610222578063e2f273bd1461024b578063f79d91ae14610274576100c2565b806396b5a755146101895780639979ef45146101b2578063b8fe6abe146101ce576100c2565b806306fdd531146100c75780630acf1ad9146100e357806317a273a21461010c5780632e9936111461012857806364f1df33146101445780636ceae2711461016d575b600080fd5b6100e160048036038101906100dc919061184a565b61029d565b005b3480156100ef57600080fd5b5061010a600480360381019061010591906118d7565b61067d565b005b61012660048036038101906101219190611904565b6107d5565b005b610142600480360381019061013d91906118d7565b610bb0565b005b34801561015057600080fd5b5061016b600480360381019061016691906118d7565b610e00565b005b610187600480360381019061018291906118d7565b610f76565b005b34801561019557600080fd5b506101b060048036038101906101ab91906118d7565b61126f565b005b6101cc60048036038101906101c791906118d7565b6113c4565b005b3480156101da57600080fd5b506101e36114ad565b6040516101f09190611953565b60405180910390f35b34801561020557600080fd5b50610220600480360381019061021b919061196e565b6114b7565b005b34801561022e57600080fd5b5061024960048036038101906102449190611904565b6114fb565b005b34801561025757600080fd5b50610272600480360381019061026d919061196e565b611623565b005b34801561028057600080fd5b5061029b600480360381019061029691906118d7565b611717565b005b600260005414156102e3576040517f08c379a00000000000000000000000000000000000000000000000000000000081526004016102da906119f8565b60405180910390fd5b6002600081905550600015156005600087815260200190815260200160002060020160019054906101000a900460ff16151514610355576040517f08c379a000000000000000000000000000000000000000000000000000000000815260040161034c90611a64565b60405180910390fd5b600115156005600087815260200190815260200160002060020160009054906101000a900460ff16151514156103c0576040517f08c379a00000000000000000000000000000000000000000000000000000000081526004016103b790611ad0565b60405180910390fd5b6004543414610404576040517f08c379a00000000000000000000000000000000000000000000000000000000081526004016103fb90611b3c565b60405180910390fd5b600360009054906101000a900473ffffffffffffffffffffffffffffffffffffffff1673ffffffffffffffffffffffffffffffffffffffff166108fc349081150290604051600060405180830381858888f1935050505015801561046c573d6000803e3d6000fd5b50600160009054906101000a900473ffffffffffffffffffffffffffffffffffffffff1673ffffffffffffffffffffffffffffffffffffffff166306fdd5318787878787876040518763ffffffff1660e01b81526004016104d296959493929190611b6b565b600060405180830381600087803b1580156104ec57600080fd5b505af1158015610500573d6000803e3d6000fd5b50505050600260009054906101000a900473ffffffffffffffffffffffffffffffffffffffff1673ffffffffffffffffffffffffffffffffffffffff16636352211e866040518263ffffffff1660e01b815260040161055f9190611953565b602060405180830381865afa15801561057c573d6000803e3d6000fd5b505050506040513d601f19601f820116820180604052508101906105a09190611be1565b6005600087815260200190815260200160002060000160006101000a81548173ffffffffffffffffffffffffffffffffffffffff021916908373ffffffffffffffffffffffffffffffffffffffff16021790555082600560008781526020019081526020016000206001018190555060016005600087815260200190815260200160002060020160006101000a81548160ff02191690831515021790555060006005600087815260200190815260200160002060020160016101000a81548160ff0219169083151502179055506001600081905550505050505050565b600260005414156106c3576040517f08c379a00000000000000000000000000000000000000000000000000000000081526004016106ba906119f8565b60405180910390fd5b60026000819055506005600082815260200190815260200160002060000160009054906101000a900473ffffffffffffffffffffffffffffffffffffffff1673ffffffffffffffffffffffffffffffffffffffff163373ffffffffffffffffffffffffffffffffffffffff161461073957600080fd5b60006005600083815260200190815260200160002060030160000160006101000a81548160ff02191690831515021790555060016005600083815260200190815260200160002060030160000160016101000a81548160ff021916908315150217905550807f07232afd803c786d2eada771790c0ff2fc5e7221909ae5c06661697d8fd9f8cb60405160405180910390a2600160008190555050565b6002600054141561081b576040517f08c379a0000000000000000000000000000000000000000000000000000000008152600401610812906119f8565b60405180910390fd5b6002600081905550600015156005600084815260200190815260200160002060020160009054906101000a900460ff1615151461088d576040517f08c379a000000000000000000000000000000000000000000000000000000000815260040161088490611c5a565b60405180910390fd5b3373ffffffffffffffffffffffffffffffffffffffff16600260009054906101000a900473ffffffffffffffffffffffffffffffffffffffff1673ffffffffffffffffffffffffffffffffffffffff16636352211e846040518263ffffffff1660e01b81526004016108ff9190611953565b602060405180830381865afa15801561091c573d6000803e3d6000fd5b505050506040513d601f19601f820116820180604052508101906109409190611be1565b73ffffffffffffffffffffffffffffffffffffffff1614610996576040517f08c379a000000000000000000000000000000000000000000000000000000000815260040161098d90611cc6565b60405180910390fd5b60045434146109a457600080fd5b600360009054906101000a900473ffffffffffffffffffffffffffffffffffffffff1673ffffffffffffffffffffffffffffffffffffffff166108fc349081150290604051600060405180830381858888f19350505050158015610a0c573d6000803e3d6000fd5b50600260009054906101000a900473ffffffffffffffffffffffffffffffffffffffff1673ffffffffffffffffffffffffffffffffffffffff16636352211e836040518263ffffffff1660e01b8152600401610a689190611953565b602060405180830381865afa158015610a85573d6000803e3d6000fd5b505050506040513d601f19601f82011682018060405250810190610aa99190611be1565b6005600084815260200190815260200160002060000160006101000a81548173ffffffffffffffffffffffffffffffffffffffff021916908373ffffffffffffffffffffffffffffffffffffffff16021790555080600560008481526020019081526020016000206001018190555060006005600084815260200190815260200160002060020160006101000a81548160ff02191690831515021790555060016005600084815260200190815260200160002060020160016101000a81548160ff02191690831515021790555080827f620e9df2dffe75165edab8da0880bce033fd2b04ce54012be0379a724abb007260405160405180910390a360016000819055505050565b60026000541415610bf6576040517f08c379a0000000000000000000000000000000000000000000000000000000008152600401610bed906119f8565b60405180910390fd5b6002600081905550600160009054906101000a900473ffffffffffffffffffffffffffffffffffffffff1673ffffffffffffffffffffffffffffffffffffffff16635138b08c600260009054906101000a900473ffffffffffffffffffffffffffffffffffffffff16836040518363ffffffff1660e01b8152600401610c7d929190611ce6565b600060405180830381600087803b158015610c9757600080fd5b505af1158015610cab573d6000803e3d6000fd5b50505050600160009054906101000a900473ffffffffffffffffffffffffffffffffffffffff1673ffffffffffffffffffffffffffffffffffffffff16638f288644826040518263ffffffff1660e01b8152600401610d0a9190611953565b602060405180830381865afa158015610d27573d6000803e3d6000fd5b505050506040513d601f19601f82011682018060405250810190610d4b9190611d24565b600560008381526020019081526020016000206001018190555060006005600083815260200190815260200160002060020160006101000a81548160ff02191690831515021790555060006005600083815260200190815260200160002060020160016101000a81548160ff02191690831515021790555060016005600083815260200190815260200160002060030160000160006101000a81548160ff021916908315150217905550600160008190555050565b60026000541415610e46576040517f08c379a0000000000000000000000000000000000000000000000000000000008152600401610e3d906119f8565b60405180910390fd5b6002600081905550600360009054906101000a900473ffffffffffffffffffffffffffffffffffffffff1673ffffffffffffffffffffffffffffffffffffffff163373ffffffffffffffffffffffffffffffffffffffff1614610ea857600080fd5b60006005600083815260200190815260200160002060030160000160006101000a81548160ff02191690831515021790555060006005600083815260200190815260200160002060030160000160016101000a81548160ff02191690831515021790555060016005600083815260200190815260200160002060030160000160026101000a81548160ff021916908315150217905550807f02a7d4d9472af7118644884b9a0ee443540c0027e938dd0aa35be8ecbe946c0a60405160405180910390a2600160008190555050565b60026000541415610fbc576040517f08c379a0000000000000000000000000000000000000000000000000000000008152600401610fb3906119f8565b60405180910390fd5b600260008190555060006005600083815260200190815260200160002060010154905060006005600084815260200190815260200160002060000160009054906101000a900473ffffffffffffffffffffffffffffffffffffffff1690508073ffffffffffffffffffffffffffffffffffffffff163373ffffffffffffffffffffffffffffffffffffffff161415611089576040517f08c379a000000000000000000000000000000000000000000000000000000000815260040161108090611d9d565b60405180910390fd5b813410156110cc576040517f08c379a00000000000000000000000000000000000000000000000000000000081526004016110c390611e09565b60405180910390fd5b60006005600085815260200190815260200160002060020160006101000a81548160ff02191690831515021790555060006005600085815260200190815260200160002060020160016101000a81548160ff02191690831515021790555060016005600085815260200190815260200160002060030160000160006101000a81548160ff0219169083151502179055508073ffffffffffffffffffffffffffffffffffffffff166108fc349081150290604051600060405180830381858888f193505050501580156111a2573d6000803e3d6000fd5b50600260009054906101000a900473ffffffffffffffffffffffffffffffffffffffff1673ffffffffffffffffffffffffffffffffffffffff166342842e0e8233866040518463ffffffff1660e01b815260040161120293929190611e29565b600060405180830381600087803b15801561121c57600080fd5b505af1158015611230573d6000803e3d6000fd5b5050505034837ff07f7b091257009fe8d145d95c8cb6acf6f80ba31703c72937c0ac36e8382fd560405160405180910390a35050600160008190555050565b600260005414156112b5576040517f08c379a00000000000000000000000000000000000000000000000000000000081526004016112ac906119f8565b60405180910390fd5b6002600081905550600160009054906101000a900473ffffffffffffffffffffffffffffffffffffffff1673ffffffffffffffffffffffffffffffffffffffff1663859b97fe600260009054906101000a900473ffffffffffffffffffffffffffffffffffffffff16836040518363ffffffff1660e01b815260040161133c929190611ce6565b600060405180830381600087803b15801561135657600080fd5b505af115801561136a573d6000803e3d6000fd5b5050505060006005600083815260200190815260200160002060020160006101000a81548160ff02191690831515021790555060006005600083815260200190815260200160002060010181905550600160008190555050565b6002600054141561140a576040517f08c379a0000000000000000000000000000000000000000000000000000000008152600401611401906119f8565b60405180910390fd5b6002600081905550600160009054906101000a900473ffffffffffffffffffffffffffffffffffffffff1673ffffffffffffffffffffffffffffffffffffffff1663b8bd1b1d3483336040518463ffffffff1660e01b8152600401611470929190611e60565b6000604051808303818588803b15801561148957600080fd5b505af115801561149d573d6000803e3d6000fd5b5050505050600160008190555050565b6000600454905090565b80600260006101000a81548173ffffffffffffffffffffffffffffffffffffffff021916908373ffffffffffffffffffffffffffffffffffffffff16021790555050565b60026000541415611541576040517f08c379a0000000000000000000000000000000000000000000000000000000008152600401611538906119f8565b60405180910390fd5b6002600081905550600160009054906101000a900473ffffffffffffffffffffffffffffffffffffffff1673ffffffffffffffffffffffffffffffffffffffff1663cbe98dba600260009054906101000a900473ffffffffffffffffffffffffffffffffffffffff1684846040518463ffffffff1660e01b81526004016115ca93929190611e89565b600060405180830381600087803b1580156115e457600080fd5b505af11580156115f8573d6000803e3d6000fd5b5050505080600560008481526020019081526020016000206001018190555060016000819055505050565b60026000541415611669576040517f08c379a0000000000000000000000000000000000000000000000000000000008152600401611660906119f8565b60405180910390fd5b6002600081905550600360009054906101000a900473ffffffffffffffffffffffffffffffffffffffff1673ffffffffffffffffffffffffffffffffffffffff163373ffffffffffffffffffffffffffffffffffffffff16146116cb57600080fd5b80600360006101000a81548173ffffffffffffffffffffffffffffffffffffffff021916908373ffffffffffffffffffffffffffffffffffffffff160217905550600160008190555050565b600360009054906101000a900473ffffffffffffffffffffffffffffffffffffffff1673ffffffffffffffffffffffffffffffffffffffff163373ffffffffffffffffffffffffffffffffffffffff16146117a7576040517f08c379a000000000000000000000000000000000000000000000000000000000815260040161179e90611f32565b60405180910390fd5b8060048190555050565b600080fd5b600073ffffffffffffffffffffffffffffffffffffffff82169050919050565b60006117e1826117b6565b9050919050565b6117f1816117d6565b81146117fc57600080fd5b50565b60008135905061180e816117e8565b92915050565b6000819050919050565b61182781611814565b811461183257600080fd5b50565b6000813590506118448161181e565b92915050565b60008060008060008060c08789031215611867576118666117b1565b5b600061187589828a016117ff565b965050602061188689828a01611835565b955050604061189789828a01611835565b94505060606118a889828a01611835565b93505060806118b989828a016117ff565b92505060a06118ca89828a01611835565b9150509295509295509295565b6000602082840312156118ed576118ec6117b1565b5b60006118fb84828501611835565b91505092915050565b6000806040838503121561191b5761191a6117b1565b5b600061192985828601611835565b925050602061193a85828601611835565b9150509250929050565b61194d81611814565b82525050565b60006020820190506119686000830184611944565b92915050565b600060208284031215611984576119836117b1565b5b6000611992848285016117ff565b91505092915050565b600082825260208201905092915050565b7f5265656e7472616e637947756172643a207265656e7472616e742063616c6c00600082015250565b60006119e2601f8361199b565b91506119ed826119ac565b602082019050919050565b60006020820190508181036000830152611a11816119d5565b9050919050565b7f4954454d5f414c52454144595f4f4e5f4449524543545f53414c450000000000600082015250565b6000611a4e601b8361199b565b9150611a5982611a18565b602082019050919050565b60006020820190508181036000830152611a7d81611a41565b9050919050565b7f41554354494f4e5f414c52454144595f45584953545300000000000000000000600082015250565b6000611aba60168361199b565b9150611ac582611a84565b602082019050919050565b60006020820190508181036000830152611ae981611aad565b9050919050565b7f50524f564944455f4c495354494e475f46454500000000000000000000000000600082015250565b6000611b2660138361199b565b9150611b3182611af0565b602082019050919050565b60006020820190508181036000830152611b5581611b19565b9050919050565b611b65816117d6565b82525050565b600060c082019050611b806000830189611b5c565b611b8d6020830188611944565b611b9a6040830187611944565b611ba76060830186611944565b611bb46080830185611b5c565b611bc160a0830184611944565b979650505050505050565b600081519050611bdb816117e8565b92915050565b600060208284031215611bf757611bf66117b1565b5b6000611c0584828501611bcc565b91505092915050565b7f4954454d5f414c52454144595f4f4e5f41554354494f4e000000000000000000600082015250565b6000611c4460178361199b565b9150611c4f82611c0e565b602082019050919050565b60006020820190508181036000830152611c7381611c37565b9050919050565b7f4f4e4c595f4f574e45525f43414e5f5055545f4954454d535f4f4e5f53414c45600082015250565b6000611cb060208361199b565b9150611cbb82611c7a565b602082019050919050565b60006020820190508181036000830152611cdf81611ca3565b9050919050565b6000604082019050611cfb6000830185611b5c565b611d086020830184611944565b9392505050565b600081519050611d1e8161181e565b92915050565b600060208284031215611d3a57611d396117b1565b5b6000611d4884828501611d0f565b91505092915050565b7f53454c4c45525f43414e4e4f545f425559000000000000000000000000000000600082015250565b6000611d8760118361199b565b9150611d9282611d51565b602082019050919050565b60006020820190508181036000830152611db681611d7a565b9050919050565b7f494e53554646494349454e545f45544845525f53454e54000000000000000000600082015250565b6000611df360178361199b565b9150611dfe82611dbd565b602082019050919050565b60006020820190508181036000830152611e2281611de6565b9050919050565b6000606082019050611e3e6000830186611b5c565b611e4b6020830185611b5c565b611e586040830184611944565b949350505050565b6000604082019050611e756000830185611944565b611e826020830184611b5c565b9392505050565b6000606082019050611e9e6000830186611b5c565b611eab6020830185611944565b611eb86040830184611944565b949350505050565b7f4f4e4c595f4f574e45525f43414e5f4348414e47455f4c495354494e475f464560008201527f4500000000000000000000000000000000000000000000000000000000000000602082015250565b6000611f1c60218361199b565b9150611f2782611ec0565b604082019050919050565b60006020820190508181036000830152611f4b81611f0f565b905091905056fea2646970667358221220fed686e3da47503c70234faa92adf721dfce392a759b299ce9291d6cb1c87ba264736f6c634300080a0033",
  "linkReferences": {},
  "deployedLinkReferences": {}
}