{
  "_format": "hh-sol-artifact-1",
  "contractName": "ReserveAuction",
  "sourceName": "contracts/Auction.sol",
  "abi": [
    {
      "anonymous": false,
      "inputs": [
        {
          "indexed": true,
          "internalType": "uint256",
          "name": "tokenId",
          "type": "uint256"
        },
        {
          "components": [
            {
              "internalType": "address",
              "name": "seller",
              "type": "address"
            },
            {
              "internalType": "uint96",
              "name": "reservePrice",
              "type": "uint96"
            },
            {
              "internalType": "address",
              "name": "sellerFundsRecipient",
              "type": "address"
            },
            {
              "internalType": "uint96",
              "name": "highestBid",
              "type": "uint96"
            },
            {
              "internalType": "address",
              "name": "highestBidder",
              "type": "address"
            },
            {
              "internalType": "uint32",
              "name": "duration",
              "type": "uint32"
            },
            {
              "internalType": "uint32",
              "name": "startTime",
              "type": "uint32"
            },
            {
              "internalType": "uint32",
              "name": "firstBidTime",
              "type": "uint32"
            }
          ],
          "indexed": false,
          "internalType": "struct ReserveAuction.Auction",
          "name": "auction",
          "type": "tuple"
        }
      ],
      "name": "AuctionBid",
      "type": "event"
    },
    {
      "anonymous": false,
      "inputs": [
        {
          "indexed": true,
          "internalType": "uint256",
          "name": "tokenId",
          "type": "uint256"
        },
        {
          "components": [
            {
              "internalType": "address",
              "name": "seller",
              "type": "address"
            },
            {
              "internalType": "uint96",
              "name": "reservePrice",
              "type": "uint96"
            },
            {
              "internalType": "address",
              "name": "sellerFundsRecipient",
              "type": "address"
            },
            {
              "internalType": "uint96",
              "name": "highestBid",
              "type": "uint96"
            },
            {
              "internalType": "address",
              "name": "highestBidder",
              "type": "address"
            },
            {
              "internalType": "uint32",
              "name": "duration",
              "type": "uint32"
            },
            {
              "internalType": "uint32",
              "name": "startTime",
              "type": "uint32"
            },
            {
              "internalType": "uint32",
              "name": "firstBidTime",
              "type": "uint32"
            }
          ],
          "indexed": false,
          "internalType": "struct ReserveAuction.Auction",
          "name": "auction",
          "type": "tuple"
        }
      ],
      "name": "AuctionCanceled",
      "type": "event"
    },
    {
      "anonymous": false,
      "inputs": [
        {
          "indexed": true,
          "internalType": "uint256",
          "name": "tokenId",
          "type": "uint256"
        },
        {
          "components": [
            {
              "internalType": "address",
              "name": "seller",
              "type": "address"
            },
            {
              "internalType": "uint96",
              "name": "reservePrice",
              "type": "uint96"
            },
            {
              "internalType": "address",
              "name": "sellerFundsRecipient",
              "type": "address"
            },
            {
              "internalType": "uint96",
              "name": "highestBid",
              "type": "uint96"
            },
            {
              "internalType": "address",
              "name": "highestBidder",
              "type": "address"
            },
            {
              "internalType": "uint32",
              "name": "duration",
              "type": "uint32"
            },
            {
              "internalType": "uint32",
              "name": "startTime",
              "type": "uint32"
            },
            {
              "internalType": "uint32",
              "name": "firstBidTime",
              "type": "uint32"
            }
          ],
          "indexed": false,
          "internalType": "struct ReserveAuction.Auction",
          "name": "auction",
          "type": "tuple"
        }
      ],
      "name": "AuctionCreated",
      "type": "event"
    },
    {
      "anonymous": false,
      "inputs": [
        {
          "indexed": true,
          "internalType": "uint256",
          "name": "tokenId",
          "type": "uint256"
        },
        {
          "components": [
            {
              "internalType": "address",
              "name": "seller",
              "type": "address"
            },
            {
              "internalType": "uint96",
              "name": "reservePrice",
              "type": "uint96"
            },
            {
              "internalType": "address",
              "name": "sellerFundsRecipient",
              "type": "address"
            },
            {
              "internalType": "uint96",
              "name": "highestBid",
              "type": "uint96"
            },
            {
              "internalType": "address",
              "name": "highestBidder",
              "type": "address"
            },
            {
              "internalType": "uint32",
              "name": "duration",
              "type": "uint32"
            },
            {
              "internalType": "uint32",
              "name": "startTime",
              "type": "uint32"
            },
            {
              "internalType": "uint32",
              "name": "firstBidTime",
              "type": "uint32"
            }
          ],
          "indexed": false,
          "internalType": "struct ReserveAuction.Auction",
          "name": "auction",
          "type": "tuple"
        }
      ],
      "name": "AuctionEnded",
      "type": "event"
    },
    {
      "anonymous": false,
      "inputs": [
        {
          "indexed": true,
          "internalType": "uint256",
          "name": "tokenId",
          "type": "uint256"
        },
        {
          "components": [
            {
              "internalType": "address",
              "name": "seller",
              "type": "address"
            },
            {
              "internalType": "uint96",
              "name": "reservePrice",
              "type": "uint96"
            },
            {
              "internalType": "address",
              "name": "sellerFundsRecipient",
              "type": "address"
            },
            {
              "internalType": "uint96",
              "name": "highestBid",
              "type": "uint96"
            },
            {
              "internalType": "address",
              "name": "highestBidder",
              "type": "address"
            },
            {
              "internalType": "uint32",
              "name": "duration",
              "type": "uint32"
            },
            {
              "internalType": "uint32",
              "name": "startTime",
              "type": "uint32"
            },
            {
              "internalType": "uint32",
              "name": "firstBidTime",
              "type": "uint32"
            }
          ],
          "indexed": false,
          "internalType": "struct ReserveAuction.Auction",
          "name": "auction",
          "type": "tuple"
        }
      ],
      "name": "AuctionReservePriceUpdated",
      "type": "event"
    },
    {
      "inputs": [
        {
          "internalType": "uint256",
          "name": "",
          "type": "uint256"
        }
      ],
      "name": "auctionForNFT",
      "outputs": [
        {
          "internalType": "address",
          "name": "seller",
          "type": "address"
        },
        {
          "internalType": "uint96",
          "name": "reservePrice",
          "type": "uint96"
        },
        {
          "internalType": "address",
          "name": "sellerFundsRecipient",
          "type": "address"
        },
        {
          "internalType": "uint96",
          "name": "highestBid",
          "type": "uint96"
        },
        {
          "internalType": "address",
          "name": "highestBidder",
          "type": "address"
        },
        {
          "internalType": "uint32",
          "name": "duration",
          "type": "uint32"
        },
        {
          "internalType": "uint32",
          "name": "startTime",
          "type": "uint32"
        },
        {
          "internalType": "uint32",
          "name": "firstBidTime",
          "type": "uint32"
        }
      ],
      "stateMutability": "view",
      "type": "function"
    },
    {
      "inputs": [
        {
          "internalType": "address",
          "name": "_tokenContract",
          "type": "address"
        },
        {
          "internalType": "uint256",
          "name": "_tokenId",
          "type": "uint256"
        }
      ],
      "name": "cancelAuction",
      "outputs": [],
      "stateMutability": "nonpayable",
      "type": "function"
    },
    {
      "inputs": [
        {
          "internalType": "address",
          "name": "_tokenContract",
          "type": "address"
        },
        {
          "internalType": "uint256",
          "name": "_tokenId",
          "type": "uint256"
        },
        {
          "internalType": "uint256",
          "name": "_duration",
          "type": "uint256"
        },
        {
          "internalType": "uint256",
          "name": "_reservePrice",
          "type": "uint256"
        },
        {
          "internalType": "address",
          "name": "_sellerFundsRecipient",
          "type": "address"
        },
        {
          "internalType": "uint256",
          "name": "_startTime",
          "type": "uint256"
        }
      ],
      "name": "createAuction",
      "outputs": [],
      "stateMutability": "nonpayable",
      "type": "function"
    },
    {
      "inputs": [
        {
          "internalType": "uint256",
          "name": "_tokenId",
          "type": "uint256"
        },
        {
          "internalType": "address",
          "name": "bidder",
          "type": "address"
        }
      ],
      "name": "createBid",
      "outputs": [],
      "stateMutability": "payable",
      "type": "function"
    },
    {
      "inputs": [
        {
          "internalType": "uint256",
          "name": "_tokenId",
          "type": "uint256"
        }
      ],
      "name": "getHighestBid",
      "outputs": [
        {
          "internalType": "uint256",
          "name": "",
          "type": "uint256"
        }
      ],
      "stateMutability": "view",
      "type": "function"
    },
    {
      "inputs": [
        {
          "internalType": "uint256",
          "name": "_tokenId",
          "type": "uint256"
        }
      ],
      "name": "getHighestBidder",
      "outputs": [
        {
          "internalType": "address",
          "name": "",
          "type": "address"
        }
      ],
      "stateMutability": "view",
      "type": "function"
    },
    {
      "inputs": [
        {
          "internalType": "uint256",
          "name": "_tokenId",
          "type": "uint256"
        }
      ],
      "name": "releaseFunds",
      "outputs": [],
      "stateMutability": "nonpayable",
      "type": "function"
    },
    {
      "inputs": [
        {
          "internalType": "address",
          "name": "_tokenContract",
          "type": "address"
        },
        {
          "internalType": "uint256",
          "name": "_tokenId",
          "type": "uint256"
        },
        {
          "internalType": "uint256",
          "name": "_reservePrice",
          "type": "uint256"
        }
      ],
      "name": "setAuctionReservePrice",
      "outputs": [],
      "stateMutability": "nonpayable",
      "type": "function"
    },
    {
      "inputs": [
        {
          "internalType": "address",
          "name": "_tokenContract",
          "type": "address"
        },
        {
          "internalType": "uint256",
          "name": "_tokenId",
          "type": "uint256"
        }
      ],
      "name": "settleAuction",
      "outputs": [],
      "stateMutability": "payable",
      "type": "function"
    }
  ],
  "bytecode": "0x608060405234801561001057600080fd5b50612a58806100206000396000f3fe6080604052600436106100865760003560e01c8063859b97fe11610059578063859b97fe1461013d5780638f28864414610166578063b8bd1b1d146101a3578063c750cb79146101bf578063cbe98dba146101fc57610086565b806306fdd5311461008b5780633711feea146100b45780634d68282f146100f85780635138b08c14610121575b600080fd5b34801561009757600080fd5b506100b260048036038101906100ad9190611c6e565b610225565b005b3480156100c057600080fd5b506100db60048036038101906100d69190611cfb565b6105aa565b6040516100ef989796959493929190611d7d565b60405180910390f35b34801561010457600080fd5b5061011f600480360381019061011a9190611cfb565b6106b2565b005b61013b60048036038101906101369190611dfb565b610a32565b005b34801561014957600080fd5b50610164600480360381019061015f9190611dfb565b610e89565b005b34801561017257600080fd5b5061018d60048036038101906101889190611cfb565b6113dc565b60405161019a9190611e4a565b60405180910390f35b6101bd60048036038101906101b89190611e65565b611421565b005b3480156101cb57600080fd5b506101e660048036038101906101e19190611cfb565b61188d565b6040516101f39190611ea5565b60405180910390f35b34801561020857600080fd5b50610223600480360381019061021e9190611ec0565b6118cc565b005b60008673ffffffffffffffffffffffffffffffffffffffff16636352211e876040518263ffffffff1660e01b81526004016102609190611e4a565b602060405180830381865afa15801561027d573d6000803e3d6000fd5b505050506040513d601f19601f820116820180604052508101906102a19190611f28565b90508073ffffffffffffffffffffffffffffffffffffffff163373ffffffffffffffffffffffffffffffffffffffff16148061035557508673ffffffffffffffffffffffffffffffffffffffff1663e985e9c582336040518363ffffffff1660e01b8152600401610313929190611f55565b602060405180830381865afa158015610330573d6000803e3d6000fd5b505050506040513d601f19601f820116820180604052508101906103549190611fb6565b5b610394576040517f08c379a000000000000000000000000000000000000000000000000000000000815260040161038b90612040565b60405180910390fd5b600073ffffffffffffffffffffffffffffffffffffffff168373ffffffffffffffffffffffffffffffffffffffff161415610404576040517f08c379a00000000000000000000000000000000000000000000000000000000081526004016103fb906120ac565b60405180910390fd5b8060008088815260200190815260200160002060000160006101000a81548173ffffffffffffffffffffffffffffffffffffffff021916908373ffffffffffffffffffffffffffffffffffffffff1602179055508360008088815260200190815260200160002060000160146101000a8154816bffffffffffffffffffffffff02191690836bffffffffffffffffffffffff1602179055508260008088815260200190815260200160002060010160006101000a81548173ffffffffffffffffffffffffffffffffffffffff021916908373ffffffffffffffffffffffffffffffffffffffff1602179055508460008088815260200190815260200160002060020160146101000a81548163ffffffff021916908363ffffffff1602179055508160008088815260200190815260200160002060020160186101000a81548163ffffffff021916908363ffffffff160217905550857f6a089a08a20902894b7cc734f1de1a7a38505dd46c51f76abb45db8f8fbb4e8e60008089815260200190815260200160002060405161059991906122d0565b60405180910390a250505050505050565b60006020528060005260406000206000915090508060000160009054906101000a900473ffffffffffffffffffffffffffffffffffffffff16908060000160149054906101000a90046bffffffffffffffffffffffff16908060010160009054906101000a900473ffffffffffffffffffffffffffffffffffffffff16908060010160149054906101000a90046bffffffffffffffffffffffff16908060020160009054906101000a900473ffffffffffffffffffffffffffffffffffffffff16908060020160149054906101000a900463ffffffff16908060020160189054906101000a900463ffffffff169080600201601c9054906101000a900463ffffffff16905088565b6000806000838152602001908152602001600020604051806101000160405290816000820160009054906101000a900473ffffffffffffffffffffffffffffffffffffffff1673ffffffffffffffffffffffffffffffffffffffff1673ffffffffffffffffffffffffffffffffffffffff1681526020016000820160149054906101000a90046bffffffffffffffffffffffff166bffffffffffffffffffffffff166bffffffffffffffffffffffff1681526020016001820160009054906101000a900473ffffffffffffffffffffffffffffffffffffffff1673ffffffffffffffffffffffffffffffffffffffff1673ffffffffffffffffffffffffffffffffffffffff1681526020016001820160149054906101000a90046bffffffffffffffffffffffff166bffffffffffffffffffffffff166bffffffffffffffffffffffff1681526020016002820160009054906101000a900473ffffffffffffffffffffffffffffffffffffffff1673ffffffffffffffffffffffffffffffffffffffff1673ffffffffffffffffffffffffffffffffffffffff1681526020016002820160149054906101000a900463ffffffff1663ffffffff1663ffffffff1681526020016002820160189054906101000a900463ffffffff1663ffffffff1663ffffffff16815260200160028201601c9054906101000a900463ffffffff1663ffffffff1663ffffffff16815250509050806040015173ffffffffffffffffffffffffffffffffffffffff166108fc82606001516bffffffffffffffffffffffff169081150290604051600060405180830381858888f19350505050158015610920573d6000803e3d6000fd5b50600080838152602001908152602001600020600080820160006101000a81549073ffffffffffffffffffffffffffffffffffffffff02191690556000820160146101000a8154906bffffffffffffffffffffffff02191690556001820160006101000a81549073ffffffffffffffffffffffffffffffffffffffff02191690556001820160146101000a8154906bffffffffffffffffffffffff02191690556002820160006101000a81549073ffffffffffffffffffffffffffffffffffffffff02191690556002820160146101000a81549063ffffffff02191690556002820160186101000a81549063ffffffff021916905560028201601c6101000a81549063ffffffff021916905550505050565b6000806000838152602001908152602001600020604051806101000160405290816000820160009054906101000a900473ffffffffffffffffffffffffffffffffffffffff1673ffffffffffffffffffffffffffffffffffffffff1673ffffffffffffffffffffffffffffffffffffffff1681526020016000820160149054906101000a90046bffffffffffffffffffffffff166bffffffffffffffffffffffff166bffffffffffffffffffffffff1681526020016001820160009054906101000a900473ffffffffffffffffffffffffffffffffffffffff1673ffffffffffffffffffffffffffffffffffffffff1673ffffffffffffffffffffffffffffffffffffffff1681526020016001820160149054906101000a90046bffffffffffffffffffffffff166bffffffffffffffffffffffff166bffffffffffffffffffffffff1681526020016002820160009054906101000a900473ffffffffffffffffffffffffffffffffffffffff1673ffffffffffffffffffffffffffffffffffffffff1673ffffffffffffffffffffffffffffffffffffffff1681526020016002820160149054906101000a900463ffffffff1663ffffffff1663ffffffff1681526020016002820160189054906101000a900463ffffffff1663ffffffff1663ffffffff16815260200160028201601c9054906101000a900463ffffffff1663ffffffff1663ffffffff1681525050905060008160000151905060008260e0015163ffffffff1690506000811415610d7a57600080858152602001908152602001600020600080820160006101000a81549073ffffffffffffffffffffffffffffffffffffffff02191690556000820160146101000a8154906bffffffffffffffffffffffff02191690556001820160006101000a81549073ffffffffffffffffffffffffffffffffffffffff02191690556001820160146101000a8154906bffffffffffffffffffffffff02191690556002820160006101000a81549073ffffffffffffffffffffffffffffffffffffffff02191690556002820160146101000a81549063ffffffff02191690556002820160186101000a81549063ffffffff021916905560028201601c6101000a81549063ffffffff02191690555050505050610e85565b8260a001518360c00151610d8e919061231b565b63ffffffff16421015610dd6576040517f08c379a0000000000000000000000000000000000000000000000000000000008152600401610dcd906123a1565b60405180910390fd5b8473ffffffffffffffffffffffffffffffffffffffff166342842e0e838560800151876040518463ffffffff1660e01b8152600401610e17939291906123c1565b600060405180830381600087803b158015610e3157600080fd5b505af1158015610e45573d6000803e3d6000fd5b50505050837f5aae309f85505a0d47c96ffc0dc6f2853816dde6c87c1abee2a48fca8171606484604051610e79919061249a565b60405180910390a25050505b5050565b6000806000838152602001908152602001600020604051806101000160405290816000820160009054906101000a900473ffffffffffffffffffffffffffffffffffffffff1673ffffffffffffffffffffffffffffffffffffffff1673ffffffffffffffffffffffffffffffffffffffff1681526020016000820160149054906101000a90046bffffffffffffffffffffffff166bffffffffffffffffffffffff166bffffffffffffffffffffffff1681526020016001820160009054906101000a900473ffffffffffffffffffffffffffffffffffffffff1673ffffffffffffffffffffffffffffffffffffffff1673ffffffffffffffffffffffffffffffffffffffff1681526020016001820160149054906101000a90046bffffffffffffffffffffffff166bffffffffffffffffffffffff166bffffffffffffffffffffffff1681526020016002820160009054906101000a900473ffffffffffffffffffffffffffffffffffffffff1673ffffffffffffffffffffffffffffffffffffffff1673ffffffffffffffffffffffffffffffffffffffff1681526020016002820160149054906101000a900463ffffffff1663ffffffff1663ffffffff1681526020016002820160189054906101000a900463ffffffff1663ffffffff1663ffffffff16815260200160028201601c9054906101000a900463ffffffff1663ffffffff1663ffffffff16815250509050428160c0015163ffffffff1611156110e8576040517f08c379a00000000000000000000000000000000000000000000000000000000081526004016110df90612502565b60405180910390fd5b60008373ffffffffffffffffffffffffffffffffffffffff16636352211e846040518263ffffffff1660e01b81526004016111239190611e4a565b602060405180830381865afa158015611140573d6000803e3d6000fd5b505050506040513d601f19601f820116820180604052508101906111649190611f28565b9050816000015173ffffffffffffffffffffffffffffffffffffffff163373ffffffffffffffffffffffffffffffffffffffff1614806111cf57508073ffffffffffffffffffffffffffffffffffffffff163373ffffffffffffffffffffffffffffffffffffffff16145b8061125257508373ffffffffffffffffffffffffffffffffffffffff1663e985e9c582336040518363ffffffff1660e01b8152600401611210929190611f55565b602060405180830381865afa15801561122d573d6000803e3d6000fd5b505050506040513d601f19601f820116820180604052508101906112519190611fb6565b5b611291576040517f08c379a00000000000000000000000000000000000000000000000000000000081526004016112889061256e565b60405180910390fd5b827f8d46afa6878b3a5de32c4339629e7557ba7c8b3d96c9ef44108d3e03bea941ed836040516112c1919061249a565b60405180910390a2600080848152602001908152602001600020600080820160006101000a81549073ffffffffffffffffffffffffffffffffffffffff02191690556000820160146101000a8154906bffffffffffffffffffffffff02191690556001820160006101000a81549073ffffffffffffffffffffffffffffffffffffffff02191690556001820160146101000a8154906bffffffffffffffffffffffff02191690556002820160006101000a81549073ffffffffffffffffffffffffffffffffffffffff02191690556002820160146101000a81549063ffffffff02191690556002820160186101000a81549063ffffffff021916905560028201601c6101000a81549063ffffffff0219169055505050505050565b600080600083815260200190815260200160002060010160149054906101000a90046bffffffffffffffffffffffff166bffffffffffffffffffffffff169050919050565b6000806000848152602001908152602001600020905060008160000160009054906101000a900473ffffffffffffffffffffffffffffffffffffffff1690508073ffffffffffffffffffffffffffffffffffffffff168373ffffffffffffffffffffffffffffffffffffffff16141561149957600080fd5b600073ffffffffffffffffffffffffffffffffffffffff168173ffffffffffffffffffffffffffffffffffffffff161415611509576040517f08c379a0000000000000000000000000000000000000000000000000000000008152600401611500906125da565b60405180910390fd5b8160020160189054906101000a900463ffffffff1663ffffffff16421015611566576040517f08c379a000000000000000000000000000000000000000000000000000000000815260040161155d90612646565b60405180910390fd5b600082600201601c9054906101000a900463ffffffff1663ffffffff16905060008360020160149054906101000a900463ffffffff1663ffffffff16905060008460020160189054906101000a900463ffffffff1663ffffffff16905081816115cf9190612666565b4210611610576040517f08c379a000000000000000000000000000000000000000000000000000000000815260040161160790612708565b60405180910390fd5b60008314156116ae578460000160149054906101000a90046bffffffffffffffffffffffff166bffffffffffffffffffffffff16341015611686576040517f08c379a000000000000000000000000000000000000000000000000000000000815260040161167d90612774565b60405180910390fd5b4285600201601c6101000a81548163ffffffff021916908363ffffffff1602179055506117d6565b60008560010160149054906101000a90046bffffffffffffffffffffffff166bffffffffffffffffffffffff16905060006064600a60ff168302816116f6576116f5612794565b5b04820190508034101561173e576040517f08c379a00000000000000000000000000000000000000000000000000000000081526004016117359061280f565b60405180910390fd5b8660020160009054906101000a900473ffffffffffffffffffffffffffffffffffffffff1673ffffffffffffffffffffffffffffffffffffffff166108fc8860010160149054906101000a90046bffffffffffffffffffffffff166bffffffffffffffffffffffff169081150290604051600060405180830381858888f193505050501580156117d2573d6000803e3d6000fd5b5050505b348560010160146101000a8154816bffffffffffffffffffffffff02191690836bffffffffffffffffffffffff160217905550858560020160006101000a81548173ffffffffffffffffffffffffffffffffffffffff021916908373ffffffffffffffffffffffffffffffffffffffff160217905550867f5d220526908882854ccc92ba08763bb56e1363d2ad01dd69cfcda398c460ce798660405161187c9190612908565b60405180910390a250505050505050565b600080600083815260200190815260200160002060020160009054906101000a900473ffffffffffffffffffffffffffffffffffffffff169050919050565b60008373ffffffffffffffffffffffffffffffffffffffff16636352211e846040518263ffffffff1660e01b81526004016119079190611e4a565b602060405180830381865afa158015611924573d6000803e3d6000fd5b505050506040513d601f19601f820116820180604052508101906119489190611f28565b9050600080600085815260200190815260200160002090508060000160009054906101000a900473ffffffffffffffffffffffffffffffffffffffff1673ffffffffffffffffffffffffffffffffffffffff168273ffffffffffffffffffffffffffffffffffffffff161480611a3657508473ffffffffffffffffffffffffffffffffffffffff1663e985e9c583336040518363ffffffff1660e01b81526004016119f4929190611f55565b602060405180830381865afa158015611a11573d6000803e3d6000fd5b505050506040513d601f19601f82011682018060405250810190611a359190611fb6565b5b611a75576040517f08c379a0000000000000000000000000000000000000000000000000000000008152600401611a6c90612996565b60405180910390fd5b428160020160189054906101000a900463ffffffff1663ffffffff1610611ad1576040517f08c379a0000000000000000000000000000000000000000000000000000000008152600401611ac890612502565b60405180910390fd5b8060000160009054906101000a900473ffffffffffffffffffffffffffffffffffffffff1673ffffffffffffffffffffffffffffffffffffffff163373ffffffffffffffffffffffffffffffffffffffff1614611b63576040517f08c379a0000000000000000000000000000000000000000000000000000000008152600401611b5a90612a02565b60405180910390fd5b828160000160146101000a8154816bffffffffffffffffffffffff02191690836bffffffffffffffffffffffff160217905550837ff5dc4e03ca6f8c57fa1651a0b30dbd1965dd12e28c38dcaf3b485b1d262b5b6e82604051611bc69190612908565b60405180910390a25050505050565b600080fd5b600073ffffffffffffffffffffffffffffffffffffffff82169050919050565b6000611c0582611bda565b9050919050565b611c1581611bfa565b8114611c2057600080fd5b50565b600081359050611c3281611c0c565b92915050565b6000819050919050565b611c4b81611c38565b8114611c5657600080fd5b50565b600081359050611c6881611c42565b92915050565b60008060008060008060c08789031215611c8b57611c8a611bd5565b5b6000611c9989828a01611c23565b9650506020611caa89828a01611c59565b9550506040611cbb89828a01611c59565b9450506060611ccc89828a01611c59565b9350506080611cdd89828a01611c23565b92505060a0611cee89828a01611c59565b9150509295509295509295565b600060208284031215611d1157611d10611bd5565b5b6000611d1f84828501611c59565b91505092915050565b611d3181611bfa565b82525050565b60006bffffffffffffffffffffffff82169050919050565b611d5881611d37565b82525050565b600063ffffffff82169050919050565b611d7781611d5e565b82525050565b600061010082019050611d93600083018b611d28565b611da0602083018a611d4f565b611dad6040830189611d28565b611dba6060830188611d4f565b611dc76080830187611d28565b611dd460a0830186611d6e565b611de160c0830185611d6e565b611dee60e0830184611d6e565b9998505050505050505050565b60008060408385031215611e1257611e11611bd5565b5b6000611e2085828601611c23565b9250506020611e3185828601611c59565b9150509250929050565b611e4481611c38565b82525050565b6000602082019050611e5f6000830184611e3b565b92915050565b60008060408385031215611e7c57611e7b611bd5565b5b6000611e8a85828601611c59565b9250506020611e9b85828601611c23565b9150509250929050565b6000602082019050611eba6000830184611d28565b92915050565b600080600060608486031215611ed957611ed8611bd5565b5b6000611ee786828701611c23565b9350506020611ef886828701611c59565b9250506040611f0986828701611c59565b9150509250925092565b600081519050611f2281611c0c565b92915050565b600060208284031215611f3e57611f3d611bd5565b5b6000611f4c84828501611f13565b91505092915050565b6000604082019050611f6a6000830185611d28565b611f776020830184611d28565b9392505050565b60008115159050919050565b611f9381611f7e565b8114611f9e57600080fd5b50565b600081519050611fb081611f8a565b92915050565b600060208284031215611fcc57611fcb611bd5565b5b6000611fda84828501611fa1565b91505092915050565b600082825260208201905092915050565b7f4f4e4c595f544f4b454e5f4f574e45525f4f525f4f50455241544f5200000000600082015250565b600061202a601c83611fe3565b915061203582611ff4565b602082019050919050565b600060208201905081810360008301526120598161201d565b9050919050565b7f494e56414c49445f46554e44535f524543495049454e54000000000000000000600082015250565b6000612096601783611fe3565b91506120a182612060565b602082019050919050565b600060208201905081810360008301526120c581612089565b9050919050565b60008160001c9050919050565b600073ffffffffffffffffffffffffffffffffffffffff82169050919050565b600061210c612107836120cc565b6120d9565b9050919050565b61211c81611bfa565b82525050565b60008160a01c9050919050565b60006bffffffffffffffffffffffff82169050919050565b600061215a61215583612122565b61212f565b9050919050565b61216a81611d37565b82525050565b600063ffffffff82169050919050565b600061219361218e83612122565b612170565b9050919050565b6121a381611d5e565b82525050565b60008160c01c9050919050565b60006121c96121c4836121a9565b612170565b9050919050565b60008160e01c9050919050565b60006121f06121eb836121d0565b612170565b9050919050565b6101008201600080830154905061220d816120f9565b61221a6000860182612113565b5061222481612147565b6122316020860182612161565b5060018301549050612242816120f9565b61224f6040860182612113565b5061225981612147565b6122666060860182612161565b5060028301549050612277816120f9565b6122846080860182612113565b5061228e81612180565b61229b60a086018261219a565b506122a5816121b6565b6122b260c086018261219a565b506122bc816121dd565b6122c960e086018261219a565b5050505050565b6000610100820190506122e660008301846121f7565b92915050565b7f4e487b7100000000000000000000000000000000000000000000000000000000600052601160045260246000fd5b600061232682611d5e565b915061233183611d5e565b92508263ffffffff0382111561234a576123496122ec565b5b828201905092915050565b7f41554354494f4e5f4e4f545f4f56455200000000000000000000000000000000600082015250565b600061238b601083611fe3565b915061239682612355565b602082019050919050565b600060208201905081810360008301526123ba8161237e565b9050919050565b60006060820190506123d66000830186611d28565b6123e36020830185611d28565b6123f06040830184611e3b565b949350505050565b6101008201600082015161240f6000850182612113565b5060208201516124226020850182612161565b5060408201516124356040850182612113565b5060608201516124486060850182612161565b50608082015161245b6080850182612113565b5060a082015161246e60a085018261219a565b5060c082015161248160c085018261219a565b5060e082015161249460e085018261219a565b50505050565b6000610100820190506124b060008301846123f8565b92915050565b7f41554354494f4e5f535441525445440000000000000000000000000000000000600082015250565b60006124ec600f83611fe3565b91506124f7826124b6565b602082019050919050565b6000602082019050818103600083015261251b816124df565b9050919050565b7f4f4e4c595f53454c4c45525f4f525f544f4b454e5f4f574e4552000000000000600082015250565b6000612558601a83611fe3565b915061256382612522565b602082019050919050565b600060208201905081810360008301526125878161254b565b9050919050565b7f41554354494f4e5f444f45535f4e4f545f455849535400000000000000000000600082015250565b60006125c4601683611fe3565b91506125cf8261258e565b602082019050919050565b600060208201905081810360008301526125f3816125b7565b9050919050565b7f41554354494f4e5f4e4f545f5354415254454400000000000000000000000000600082015250565b6000612630601383611fe3565b915061263b826125fa565b602082019050919050565b6000602082019050818103600083015261265f81612623565b9050919050565b600061267182611c38565b915061267c83611c38565b9250827fffffffffffffffffffffffffffffffffffffffffffffffffffffffffffffffff038211156126b1576126b06122ec565b5b828201905092915050565b7f41554354494f4e5f4f5645520000000000000000000000000000000000000000600082015250565b60006126f2600c83611fe3565b91506126fd826126bc565b602082019050919050565b60006020820190508181036000830152612721816126e5565b9050919050565b7f524553455256455f50524943455f4e4f545f4d45540000000000000000000000600082015250565b600061275e601583611fe3565b915061276982612728565b602082019050919050565b6000602082019050818103600083015261278d81612751565b9050919050565b7f4e487b7100000000000000000000000000000000000000000000000000000000600052601260045260246000fd5b7f4d494e494d554d5f4249445f4e4f545f4d455400000000000000000000000000600082015250565b60006127f9601383611fe3565b9150612804826127c3565b602082019050919050565b60006020820190508181036000830152612828816127ec565b9050919050565b61010082016000808301549050612845816120f9565b6128526000860182612113565b5061285c81612147565b6128696020860182612161565b506001830154905061287a816120f9565b6128876040860182612113565b5061289181612147565b61289e6060860182612161565b50600283015490506128af816120f9565b6128bc6080860182612113565b506128c681612180565b6128d360a086018261219a565b506128dd816121b6565b6128ea60c086018261219a565b506128f4816121dd565b61290160e086018261219a565b5050505050565b60006101008201905061291e600083018461282f565b92915050565b7f4f4e4c595f4f574e45525f43414e5f494e4352454153455f524553455256454460008201527f5f50524943450000000000000000000000000000000000000000000000000000602082015250565b6000612980602683611fe3565b915061298b82612924565b604082019050919050565b600060208201905081810360008301526129af81612973565b9050919050565b7f4f4e4c595f53454c4c4552000000000000000000000000000000000000000000600082015250565b60006129ec600b83611fe3565b91506129f7826129b6565b602082019050919050565b60006020820190508181036000830152612a1b816129df565b905091905056fea2646970667358221220619bca3cb2abd05b76aa0644ef64b5ff3b0c228aeafd3a2e21a72648566df52c64736f6c634300080a0033",
  "linkReferences": {},
  "deployedLinkReferences": {}
}