{
  "_format": "hh-sol-artifact-1",
  "contractName": "ReserveAuction",
  "sourceName": "contracts/Auction.sol",
  "abi": [
    {
      "anonymous": false,
      "inputs": [
        {
          "indexed": true,
          "internalType": "uint256",
          "name": "tokenId",
          "type": "uint256"
        },
        {
          "components": [
            {
              "internalType": "address",
              "name": "seller",
              "type": "address"
            },
            {
              "internalType": "uint96",
              "name": "reservePrice",
              "type": "uint96"
            },
            {
              "internalType": "address",
              "name": "sellerFundsRecipient",
              "type": "address"
            },
            {
              "internalType": "uint96",
              "name": "highestBid",
              "type": "uint96"
            },
            {
              "internalType": "address",
              "name": "highestBidder",
              "type": "address"
            },
            {
              "internalType": "uint32",
              "name": "duration",
              "type": "uint32"
            },
            {
              "internalType": "uint32",
              "name": "startTime",
              "type": "uint32"
            },
            {
              "internalType": "uint32",
              "name": "firstBidTime",
              "type": "uint32"
            }
          ],
          "indexed": false,
          "internalType": "struct ReserveAuction.Auction",
          "name": "auction",
          "type": "tuple"
        }
      ],
      "name": "AuctionBid",
      "type": "event"
    },
    {
      "anonymous": false,
      "inputs": [
        {
          "indexed": true,
          "internalType": "uint256",
          "name": "tokenId",
          "type": "uint256"
        },
        {
          "components": [
            {
              "internalType": "address",
              "name": "seller",
              "type": "address"
            },
            {
              "internalType": "uint96",
              "name": "reservePrice",
              "type": "uint96"
            },
            {
              "internalType": "address",
              "name": "sellerFundsRecipient",
              "type": "address"
            },
            {
              "internalType": "uint96",
              "name": "highestBid",
              "type": "uint96"
            },
            {
              "internalType": "address",
              "name": "highestBidder",
              "type": "address"
            },
            {
              "internalType": "uint32",
              "name": "duration",
              "type": "uint32"
            },
            {
              "internalType": "uint32",
              "name": "startTime",
              "type": "uint32"
            },
            {
              "internalType": "uint32",
              "name": "firstBidTime",
              "type": "uint32"
            }
          ],
          "indexed": false,
          "internalType": "struct ReserveAuction.Auction",
          "name": "auction",
          "type": "tuple"
        }
      ],
      "name": "AuctionCanceled",
      "type": "event"
    },
    {
      "anonymous": false,
      "inputs": [
        {
          "indexed": true,
          "internalType": "uint256",
          "name": "tokenId",
          "type": "uint256"
        },
        {
          "components": [
            {
              "internalType": "address",
              "name": "seller",
              "type": "address"
            },
            {
              "internalType": "uint96",
              "name": "reservePrice",
              "type": "uint96"
            },
            {
              "internalType": "address",
              "name": "sellerFundsRecipient",
              "type": "address"
            },
            {
              "internalType": "uint96",
              "name": "highestBid",
              "type": "uint96"
            },
            {
              "internalType": "address",
              "name": "highestBidder",
              "type": "address"
            },
            {
              "internalType": "uint32",
              "name": "duration",
              "type": "uint32"
            },
            {
              "internalType": "uint32",
              "name": "startTime",
              "type": "uint32"
            },
            {
              "internalType": "uint32",
              "name": "firstBidTime",
              "type": "uint32"
            }
          ],
          "indexed": false,
          "internalType": "struct ReserveAuction.Auction",
          "name": "auction",
          "type": "tuple"
        }
      ],
      "name": "AuctionCreated",
      "type": "event"
    },
    {
      "anonymous": false,
      "inputs": [
        {
          "indexed": true,
          "internalType": "uint256",
          "name": "tokenId",
          "type": "uint256"
        },
        {
          "components": [
            {
              "internalType": "address",
              "name": "seller",
              "type": "address"
            },
            {
              "internalType": "uint96",
              "name": "reservePrice",
              "type": "uint96"
            },
            {
              "internalType": "address",
              "name": "sellerFundsRecipient",
              "type": "address"
            },
            {
              "internalType": "uint96",
              "name": "highestBid",
              "type": "uint96"
            },
            {
              "internalType": "address",
              "name": "highestBidder",
              "type": "address"
            },
            {
              "internalType": "uint32",
              "name": "duration",
              "type": "uint32"
            },
            {
              "internalType": "uint32",
              "name": "startTime",
              "type": "uint32"
            },
            {
              "internalType": "uint32",
              "name": "firstBidTime",
              "type": "uint32"
            }
          ],
          "indexed": false,
          "internalType": "struct ReserveAuction.Auction",
          "name": "auction",
          "type": "tuple"
        }
      ],
      "name": "AuctionEnded",
      "type": "event"
    },
    {
      "anonymous": false,
      "inputs": [
        {
          "indexed": true,
          "internalType": "uint256",
          "name": "tokenId",
          "type": "uint256"
        },
        {
          "components": [
            {
              "internalType": "address",
              "name": "seller",
              "type": "address"
            },
            {
              "internalType": "uint96",
              "name": "reservePrice",
              "type": "uint96"
            },
            {
              "internalType": "address",
              "name": "sellerFundsRecipient",
              "type": "address"
            },
            {
              "internalType": "uint96",
              "name": "highestBid",
              "type": "uint96"
            },
            {
              "internalType": "address",
              "name": "highestBidder",
              "type": "address"
            },
            {
              "internalType": "uint32",
              "name": "duration",
              "type": "uint32"
            },
            {
              "internalType": "uint32",
              "name": "startTime",
              "type": "uint32"
            },
            {
              "internalType": "uint32",
              "name": "firstBidTime",
              "type": "uint32"
            }
          ],
          "indexed": false,
          "internalType": "struct ReserveAuction.Auction",
          "name": "auction",
          "type": "tuple"
        }
      ],
      "name": "AuctionReservePriceUpdated",
      "type": "event"
    },
    {
      "inputs": [
        {
          "internalType": "uint256",
          "name": "",
          "type": "uint256"
        }
      ],
      "name": "auctionForNFT",
      "outputs": [
        {
          "internalType": "address",
          "name": "seller",
          "type": "address"
        },
        {
          "internalType": "uint96",
          "name": "reservePrice",
          "type": "uint96"
        },
        {
          "internalType": "address",
          "name": "sellerFundsRecipient",
          "type": "address"
        },
        {
          "internalType": "uint96",
          "name": "highestBid",
          "type": "uint96"
        },
        {
          "internalType": "address",
          "name": "highestBidder",
          "type": "address"
        },
        {
          "internalType": "uint32",
          "name": "duration",
          "type": "uint32"
        },
        {
          "internalType": "uint32",
          "name": "startTime",
          "type": "uint32"
        },
        {
          "internalType": "uint32",
          "name": "firstBidTime",
          "type": "uint32"
        }
      ],
      "stateMutability": "view",
      "type": "function"
    },
    {
      "inputs": [
        {
          "internalType": "address",
          "name": "_tokenContract",
          "type": "address"
        },
        {
          "internalType": "uint256",
          "name": "_tokenId",
          "type": "uint256"
        }
      ],
      "name": "cancelAuction",
      "outputs": [],
      "stateMutability": "nonpayable",
      "type": "function"
    },
    {
      "inputs": [
        {
          "internalType": "address",
          "name": "_tokenContract",
          "type": "address"
        },
        {
          "internalType": "uint256",
          "name": "_tokenId",
          "type": "uint256"
        },
        {
          "internalType": "uint256",
          "name": "_duration",
          "type": "uint256"
        },
        {
          "internalType": "uint256",
          "name": "_reservePrice",
          "type": "uint256"
        },
        {
          "internalType": "address",
          "name": "_sellerFundsRecipient",
          "type": "address"
        },
        {
          "internalType": "uint256",
          "name": "_startTime",
          "type": "uint256"
        }
      ],
      "name": "createAuction",
      "outputs": [],
      "stateMutability": "nonpayable",
      "type": "function"
    },
    {
      "inputs": [
        {
          "internalType": "uint256",
          "name": "_tokenId",
          "type": "uint256"
        },
        {
          "internalType": "address",
          "name": "bidder",
          "type": "address"
        }
      ],
      "name": "createBid",
      "outputs": [],
      "stateMutability": "payable",
      "type": "function"
    },
    {
      "inputs": [
        {
          "internalType": "uint256",
          "name": "_tokenId",
          "type": "uint256"
        }
      ],
      "name": "getHighestBid",
      "outputs": [
        {
          "internalType": "uint256",
          "name": "",
          "type": "uint256"
        }
      ],
      "stateMutability": "view",
      "type": "function"
    },
    {
      "inputs": [
        {
          "internalType": "uint256",
          "name": "_tokenId",
          "type": "uint256"
        }
      ],
      "name": "getHighestBidder",
      "outputs": [
        {
          "internalType": "address",
          "name": "",
          "type": "address"
        }
      ],
      "stateMutability": "view",
      "type": "function"
    },
    {
      "inputs": [
        {
          "internalType": "address",
          "name": "_tokenContract",
          "type": "address"
        },
        {
          "internalType": "uint256",
          "name": "_tokenId",
          "type": "uint256"
        },
        {
          "internalType": "uint256",
          "name": "_reservePrice",
          "type": "uint256"
        }
      ],
      "name": "setAuctionReservePrice",
      "outputs": [],
      "stateMutability": "nonpayable",
      "type": "function"
    },
    {
      "inputs": [
        {
          "internalType": "address",
          "name": "_tokenContract",
          "type": "address"
        },
        {
          "internalType": "uint256",
          "name": "_tokenId",
          "type": "uint256"
        }
      ],
      "name": "settleAuction",
      "outputs": [],
      "stateMutability": "payable",
      "type": "function"
    }
  ],
  "bytecode": "0x608060405234801561001057600080fd5b5061280e806100206000396000f3fe60806040526004361061007b5760003560e01c80638f2886441161004e5780638f28864414610132578063b8bd1b1d1461016f578063c750cb791461018b578063cbe98dba146101c85761007b565b806306fdd531146100805780633711feea146100a95780635138b08c146100ed578063859b97fe14610109575b600080fd5b34801561008c57600080fd5b506100a760048036038101906100a29190611a24565b6101f1565b005b3480156100b557600080fd5b506100d060048036038101906100cb9190611ab1565b610576565b6040516100e4989796959493929190611b33565b60405180910390f35b61010760048036038101906101029190611bb1565b61067e565b005b34801561011557600080fd5b50610130600480360381019061012b9190611bb1565b610c3f565b005b34801561013e57600080fd5b5061015960048036038101906101549190611ab1565b611192565b6040516101669190611c00565b60405180910390f35b61018960048036038101906101849190611c1b565b6111d7565b005b34801561019757600080fd5b506101b260048036038101906101ad9190611ab1565b611643565b6040516101bf9190611c5b565b60405180910390f35b3480156101d457600080fd5b506101ef60048036038101906101ea9190611c76565b611682565b005b60008673ffffffffffffffffffffffffffffffffffffffff16636352211e876040518263ffffffff1660e01b815260040161022c9190611c00565b602060405180830381865afa158015610249573d6000803e3d6000fd5b505050506040513d601f19601f8201168201806040525081019061026d9190611cde565b90508073ffffffffffffffffffffffffffffffffffffffff163373ffffffffffffffffffffffffffffffffffffffff16148061032157508673ffffffffffffffffffffffffffffffffffffffff1663e985e9c582336040518363ffffffff1660e01b81526004016102df929190611d0b565b602060405180830381865afa1580156102fc573d6000803e3d6000fd5b505050506040513d601f19601f820116820180604052508101906103209190611d6c565b5b610360576040517f08c379a000000000000000000000000000000000000000000000000000000000815260040161035790611df6565b60405180910390fd5b600073ffffffffffffffffffffffffffffffffffffffff168373ffffffffffffffffffffffffffffffffffffffff1614156103d0576040517f08c379a00000000000000000000000000000000000000000000000000000000081526004016103c790611e62565b60405180910390fd5b8060008088815260200190815260200160002060000160006101000a81548173ffffffffffffffffffffffffffffffffffffffff021916908373ffffffffffffffffffffffffffffffffffffffff1602179055508360008088815260200190815260200160002060000160146101000a8154816bffffffffffffffffffffffff02191690836bffffffffffffffffffffffff1602179055508260008088815260200190815260200160002060010160006101000a81548173ffffffffffffffffffffffffffffffffffffffff021916908373ffffffffffffffffffffffffffffffffffffffff1602179055508460008088815260200190815260200160002060020160146101000a81548163ffffffff021916908363ffffffff1602179055508160008088815260200190815260200160002060020160186101000a81548163ffffffff021916908363ffffffff160217905550857f6a089a08a20902894b7cc734f1de1a7a38505dd46c51f76abb45db8f8fbb4e8e6000808981526020019081526020016000206040516105659190612086565b60405180910390a250505050505050565b60006020528060005260406000206000915090508060000160009054906101000a900473ffffffffffffffffffffffffffffffffffffffff16908060000160149054906101000a90046bffffffffffffffffffffffff16908060010160009054906101000a900473ffffffffffffffffffffffffffffffffffffffff16908060010160149054906101000a90046bffffffffffffffffffffffff16908060020160009054906101000a900473ffffffffffffffffffffffffffffffffffffffff16908060020160149054906101000a900463ffffffff16908060020160189054906101000a900463ffffffff169080600201601c9054906101000a900463ffffffff16905088565b6000806000838152602001908152602001600020604051806101000160405290816000820160009054906101000a900473ffffffffffffffffffffffffffffffffffffffff1673ffffffffffffffffffffffffffffffffffffffff1673ffffffffffffffffffffffffffffffffffffffff1681526020016000820160149054906101000a90046bffffffffffffffffffffffff166bffffffffffffffffffffffff166bffffffffffffffffffffffff1681526020016001820160009054906101000a900473ffffffffffffffffffffffffffffffffffffffff1673ffffffffffffffffffffffffffffffffffffffff1673ffffffffffffffffffffffffffffffffffffffff1681526020016001820160149054906101000a90046bffffffffffffffffffffffff166bffffffffffffffffffffffff166bffffffffffffffffffffffff1681526020016002820160009054906101000a900473ffffffffffffffffffffffffffffffffffffffff1673ffffffffffffffffffffffffffffffffffffffff1673ffffffffffffffffffffffffffffffffffffffff1681526020016002820160149054906101000a900463ffffffff1663ffffffff1663ffffffff1681526020016002820160189054906101000a900463ffffffff1663ffffffff1663ffffffff16815260200160028201601c9054906101000a900463ffffffff1663ffffffff1663ffffffff1681525050905060008160000151905060008260e0015163ffffffff16905060008114156109c657600080858152602001908152602001600020600080820160006101000a81549073ffffffffffffffffffffffffffffffffffffffff02191690556000820160146101000a8154906bffffffffffffffffffffffff02191690556001820160006101000a81549073ffffffffffffffffffffffffffffffffffffffff02191690556001820160146101000a8154906bffffffffffffffffffffffff02191690556002820160006101000a81549073ffffffffffffffffffffffffffffffffffffffff02191690556002820160146101000a81549063ffffffff02191690556002820160186101000a81549063ffffffff021916905560028201601c6101000a81549063ffffffff02191690555050505050610c3b565b8260a001518360c001516109da91906120d1565b63ffffffff16421015610a22576040517f08c379a0000000000000000000000000000000000000000000000000000000008152600401610a1990612157565b60405180910390fd5b8473ffffffffffffffffffffffffffffffffffffffff166342842e0e838560800151876040518463ffffffff1660e01b8152600401610a6393929190612177565b600060405180830381600087803b158015610a7d57600080fd5b505af1158015610a91573d6000803e3d6000fd5b50505050826040015173ffffffffffffffffffffffffffffffffffffffff166108fc84606001516bffffffffffffffffffffffff169081150290604051600060405180830381858888f19350505050158015610af1573d6000803e3d6000fd5b50837f5aae309f85505a0d47c96ffc0dc6f2853816dde6c87c1abee2a48fca8171606484604051610b229190612250565b60405180910390a2600080858152602001908152602001600020600080820160006101000a81549073ffffffffffffffffffffffffffffffffffffffff02191690556000820160146101000a8154906bffffffffffffffffffffffff02191690556001820160006101000a81549073ffffffffffffffffffffffffffffffffffffffff02191690556001820160146101000a8154906bffffffffffffffffffffffff02191690556002820160006101000a81549073ffffffffffffffffffffffffffffffffffffffff02191690556002820160146101000a81549063ffffffff02191690556002820160186101000a81549063ffffffff021916905560028201601c6101000a81549063ffffffff021916905550505050505b5050565b6000806000838152602001908152602001600020604051806101000160405290816000820160009054906101000a900473ffffffffffffffffffffffffffffffffffffffff1673ffffffffffffffffffffffffffffffffffffffff1673ffffffffffffffffffffffffffffffffffffffff1681526020016000820160149054906101000a90046bffffffffffffffffffffffff166bffffffffffffffffffffffff166bffffffffffffffffffffffff1681526020016001820160009054906101000a900473ffffffffffffffffffffffffffffffffffffffff1673ffffffffffffffffffffffffffffffffffffffff1673ffffffffffffffffffffffffffffffffffffffff1681526020016001820160149054906101000a90046bffffffffffffffffffffffff166bffffffffffffffffffffffff166bffffffffffffffffffffffff1681526020016002820160009054906101000a900473ffffffffffffffffffffffffffffffffffffffff1673ffffffffffffffffffffffffffffffffffffffff1673ffffffffffffffffffffffffffffffffffffffff1681526020016002820160149054906101000a900463ffffffff1663ffffffff1663ffffffff1681526020016002820160189054906101000a900463ffffffff1663ffffffff1663ffffffff16815260200160028201601c9054906101000a900463ffffffff1663ffffffff1663ffffffff16815250509050428160c0015163ffffffff161115610e9e576040517f08c379a0000000000000000000000000000000000000000000000000000000008152600401610e95906122b8565b60405180910390fd5b60008373ffffffffffffffffffffffffffffffffffffffff16636352211e846040518263ffffffff1660e01b8152600401610ed99190611c00565b602060405180830381865afa158015610ef6573d6000803e3d6000fd5b505050506040513d601f19601f82011682018060405250810190610f1a9190611cde565b9050816000015173ffffffffffffffffffffffffffffffffffffffff163373ffffffffffffffffffffffffffffffffffffffff161480610f8557508073ffffffffffffffffffffffffffffffffffffffff163373ffffffffffffffffffffffffffffffffffffffff16145b8061100857508373ffffffffffffffffffffffffffffffffffffffff1663e985e9c582336040518363ffffffff1660e01b8152600401610fc6929190611d0b565b602060405180830381865afa158015610fe3573d6000803e3d6000fd5b505050506040513d601f19601f820116820180604052508101906110079190611d6c565b5b611047576040517f08c379a000000000000000000000000000000000000000000000000000000000815260040161103e90612324565b60405180910390fd5b827f8d46afa6878b3a5de32c4339629e7557ba7c8b3d96c9ef44108d3e03bea941ed836040516110779190612250565b60405180910390a2600080848152602001908152602001600020600080820160006101000a81549073ffffffffffffffffffffffffffffffffffffffff02191690556000820160146101000a8154906bffffffffffffffffffffffff02191690556001820160006101000a81549073ffffffffffffffffffffffffffffffffffffffff02191690556001820160146101000a8154906bffffffffffffffffffffffff02191690556002820160006101000a81549073ffffffffffffffffffffffffffffffffffffffff02191690556002820160146101000a81549063ffffffff02191690556002820160186101000a81549063ffffffff021916905560028201601c6101000a81549063ffffffff0219169055505050505050565b600080600083815260200190815260200160002060010160149054906101000a90046bffffffffffffffffffffffff166bffffffffffffffffffffffff169050919050565b6000806000848152602001908152602001600020905060008160000160009054906101000a900473ffffffffffffffffffffffffffffffffffffffff1690508073ffffffffffffffffffffffffffffffffffffffff168373ffffffffffffffffffffffffffffffffffffffff16141561124f57600080fd5b600073ffffffffffffffffffffffffffffffffffffffff168173ffffffffffffffffffffffffffffffffffffffff1614156112bf576040517f08c379a00000000000000000000000000000000000000000000000000000000081526004016112b690612390565b60405180910390fd5b8160020160189054906101000a900463ffffffff1663ffffffff1642101561131c576040517f08c379a0000000000000000000000000000000000000000000000000000000008152600401611313906123fc565b60405180910390fd5b600082600201601c9054906101000a900463ffffffff1663ffffffff16905060008360020160149054906101000a900463ffffffff1663ffffffff16905060008460020160189054906101000a900463ffffffff1663ffffffff1690508181611385919061241c565b42106113c6576040517f08c379a00000000000000000000000000000000000000000000000000000000081526004016113bd906124be565b60405180910390fd5b6000831415611464578460000160149054906101000a90046bffffffffffffffffffffffff166bffffffffffffffffffffffff1634101561143c576040517f08c379a00000000000000000000000000000000000000000000000000000000081526004016114339061252a565b60405180910390fd5b4285600201601c6101000a81548163ffffffff021916908363ffffffff16021790555061158c565b60008560010160149054906101000a90046bffffffffffffffffffffffff166bffffffffffffffffffffffff16905060006064600a60ff168302816114ac576114ab61254a565b5b0482019050803410156114f4576040517f08c379a00000000000000000000000000000000000000000000000000000000081526004016114eb906125c5565b60405180910390fd5b8660020160009054906101000a900473ffffffffffffffffffffffffffffffffffffffff1673ffffffffffffffffffffffffffffffffffffffff166108fc8860010160149054906101000a90046bffffffffffffffffffffffff166bffffffffffffffffffffffff169081150290604051600060405180830381858888f19350505050158015611588573d6000803e3d6000fd5b5050505b348560010160146101000a8154816bffffffffffffffffffffffff02191690836bffffffffffffffffffffffff160217905550858560020160006101000a81548173ffffffffffffffffffffffffffffffffffffffff021916908373ffffffffffffffffffffffffffffffffffffffff160217905550867f5d220526908882854ccc92ba08763bb56e1363d2ad01dd69cfcda398c460ce798660405161163291906126be565b60405180910390a250505050505050565b600080600083815260200190815260200160002060020160009054906101000a900473ffffffffffffffffffffffffffffffffffffffff169050919050565b60008373ffffffffffffffffffffffffffffffffffffffff16636352211e846040518263ffffffff1660e01b81526004016116bd9190611c00565b602060405180830381865afa1580156116da573d6000803e3d6000fd5b505050506040513d601f19601f820116820180604052508101906116fe9190611cde565b9050600080600085815260200190815260200160002090508060000160009054906101000a900473ffffffffffffffffffffffffffffffffffffffff1673ffffffffffffffffffffffffffffffffffffffff168273ffffffffffffffffffffffffffffffffffffffff1614806117ec57508473ffffffffffffffffffffffffffffffffffffffff1663e985e9c583336040518363ffffffff1660e01b81526004016117aa929190611d0b565b602060405180830381865afa1580156117c7573d6000803e3d6000fd5b505050506040513d601f19601f820116820180604052508101906117eb9190611d6c565b5b61182b576040517f08c379a00000000000000000000000000000000000000000000000000000000081526004016118229061274c565b60405180910390fd5b428160020160189054906101000a900463ffffffff1663ffffffff1610611887576040517f08c379a000000000000000000000000000000000000000000000000000000000815260040161187e906122b8565b60405180910390fd5b8060000160009054906101000a900473ffffffffffffffffffffffffffffffffffffffff1673ffffffffffffffffffffffffffffffffffffffff163373ffffffffffffffffffffffffffffffffffffffff1614611919576040517f08c379a0000000000000000000000000000000000000000000000000000000008152600401611910906127b8565b60405180910390fd5b828160000160146101000a8154816bffffffffffffffffffffffff02191690836bffffffffffffffffffffffff160217905550837ff5dc4e03ca6f8c57fa1651a0b30dbd1965dd12e28c38dcaf3b485b1d262b5b6e8260405161197c91906126be565b60405180910390a25050505050565b600080fd5b600073ffffffffffffffffffffffffffffffffffffffff82169050919050565b60006119bb82611990565b9050919050565b6119cb816119b0565b81146119d657600080fd5b50565b6000813590506119e8816119c2565b92915050565b6000819050919050565b611a01816119ee565b8114611a0c57600080fd5b50565b600081359050611a1e816119f8565b92915050565b60008060008060008060c08789031215611a4157611a4061198b565b5b6000611a4f89828a016119d9565b9650506020611a6089828a01611a0f565b9550506040611a7189828a01611a0f565b9450506060611a8289828a01611a0f565b9350506080611a9389828a016119d9565b92505060a0611aa489828a01611a0f565b9150509295509295509295565b600060208284031215611ac757611ac661198b565b5b6000611ad584828501611a0f565b91505092915050565b611ae7816119b0565b82525050565b60006bffffffffffffffffffffffff82169050919050565b611b0e81611aed565b82525050565b600063ffffffff82169050919050565b611b2d81611b14565b82525050565b600061010082019050611b49600083018b611ade565b611b56602083018a611b05565b611b636040830189611ade565b611b706060830188611b05565b611b7d6080830187611ade565b611b8a60a0830186611b24565b611b9760c0830185611b24565b611ba460e0830184611b24565b9998505050505050505050565b60008060408385031215611bc857611bc761198b565b5b6000611bd6858286016119d9565b9250506020611be785828601611a0f565b9150509250929050565b611bfa816119ee565b82525050565b6000602082019050611c156000830184611bf1565b92915050565b60008060408385031215611c3257611c3161198b565b5b6000611c4085828601611a0f565b9250506020611c51858286016119d9565b9150509250929050565b6000602082019050611c706000830184611ade565b92915050565b600080600060608486031215611c8f57611c8e61198b565b5b6000611c9d868287016119d9565b9350506020611cae86828701611a0f565b9250506040611cbf86828701611a0f565b9150509250925092565b600081519050611cd8816119c2565b92915050565b600060208284031215611cf457611cf361198b565b5b6000611d0284828501611cc9565b91505092915050565b6000604082019050611d206000830185611ade565b611d2d6020830184611ade565b9392505050565b60008115159050919050565b611d4981611d34565b8114611d5457600080fd5b50565b600081519050611d6681611d40565b92915050565b600060208284031215611d8257611d8161198b565b5b6000611d9084828501611d57565b91505092915050565b600082825260208201905092915050565b7f4f4e4c595f544f4b454e5f4f574e45525f4f525f4f50455241544f5200000000600082015250565b6000611de0601c83611d99565b9150611deb82611daa565b602082019050919050565b60006020820190508181036000830152611e0f81611dd3565b9050919050565b7f494e56414c49445f46554e44535f524543495049454e54000000000000000000600082015250565b6000611e4c601783611d99565b9150611e5782611e16565b602082019050919050565b60006020820190508181036000830152611e7b81611e3f565b9050919050565b60008160001c9050919050565b600073ffffffffffffffffffffffffffffffffffffffff82169050919050565b6000611ec2611ebd83611e82565b611e8f565b9050919050565b611ed2816119b0565b82525050565b60008160a01c9050919050565b60006bffffffffffffffffffffffff82169050919050565b6000611f10611f0b83611ed8565b611ee5565b9050919050565b611f2081611aed565b82525050565b600063ffffffff82169050919050565b6000611f49611f4483611ed8565b611f26565b9050919050565b611f5981611b14565b82525050565b60008160c01c9050919050565b6000611f7f611f7a83611f5f565b611f26565b9050919050565b60008160e01c9050919050565b6000611fa6611fa183611f86565b611f26565b9050919050565b61010082016000808301549050611fc381611eaf565b611fd06000860182611ec9565b50611fda81611efd565b611fe76020860182611f17565b5060018301549050611ff881611eaf565b6120056040860182611ec9565b5061200f81611efd565b61201c6060860182611f17565b506002830154905061202d81611eaf565b61203a6080860182611ec9565b5061204481611f36565b61205160a0860182611f50565b5061205b81611f6c565b61206860c0860182611f50565b5061207281611f93565b61207f60e0860182611f50565b5050505050565b60006101008201905061209c6000830184611fad565b92915050565b7f4e487b7100000000000000000000000000000000000000000000000000000000600052601160045260246000fd5b60006120dc82611b14565b91506120e783611b14565b92508263ffffffff03821115612100576120ff6120a2565b5b828201905092915050565b7f41554354494f4e5f4e4f545f4f56455200000000000000000000000000000000600082015250565b6000612141601083611d99565b915061214c8261210b565b602082019050919050565b6000602082019050818103600083015261217081612134565b9050919050565b600060608201905061218c6000830186611ade565b6121996020830185611ade565b6121a66040830184611bf1565b949350505050565b610100820160008201516121c56000850182611ec9565b5060208201516121d86020850182611f17565b5060408201516121eb6040850182611ec9565b5060608201516121fe6060850182611f17565b5060808201516122116080850182611ec9565b5060a082015161222460a0850182611f50565b5060c082015161223760c0850182611f50565b5060e082015161224a60e0850182611f50565b50505050565b60006101008201905061226660008301846121ae565b92915050565b7f41554354494f4e5f535441525445440000000000000000000000000000000000600082015250565b60006122a2600f83611d99565b91506122ad8261226c565b602082019050919050565b600060208201905081810360008301526122d181612295565b9050919050565b7f4f4e4c595f53454c4c45525f4f525f544f4b454e5f4f574e4552000000000000600082015250565b600061230e601a83611d99565b9150612319826122d8565b602082019050919050565b6000602082019050818103600083015261233d81612301565b9050919050565b7f41554354494f4e5f444f45535f4e4f545f455849535400000000000000000000600082015250565b600061237a601683611d99565b915061238582612344565b602082019050919050565b600060208201905081810360008301526123a98161236d565b9050919050565b7f41554354494f4e5f4e4f545f5354415254454400000000000000000000000000600082015250565b60006123e6601383611d99565b91506123f1826123b0565b602082019050919050565b60006020820190508181036000830152612415816123d9565b9050919050565b6000612427826119ee565b9150612432836119ee565b9250827fffffffffffffffffffffffffffffffffffffffffffffffffffffffffffffffff03821115612467576124666120a2565b5b828201905092915050565b7f41554354494f4e5f4f5645520000000000000000000000000000000000000000600082015250565b60006124a8600c83611d99565b91506124b382612472565b602082019050919050565b600060208201905081810360008301526124d78161249b565b9050919050565b7f524553455256455f50524943455f4e4f545f4d45540000000000000000000000600082015250565b6000612514601583611d99565b915061251f826124de565b602082019050919050565b6000602082019050818103600083015261254381612507565b9050919050565b7f4e487b7100000000000000000000000000000000000000000000000000000000600052601260045260246000fd5b7f4d494e494d554d5f4249445f4e4f545f4d455400000000000000000000000000600082015250565b60006125af601383611d99565b91506125ba82612579565b602082019050919050565b600060208201905081810360008301526125de816125a2565b9050919050565b610100820160008083015490506125fb81611eaf565b6126086000860182611ec9565b5061261281611efd565b61261f6020860182611f17565b506001830154905061263081611eaf565b61263d6040860182611ec9565b5061264781611efd565b6126546060860182611f17565b506002830154905061266581611eaf565b6126726080860182611ec9565b5061267c81611f36565b61268960a0860182611f50565b5061269381611f6c565b6126a060c0860182611f50565b506126aa81611f93565b6126b760e0860182611f50565b5050505050565b6000610100820190506126d460008301846125e5565b92915050565b7f4f4e4c595f4f574e45525f43414e5f494e4352454153455f524553455256454460008201527f5f50524943450000000000000000000000000000000000000000000000000000602082015250565b6000612736602683611d99565b9150612741826126da565b604082019050919050565b6000602082019050818103600083015261276581612729565b9050919050565b7f4f4e4c595f53454c4c4552000000000000000000000000000000000000000000600082015250565b60006127a2600b83611d99565b91506127ad8261276c565b602082019050919050565b600060208201905081810360008301526127d181612795565b905091905056fea2646970667358221220af8ed3807beec7d2e7152d1c5314eaee882890d6a160438bc3b84680603902cf64736f6c634300080a0033",
  "linkReferences": {},
  "deployedLinkReferences": {}
}